{
	"data": {
		"bytecode": {
			"linkReferences": {
				"contracts/test/Math.sol": {
					"Math": [
						{
							"length": 20,
							"start": 5395
						},
						{
							"length": 20,
							"start": 7517
						},
						{
							"length": 20,
							"start": 7720
						},
						{
							"length": 20,
							"start": 8395
						},
						{
							"length": 20,
							"start": 9104
						},
						{
							"length": 20,
							"start": 10929
						},
						{
							"length": 20,
							"start": 12382
						},
						{
							"length": 20,
							"start": 12874
						},
						{
							"length": 20,
							"start": 13075
						},
						{
							"length": 20,
							"start": 16240
						},
						{
							"length": 20,
							"start": 17104
						},
						{
							"length": 20,
							"start": 17564
						},
						{
							"length": 20,
							"start": 19072
						}
					]
				}
			},
			"object": "60a060405234801561001057600080fd5b50600180546001600160a01b03191633179055610030624f1a0042610041565b6001600160401b031660805261007a565b60006001600160401b0382811684821680830382111561007157634e487b7160e01b600052601160045260246000fd5b01949350505050565b608051615fe361009560003960006103c20152615fe36000f3fe608060405234801561001057600080fd5b506004361061006d5760003560e01c806306ec16f8146100725780630f11779b14610087578063126bac63146100a55780635b16ebb7146100b85780635c2dc4f0146100f4578063af1224f0146100fc578063bedb86fb1461010d575b600080fd5b6100856100803660046106f5565b610120565b005b61008f6101dd565b60405161009c919061071e565b60405180910390f35b6100856100b33660046106f5565b6102e8565b6100e46100c63660046106f5565b6001600160a01b031660009081526020819052604090205460ff1690565b604051901515815260200161009c565b61008561036a565b6001546001600160a01b031661008f565b61008561011b366004610743565b610396565b6001546001600160a01b031633146101535760405162461bcd60e51b815260040161014a90610760565b60405180910390fd5b6040516370a0823160e01b81526000906001600160a01b038316906370a082319061018290309060040161071e565b602060405180830381865afa15801561019f573d6000803e3d6000fd5b505050506040513d601f19601f820116820180604052508101906101c3919061077c565b90506101d96001600160a01b038316338361043b565b5050565b600154600090600160a01b900460ff161561020a5760405162461bcd60e51b815260040161014a90610795565b6000604051610218906106e7565b604051809103906000f080158015610234573d6000803e3d6000fd5b506001600160a01b038116600081815260208190526040808220805460ff1916600117905551929350909133917f8ccec77b0cb63ac2cafd0f5de8cdfadab91ce656d262240ba8a6343bccc5f94591a36040516392eefe9b60e01b81526001600160a01b038216906392eefe9b906102b090339060040161071e565b600060405180830381600087803b1580156102ca57600080fd5b505af11580156102de573d6000803e3d6000fd5b5092949350505050565b6001546001600160a01b031633146103125760405162461bcd60e51b815260040161014a90610760565b6040516001600160a01b0382169033907fd5fc541246d6ef850235eba8314229129138aac441e26edf4d044e01cf2d465090600090a3600180546001600160a01b0319166001600160a01b0392909216919091179055565b600154600160a01b900460ff16156103945760405162461bcd60e51b815260040161014a90610795565b565b6001546001600160a01b031633146103c05760405162461bcd60e51b815260040161014a90610760565b7f00000000000000000000000000000000000000000000000000000000000000006001600160401b0316421061041d5760405162461bcd60e51b8152602060048201526002602482015261343560f01b604482015260640161014a565b60018054911515600160a01b0260ff60a01b19909216919091179055565b604080516001600160a01b038416602482015260448082018490528251808303909101815260649091019091526020810180516001600160e01b031663a9059cbb60e01b17905261048d908490610492565b505050565b60006104e7826040518060400160405280602081526020017f5361666545524332303a206c6f772d6c6576656c2063616c6c206661696c6564815250856001600160a01b03166105649092919063ffffffff16565b80519091501561048d578080602001905181019061050591906107b1565b61048d5760405162461bcd60e51b815260206004820152602a60248201527f5361666545524332303a204552433230206f7065726174696f6e20646964206e6044820152691bdd081cdd58d8d9595960b21b606482015260840161014a565b6060610573848460008561057d565b90505b9392505050565b6060824710156105de5760405162461bcd60e51b815260206004820152602660248201527f416464726573733a20696e73756666696369656e742062616c616e636520666f6044820152651c8818d85b1b60d21b606482015260840161014a565b6001600160a01b0385163b6106355760405162461bcd60e51b815260206004820152601d60248201527f416464726573733a2063616c6c20746f206e6f6e2d636f6e7472616374000000604482015260640161014a565b600080866001600160a01b0316858760405161065191906107fe565b60006040518083038185875af1925050503d806000811461068e576040519150601f19603f3d011682016040523d82523d6000602084013e610693565b606091505b50915091506106a38282866106ae565b979650505050505050565b606083156106bd575081610576565b8251156106cd5782518084602001fd5b8160405162461bcd60e51b815260040161014a919061081a565b615760806200084e83390190565b60006020828403121561070757600080fd5b81356001600160a01b038116811461057657600080fd5b6001600160a01b0391909116815260200190565b801515811461074057600080fd5b50565b60006020828403121561075557600080fd5b813561057681610732565b6020808252600290820152610ccd60f21b604082015260600190565b60006020828403121561078e57600080fd5b5051919050565b602080825260029082015261199b60f11b604082015260600190565b6000602082840312156107c357600080fd5b815161057681610732565b60005b838110156107e95781810151838201526020016107d1565b838111156107f8576000848401525b50505050565b600082516108108184602087016107ce565b9190910192915050565b60208152600082518060208401526108398160408501602087016107ce565b601f01601f1916919091016040019291505056fe6101606040523480156200001257600080fd5b50604080518082018252601081526f29bbb0b0b8102837b7b6102a37b5b2b760811b6020808301918252835180850190945260058452640312e302e360dc1b908401528151902060e08190527f06c015bd22b4c69690933c1058878ebdfef31f9aaae40bbe86d8a09fe1b2972c6101008190524660a0529192917f8b73c3c69bb8fe3d512ecc4cf759cc79239f7b179b0ffacaa9a75d522b39400f620000fd8184846040805160208101859052908101839052606081018290524660808201523060a082015260009060c0016040516020818303038152906040528051906020012090509392505050565b6080523060c052610120525050600680546001600160601b0316336c0100000000000000000000000081029190911790915561014052506200014d9050620f4240670de0b6b3a7640000620001d0565b6008556007805461ff001916610400179055610e10600b55600a6200017c670de0b6b3a76400006006620001f3565b620001889190620001d0565b600780546001600160401b0392909216620100000262010000600160501b0319909216919091179055620001c7670de0b6b3a764000061012c620001f3565b600a5562000221565b600082620001ee57634e487b7160e01b600052601260045260246000fd5b500490565b60008160001904831182151516156200021c57634e487b7160e01b600052601160045260246000fd5b500290565b60805160a05160c05160e0516101005161012051610140516154c16200029f600039600081816116a9015281816120690152818161223f01528181612b22015281816135af0152613d9e01526000613faf01526000613ffe01526000613fd901526000613f3201526000613f5c01526000613f8601526154c16000f3fe608060405234801561001057600080fd5b50600436106102255760003560e01c806306ca19591461022a57806306fdde031461023f578063095ea7b31461027d5780631446a7ff146102a057806318160ddd146102c157806323b872dd146102c95780632d0335ab146102dc5780632f37b624146103055780633018205f14610331578063313ce56714610352578063314d204f1461036157806334e19907146103745780633c515d99146103875780633cc339601461039a57806349b59552146103ad5780634bb278f3146103c05780634f69c0d4146103c8578063538e285c146103db57806366188463146103ee5780636a9b7c8814610401578063706860a31461042257806370a0823114610435578063769e7f471461045e578063812d86281461047157806386d46062146104b7578063895c253a146104ca5780638c28cbe8146104f25780638d4e40831461050557806392eefe9b14610510578063948d8ce61461052357806395d89b4114610536578063a1f2685414610555578063a9059cbb14610568578063aa6ca8081461057b578063ab323b4914610590578063b02f0b73146105a3578063b849a206146105b6578063c09fa8b4146105c9578063c3435171146105dc578063d04ee53f146105ef578063d0fffbdb14610602578063d4cadf6814610615578063d73dd6231461061d578063dd62ed3e14610630578063ea45766b14610669578063f8b2cb4f1461067c578063fde924f71461068f575b600080fd5b61023d610238366004614905565b61069f565b005b60408051808201909152601081526f29bbb0b0b8102837b7b6102a37b5b2b760811b60208201525b60405161027491906149ef565b60405180910390f35b61029061028b366004614a22565b610864565b6040519015158152602001610274565b6102b36102ae366004614a4c565b6108bf565b604051908152602001610274565b6003546102b3565b6102906102d7366004614a7f565b6109f6565b6102b36102ea366004614abb565b6001600160a01b03166000908152600c602052604090205490565b610290610313366004614abb565b6001600160a01b031660009081526005602052604090205460ff1690565b600654600160601b90046001600160a01b03165b6040516102749190614ad6565b60405160128152602001610274565b61023d61036f366004614aea565b610acd565b61023d610382366004614aea565b610b88565b61023d610395366004614b03565b610c89565b61023d6103a8366004614b3b565b610d17565b61023d6103bb366004614b66565b610e09565b61023d610e88565b61023d6103d6366004614b83565b610f81565b61023d6103e9366004614aea565b610f92565b6102906103fc366004614a22565b611039565b61041461040f366004614bce565b61110f565b604051610274929190614c2b565b6102b3610430366004614c46565b61141f565b6102b3610443366004614abb565b6001600160a01b031660009081526001602052604090205490565b6102b361046c366004614c46565b6116e4565b600754600a54600b54604080516201000085046001600160401b03168152602081019390935261010090930460ff16928201929092526060810191909152608001610274565b61023d6104c5366004614c8e565b611959565b6104dd6104d8366004614bce565b611b17565b60408051928352602083019190915201610274565b61023d610500366004614abb565b611c25565b60075460ff16610290565b61023d61051e366004614abb565b611cfe565b6102b3610531366004614abb565b611da2565b60408051808201909152600381526214d41560ea1b6020820152610267565b6102b3610563366004614c46565b611e05565b610290610576366004614a22565b612099565b6105836120af565b6040516102749190614cdd565b61023d61059e366004614c8e565b612111565b61023d6105b1366004614b83565b6121a9565b6102b36105c4366004614c46565b6123b2565b6104146105d7366004614bce565b6125fc565b61023d6105ea366004614abb565b61286a565b6103456105fd366004614abb565b612b53565b6104dd610610366004614bce565b612baa565b6008546102b3565b61029061062b366004614a22565b612c9b565b6102b361063e366004614a4c565b6001600160a01b03918216600090815260026020908152604080832093909416825291909152205490565b6102b3610677366004614abb565b612d0f565b6102b361068a366004614abb565b612d66565b600654610100900460ff16610290565b8042106106d75760405162461bcd60e51b81526020600482015260016024820152601b60f91b60448201526064015b60405180910390fd5b6001600160a01b0383166000908152600c6020908152604080832054905161074b92610730927f8d70241bca15590d68d30436a30baf62a7bb9d12a334f8817928b92889ad3c1292899289928d928d928b929101614d2a565b60405160208183030381529060405280519060200120612dbd565b90506107a3816040517b0ca2ba3432b932bab69029b4b3b732b21026b2b9b9b0b3b29d05199960211b6020820152603c8101829052600090605c01604051602081830303815290604052805190602001209050919050565b905060006107e7828a8a8080601f016020809104026020016040519081016040528093929190818152602001838380828437600092019190915250612e0b92505050565b9050846001600160a01b0316816001600160a01b03161461082e5760405162461bcd60e51b81526020600482015260016024820152603760f81b60448201526064016106ce565b6001600160a01b0385166000908152600c602052604090208054600101905561085985858989612e2f565b505050505050505050565b3360008181526002602090815260408083206001600160a01b0387168085529252808320859055519192909160008051602061544c833981519152906108ad9086815260200190565b60405180910390a35060015b92915050565b6001600160a01b03821660009081526005602052604081205460ff1680156108ff57506001600160a01b03821660009081526005602052604090205460ff165b61091b5760405162461bcd60e51b81526004016106ce90614d93565b6001600160a01b0383811660009081526005602052604080822060018082015491549487168452828420908101549054925163a221ee4960e01b815260048101929092526001600160501b036201000095869004811660248401526044830191909152939091049092166064830152608482015273__$4d90f7f4cae343463883313ffa78eb8612$__9063a221ee499060a401602060405180830381865af41580156109cb573d6000803e3d6000fd5b505050506040513d601f19601f820116820180604052508101906109ef9190614dae565b9392505050565b6000610a03848484612ffa565b336001600160a01b03851614801590610a4157506001600160a01b038416600090815260026020908152604080832033845290915290205460001914155b15610ac3576001600160a01b0384166000908152600260209081526040808320338452909152902054610a75908390614ddd565b6001600160a01b03858116600090815260026020908152604080832033808552908352928190208590555193845291861692909160008051602061544c833981519152910160405180910390a35b5060019392505050565b610ad5613124565b610add613160565b60075460ff1615610b005760405162461bcd60e51b81526004016106ce90614df4565b600654600160601b90046001600160a01b03163314610b315760405162461bcd60e51b81526004016106ce90614e0f565b610b44670de0b6b3a76400006001614e2a565b811015610b785760405162461bcd60e51b8152602060048201526002602482015261191960f11b60448201526064016106ce565b600a819055610b856131a6565b50565b610b90613124565b610b98613160565b60075460ff1615610bbb5760405162461bcd60e51b81526004016106ce90614df4565b600654600160601b90046001600160a01b03163314610bec5760405162461bcd60e51b81526004016106ce90614e0f565b610c01620f4240670de0b6b3a7640000614e49565b811015610c355760405162461bcd60e51b81526020600482015260026024820152610c4d60f21b60448201526064016106ce565b610c48600a670de0b6b3a7640000614e49565b811115610c7c5760405162461bcd60e51b8152602060048201526002602482015261313560f01b60448201526064016106ce565b6008819055610b856131a6565b610c91613124565b610c99613160565b60075460ff1615610cbc5760405162461bcd60e51b81526004016106ce90614df4565b600654600160601b90046001600160a01b03163314610ced5760405162461bcd60e51b81526004016106ce90614e0f565b6007805462010000600160501b031916620100006001600160401b03841602179055610b856131a6565b610d1f613124565b610d27613160565b60075460ff1615610d4a5760405162461bcd60e51b81526004016106ce90614df4565b600654600160601b90046001600160a01b03163314610d7b5760405162461bcd60e51b81526004016106ce90614e0f565b600160ff82161015610db45760405162461bcd60e51b81526020600482015260026024820152610c8d60f21b60448201526064016106ce565b606460ff82161115610ded5760405162461bcd60e51b8152602060048201526002602482015261323560f01b60448201526064016106ce565b6007805461ff00191661010060ff841602179055610b856131a6565b610e11613124565b610e19613160565b60075460ff1615610e3c5760405162461bcd60e51b81526004016106ce90614df4565b600654600160601b90046001600160a01b03163314610e6d5760405162461bcd60e51b81526004016106ce90614e0f565b6006805461ff00191661010083151502179055610b856131a6565b610e90613124565b610e98613160565b60075460ff1615610ebb5760405162461bcd60e51b81526004016106ce90614df4565b600654600160601b90046001600160a01b03163314610eec5760405162461bcd60e51b81526004016106ce90614e0f565b60045460021115610f245760405162461bcd60e51b8152602060048201526002602482015261062760f31b60448201526064016106ce565b6007805460ff191660011790556006805461ff001916610100179055610f5b610f56670de0b6b3a76400006064614e2a565b6131b2565b610f7733610f72670de0b6b3a76400006064614e2a565b6131bb565b610f7f6131a6565b565b610f8d33848484612e2f565b505050565b610f9a613124565b610fa2613160565b60075460ff1615610fc55760405162461bcd60e51b81526004016106ce90614df4565b600654600160601b90046001600160a01b03163314610ff65760405162461bcd60e51b81526004016106ce90614e0f565b600181101561102c5760405162461bcd60e51b8152602060048201526002602482015261191b60f11b60448201526064016106ce565b600b819055610b856131a6565b3360009081526002602090815260408083206001600160a01b03861684529091528120548083111561108e573360009081526002602090815260408083206001600160a01b03881684529091528120556110bd565b6110988382614ddd565b3360009081526002602090815260408083206001600160a01b03891684529091529020555b3360008181526002602090815260408083206001600160a01b0389168085529083529281902054905190815291929160008051602061544c833981519152910160405180910390a35060019392505050565b611117614844565b6001600160a01b03861660009081526005602052604081205460ff16801561115757506001600160a01b03851660009081526005602052604090205460ff165b6111735760405162461bcd60e51b81526004016106ce90614d93565b600654610100900460ff1661119a5760405162461bcd60e51b81526004016106ce90614e6b565b60006111a5886131c9565b905060006111b2876131c9565b825180516020918201518351805193015160085460405163a221ee4960e01b815295965060009573__$4d90f7f4cae343463883313ffa78eb8612$__9563a221ee499561120a95909490939192909190600401614e87565b602060405180830381865af4158015611227573d6000803e3d6000fd5b505050506040513d601f19601f8201168201806040525081019061124b9190614dae565b90508581111561126d5760405162461bcd60e51b81526004016106ce90614eaa565b61127983838942613350565b9450888560000151111561129f5760405162461bcd60e51b81526004016106ce90614ec6565b845183515173__$4d90f7f4cae343463883313ffa78eb8612$__9163a221ee49916112ca9190614ee1565b8551602001518551516112de908c90614ddd565b8651602001516008546040516001600160e01b031960e088901b16815261130c959493929190600401614e87565b602060405180830381865af4158015611329573d6000803e3d6000fd5b505050506040513d601f19601f8201168201806040525081019061134d9190614dae565b93508084101561136f5760405162461bcd60e51b81526004016106ce90614ef9565b845161137b9088613487565b81111561139a5760405162461bcd60e51b81526004016106ce90614ef9565b60085460646113b2670de0b6b3a76400006002614e2a565b6113bc9190614e49565b6113ce90670de0b6b3a7640000614ee1565b6113d89190614ee1565b6113f3856113ee866020015186602001516134cd565b613487565b11156114115760405162461bcd60e51b81526004016106ce90614f14565b5050505b9550959350505050565b6000611429613124565b611431613160565b6114396135ad565b60075460ff1661145b5760405162461bcd60e51b81526004016106ce90614f30565b6001600160a01b03841660009081526005602052604090205460ff166114935760405162461bcd60e51b81526004016106ce90614d93565b61149b61485e565b60606114a68661361a565b6040805160608101825288815260085460208201529294509092506000919081016103e86114dd670de0b6b3a76400006003614e2a565b6114e79190614e49565b90526040805180820182526007546201000081046001600160401b03168252600a54602080840191909152835160608101855261010090920460ff168252600b549082015242818401526003549251637075bbaf60e11b81529394509092909173__$4d90f7f4cae343463883313ffa78eb8612$__9163e0eb775e916115799189908990899089908990600401614fce565b602060405180830381865af4158015611596573d6000803e3d6000fd5b505050506040513d601f19601f820116820180604052508101906115ba9190614dae565b955050505082600014156115e05760405162461bcd60e51b81526004016106ce90614ef9565b838311156116005760405162461bcd60e51b81526004016106ce90614ec6565b81518051869190611612908390614ddd565b90525061161f828261373f565b8151516001600160a01b03871660009081526005602052604081206001019190915561164b84826138a0565b9050866001600160a01b0316336001600160a01b031660008051602061542c8339815191528860405161168091815260200190565b60405180910390a361169233856138e4565b6116a461169f8286614ddd565b6138ee565b6116ce7f0000000000000000000000000000000000000000000000000000000000000000826131bb565b6116d98733886138f7565b5050506109ef6131a6565b60006116ee613124565b6116f6613160565b6116fe6135ad565b60075460ff166117205760405162461bcd60e51b81526004016106ce90614f30565b6001600160a01b03841660009081526005602052604090205460ff166117585760405162461bcd60e51b81526004016106ce90614d93565b61176061485e565b606061176b8661361a565b6040805160608101825288815260085460208201529294509092506000919081016103e86117a2670de0b6b3a76400006003614e2a565b6117ac9190614e49565b90526040805180820182526007546201000081046001600160401b03168252600a54602080840191909152835160608101855261010090920460ff168252600b54908201524281840152600354925163511fd5cd60e01b81529394509092909173__$4d90f7f4cae343463883313ffa78eb8612$__9163511fd5cd9161183e9189908990899089908990600401614fce565b602060405180830381865af415801561185b573d6000803e3d6000fd5b505050506040513d601f19601f8201168201806040525081019061187f9190614dae565b955050505082600014156118a55760405162461bcd60e51b81526004016106ce90614ef9565b838311156118c55760405162461bcd60e51b81526004016106ce90614ec6565b815180518491906118d7908390614ee1565b9052506118e4828261390b565b8151516001600160a01b0387166000818152600560205260409081902060010192909255905133906000805160206153ec833981519152906119299087815260200190565b60405180910390a361193a856131b2565b6119443386613a73565b61194f863385613a9b565b50506109ef6131a6565b600654600160601b90046001600160a01b0316331461198a5760405162461bcd60e51b81526004016106ce90614e0f565b6001600160a01b03841660009081526005602052604090205460ff16156119d85760405162461bcd60e51b8152602060048201526002602482015261064760f31b60448201526064016106ce565b60075460ff16156119fb5760405162461bcd60e51b81526004016106ce90614df4565b600454600811611a325760405162461bcd60e51b8152602060048201526002602482015261323960f01b60448201526064016106ce565b6040805160808101825260018082526004805460ff90811660208086019182526000868801818152606088018281526001600160a01b038e168084526005909452988220975188549451915161ffff1990951690151561ff0019161761010091909516029390931762010000600160601b031916620100006001600160501b0390931692909202919091178555945193830193909355805491820181559091527f8a35acfbc15ff81a39ae7d344fd709f28e8600b4aa8c65c6b64bfe7fe36bd19b0180546001600160a01b0319169091179055611b1184848484613ab0565b50505050565b600080611b22613124565b611b2a613160565b611b326135ad565b611b3a614844565b611b47888888888861110f565b81516001600160a01b038b1660009081526005602052604081206001018054939650939450909291611b7a908490614ee1565b90915550506001600160a01b03861660009081526005602052604081206001018054879290611baa908490614ddd565b92505081905550856001600160a01b0316886001600160a01b0316336001600160a01b031660008051602061546c8339815191528460000151898660200151604051611bf89392919061505a565b60405180910390a4611c0f88338360000151613a9b565b611c1a8633876138f7565b5191506114156131a6565b611c2d613124565b611c35613160565b6001600160a01b03811660009081526005602052604090205460ff16611c6d5760405162461bcd60e51b81526004016106ce90614d93565b6040516370a0823160e01b81526001600160a01b038216906370a0823190611c99903090600401614ad6565b602060405180830381865afa158015611cb6573d6000803e3d6000fd5b505050506040513d601f19601f82011682018060405250810190611cda9190614dae565b6001600160a01b038216600090815260056020526040902060010155610b856131a6565b611d06613124565b611d0e613160565b600654600160601b90046001600160a01b03163314611d3f5760405162461bcd60e51b81526004016106ce90614e0f565b6001600160a01b038116611d7a5760405162461bcd60e51b8152602060048201526002602482015261313360f01b60448201526064016106ce565b600680546001600160601b0316600160601b6001600160a01b03841602179055610b856131a6565b6001600160a01b03811660009081526005602052604081205460ff16611dda5760405162461bcd60e51b81526004016106ce90614d93565b506001600160a01b03166000908152600560205260409020546201000090046001600160501b031690565b6000611e0f613124565b611e17613160565b611e1f6135ad565b60075460ff16611e415760405162461bcd60e51b81526004016106ce90614f30565b6001600160a01b03841660009081526005602052604090205460ff16611e795760405162461bcd60e51b81526004016106ce90614d93565b611e8161485e565b6060611e8c8661361a565b6040805160608101825288815260085460208201529294509092506000919081016103e8611ec3670de0b6b3a76400006003614e2a565b611ecd9190614e49565b90526040805180820182526007546201000081046001600160401b03168252600a54602080840191909152835160608101855261010090920460ff168252600b549082015242818401526003549251630c534d8f60e11b81529394509092909173__$4d90f7f4cae343463883313ffa78eb8612$__916318a69b1e91611f5f9189908990899089908990600401614fce565b602060405180830381865af4158015611f7c573d6000803e3d6000fd5b505050506040513d601f19601f82011682018060405250810190611fa09190614dae565b955050505083831015611fc55760405162461bcd60e51b81526004016106ce90615070565b81518051849190611fd7908390614ddd565b905250611fe4828261373f565b8151516001600160a01b03871660009081526005602052604081206001019190915561201086826138a0565b9050866001600160a01b0316336001600160a01b031660008051602061542c8339815191528660405161204591815260200190565b60405180910390a361205733876138e4565b61206461169f8288614ddd565b61208e7f0000000000000000000000000000000000000000000000000000000000000000826131bb565b6116d98733866138f7565b60006120a6338484612ffa565b50600192915050565b6060600480548060200260200160405190810160405280929190818152602001828054801561210757602002820191906000526020600020905b81546001600160a01b031681526001909101906020018083116120e9575b5050505050905090565b600654600160601b90046001600160a01b031633146121425760405162461bcd60e51b81526004016106ce90614e0f565b6001600160a01b03841660009081526005602052604090205460ff1661217a5760405162461bcd60e51b81526004016106ce90614d93565b60075460ff161561219d5760405162461bcd60e51b81526004016106ce90614df4565b611b1184848484613ab0565b6121b1613124565b6121b9613160565b60075460ff166121db5760405162461bcd60e51b81526004016106ce90614f30565b60006121e660035490565b905060006121f58560006138a0565b905060006122038287614ddd565b905060006122118285613487565b9050806122305760405162461bcd60e51b81526004016106ce90614ef9565b61223a33886138e4565b6122647f0000000000000000000000000000000000000000000000000000000000000000846131bb565b61226d826138ee565b60005b6004548110156123a55760006004828154811061228f5761228f61508b565b60009182526020808320909101546001600160a01b031680835260059091526040822060010154909250906122c485836138a0565b9050806122e35760405162461bcd60e51b81526004016106ce90614ef9565b8989858181106122f5576122f561508b565b9050602002013581101561231b5760405162461bcd60e51b81526004016106ce90615070565b6001600160a01b038316600090815260056020526040902060010154612342908290614ddd565b6001600160a01b03841660008181526005602052604090819020600101929092559051339060008051602061542c833981519152906123849085815260200190565b60405180910390a36123978333836138f7565b836001019350505050612270565b5050505050610f8d6131a6565b60006123bc613124565b6123c4613160565b6123cc6135ad565b60075460ff166123ee5760405162461bcd60e51b81526004016106ce90614f30565b6001600160a01b03841660009081526005602052604090205460ff166124265760405162461bcd60e51b81526004016106ce90614d93565b61242e61485e565b60606124398661361a565b6040805160608101825288815260085460208201529294509092506000919081016103e8612470670de0b6b3a76400006003614e2a565b61247a9190614e49565b90526040805180820182526007546201000081046001600160401b03168252600a54602080840191909152835160608101855261010090920460ff168252600b549082015242818401526003549251637e0acf6d60e11b81529394509092909173__$4d90f7f4cae343463883313ffa78eb8612$__9163fc159eda9161250c9189908990899089908990600401614fce565b602060405180830381865af4158015612529573d6000803e3d6000fd5b505050506040513d601f19601f8201168201806040525081019061254d9190614dae565b9550505050838310156125725760405162461bcd60e51b81526004016106ce90615070565b81518051869190612584908390614ee1565b905250612591828261390b565b8151516001600160a01b0387166000818152600560205260409081902060010192909255905133906000805160206153ec833981519152906125d69089815260200190565b60405180910390a36125e7836131b2565b6125f13384613a73565b61194f863387613a9b565b612604614844565b6001600160a01b03861660009081526005602052604081205460ff16801561264457506001600160a01b03851660009081526005602052604090205460ff165b6126605760405162461bcd60e51b81526004016106ce90614d93565b600654610100900460ff166126875760405162461bcd60e51b81526004016106ce90614e6b565b6000612692886131c9565b9050600061269f876131c9565b825180516020918201518351805193015160085460405163a221ee4960e01b815295965060009573__$4d90f7f4cae343463883313ffa78eb8612$__9563a221ee49956126f795909490939192909190600401614e87565b602060405180830381865af4158015612714573d6000803e3d6000fd5b505050506040513d601f19601f820116820180604052508101906127389190614dae565b90508581111561275a5760405162461bcd60e51b81526004016106ce90614eaa565b61276683838b42613e60565b9450868560000151101561278c5760405162461bcd60e51b81526004016106ce90615070565b82515173__$4d90f7f4cae343463883313ffa78eb8612$__9063a221ee49906127b6908c90614ee1565b85516020015188518651516127cb9190614ddd565b8651602001516008546040516001600160e01b031960e088901b1681526127f9959493929190600401614e87565b602060405180830381865af4158015612816573d6000803e3d6000fd5b505050506040513d601f19601f8201168201806040525081019061283a9190614dae565b93508084101561285c5760405162461bcd60e51b81526004016106ce90614ef9565b61137b898660000151613487565b612872613124565b61287a613160565b600654600160601b90046001600160a01b031633146128ab5760405162461bcd60e51b81526004016106ce90614e0f565b6001600160a01b03811660009081526005602052604090205460ff166128e35760405162461bcd60e51b81526004016106ce90614d93565b60075460ff16156129065760405162461bcd60e51b81526004016106ce90614df4565b6001600160a01b0381166000908152600560205260408120600101549061292d82826138a0565b6001600160a01b03841660009081526005602052604090205460065491925061296c916001600160501b036201000092839004811692909104166150a1565b6006805462010000600160601b031916620100006001600160501b0393909316929092029190911790556001600160a01b03831660009081526005602052604081205460045461010090910460ff1691906129c990600190614ddd565b9050600481815481106129de576129de61508b565b600091825260209091200154600480546001600160a01b039092169160ff8516908110612a0d57612a0d61508b565b9060005260206000200160006101000a8154816001600160a01b0302191690836001600160a01b03160217905550816005600060048560ff1681548110612a5657612a5661508b565b60009182526020808320909101546001600160a01b031683528201929092526040019020805460ff929092166101000261ff00199092169190911790556004805480612aa457612aa46150c9565b60008281526020808220830160001990810180546001600160a01b031990811690915593019093556001600160a01b038816815260058352604080822080546001600160601b031916815560019081018390556009909452812080549092168255910155612b1c8533612b178688614ddd565b6138f7565b612b47857f0000000000000000000000000000000000000000000000000000000000000000856138f7565b50505050610b856131a6565b6001600160a01b03811660009081526005602052604081205460ff16612b8b5760405162461bcd60e51b81526004016106ce90614d93565b506001600160a01b039081166000908152600960205260409020541690565b600080612bb5613124565b612bbd613160565b612bc56135ad565b612bcd614844565b612bda88888888886125fc565b6001600160a01b038a1660009081526005602052604081206001018054929550929350899291612c0b908490614ee1565b909155505080516001600160a01b03871660009081526005602052604081206001018054909190612c3d908490614ddd565b9091555050805160208201516040516001600160a01b03808a1693908c1692339260008051602061546c83398151915292612c79928e9261505a565b60405180910390a4612c8c883389613a9b565b611c1a863383600001516138f7565b3360009081526002602090815260408083206001600160a01b0386168452909152812054612cca908390614ee1565b3360008181526002602090815260408083206001600160a01b0389168085529083529281902085905551938452909260008051602061544c83398151915291016108ad565b6001600160a01b03811660009081526005602052604081205460ff16612d475760405162461bcd60e51b81526004016106ce90614d93565b506001600160a01b031660009081526009602052604090206001015490565b6001600160a01b03811660009081526005602052604081205460ff16612d9e5760405162461bcd60e51b81526004016106ce90614d93565b506001600160a01b031660009081526005602052604090206001015490565b60006108b9612dca613f25565b8360405161190160f01b6020820152602281018390526042810182905260009060620160405160208183030381529060405280519060200120905092915050565b6000806000612e1a858561404c565b91509150612e27816140bc565b509392505050565b612e37613124565b612e3f613160565b612e476135ad565b60075460ff16612e695760405162461bcd60e51b81526004016106ce90614f30565b6000612e7460035490565b90506000612e828583613487565b905080612ea15760405162461bcd60e51b81526004016106ce90614ef9565b60005b600454811015612fdc57600060048281548110612ec357612ec361508b565b60009182526020808320909101546001600160a01b03168083526005909152604082206001015490925090612ef885836138a0565b905080612f175760405162461bcd60e51b81526004016106ce90614ef9565b878785818110612f2957612f2961508b565b90506020020135811115612f4f5760405162461bcd60e51b81526004016106ce90614ec6565b6001600160a01b038316600090815260056020526040902060010154612f76908290614ee1565b6001600160a01b0380851660008181526005602052604090819020600101939093559151908c16906000805160206153ec83398151915290612fbb9085815260200190565b60405180910390a3612fce833383613a9b565b836001019350505050612ea4565b50612fe6856131b2565b612ff08686613a73565b5050611b116131a6565b6001600160a01b0382166130355760405162461bcd60e51b8152602060048201526002602482015261333560f01b60448201526064016106ce565b6001600160a01b03831660009081526020819052604090205443116130815760405162461bcd60e51b8152602060048201526002602482015261313760f01b60448201526064016106ce565b6001600160a01b0383166000908152600160205260409020546130a5908290614ddd565b6001600160a01b0380851660009081526001602052604080822093909355908416815220546130d5908290614ee1565b6001600160a01b03808416600081815260016020526040908190209390935591519085169060008051602061540c833981519152906131179085815260200190565b60405180910390a3505050565b336001600160a01b03166000356001600160e01b0319166001600160e01b0319166000366040516131569291906150df565b60405180910390a2565b60065460ff16156131975760405162461bcd60e51b81526020600482015260016024820152600360fc1b60448201526064016106ce565b6006805460ff19166001179055565b6006805460ff19169055565b610b8581614272565b6131c582826142d8565b5050565b6131d161485e565b6001600160a01b0382811660008181526005602090815260408083208151608081018352815460ff80821615158352610100820416828601526201000090046001600160501b031681840152600191820154606082015294845260098352818420825180840184528154909716808852910154928601929092528051633fabe5a360e21b8152905193949383928392909163feaf968c9160048082019260a0929091908290030181865afa15801561328d573d6000803e3d6000fd5b505050506040513d601f19601f820116820180604052508101906132b1919061510e565b509350509250925060006040518060400160405280876060015181526020016132fc88604001516001600160501b03166132f789602001516132f2896142e3565b6142f8565b6138a0565b90526040805160808101825296516001600160a01b031687526001600160501b0390951660208088019190915286860194909452606086019290925250825180840190935282528101919091529392505050565b613358614844565b60408051606081018252848152600854602082015260009181016103e8613388670de0b6b3a76400006003614e2a565b6133929190614e49565b90526040805180820182526007546201000081046001600160401b03168252600a54602080840191909152835160608101855261010090920460ff168252600b548282015292810187905289830151928901519394509092909173__$4d90f7f4cae343463883313ffa78eb8612$__9163b2a3e6d4918b918b91613415916134cd565b8787876040518763ffffffff1660e01b815260040161343996959493929190615166565b6040805180830381865af4158015613455573d6000803e3d6000fd5b505050506040513d601f19601f8201168201806040525081019061347991906151c9565b93505050505b949350505050565b60008061349c670de0b6b3a764000085614e2a565b905060006134ab600285614e49565b6134b59083614ee1565b905060006134c38583614e49565b9695505050505050565b60006109ef836040015184600001516001600160a01b031663313ce5676040518163ffffffff1660e01b8152600401602060405180830381865afa158015613519573d6000803e3d6000fd5b505050506040513d601f19601f8201168201806040525081019061353d9190615225565b846040015185600001516001600160a01b031663313ce5676040518163ffffffff1660e01b8152600401602060405180830381865afa158015613584573d6000803e3d6000fd5b505050506040513d601f19601f820116820180604052508101906135a89190615225565b614304565b7f00000000000000000000000000000000000000000000000000000000000000006001600160a01b0316635c2dc4f06040518163ffffffff1660e01b815260040160006040518083038186803b15801561360657600080fd5b505afa158015611b11573d6000803e3d6000fd5b61362261485e565b606061362d836131c9565b60045490925060009061364290600190614ddd565b9050806001600160401b0381111561365c5761365c6151b3565b60405190808252806020026020018201604052801561369557816020015b61368261485e565b81526020019060019003908161367a5790505b5091506000805b8282101561373757856001600160a01b0316600482815481106136c1576136c161508b565b6000918252602090912001546001600160a01b03161461372f5761370b600482815481106136f1576136f161508b565b6000918252602090912001546001600160a01b03166131c9565b84838151811061371d5761371d61508b565b60200260200101819052508160010191505b60010161369c565b505050915091565b6000805b8251811015611b115773__$4d90f7f4cae343463883313ffa78eb8612$__63a221ee498483815181106137785761377861508b565b6020026020010151600001516000015185848151811061379a5761379a61508b565b60209081029190910181015151810151885180519201516040516001600160e01b031960e087901b1681526137d794939190600090600401614e87565b602060405180830381865af41580156137f4573d6000803e3d6000fd5b505050506040513d601f19601f820116820180604052508101906138189190614dae565b9150606461382f670de0b6b3a76400006002614e2a565b6138399190614e49565b61384b90670de0b6b3a7640000614ee1565b61387a836113ee8685815181106138645761386461508b565b60200260200101516020015188602001516134cd565b11156138985760405162461bcd60e51b81526004016106ce90614f14565b600101613743565b6000806138ad8385614e2a565b905060006138c46002670de0b6b3a7640000614e49565b6138ce9083614ee1565b905060006134c3670de0b6b3a764000083614e49565b6131c582826143a1565b610b85816143ac565b610f8d6001600160a01b038416838361440b565b6000805b8251811015611b115773__$4d90f7f4cae343463883313ffa78eb8612$__63a221ee498560000151600001518660000151602001518685815181106139565761395661508b565b602002602001015160000151600001518786815181106139785761397861508b565b6020026020010151600001516020015160006040518663ffffffff1660e01b81526004016139aa959493929190614e87565b602060405180830381865af41580156139c7573d6000803e3d6000fd5b505050506040513d601f19601f820116820180604052508101906139eb9190614dae565b91506064613a02670de0b6b3a76400006002614e2a565b613a0c9190614e49565b613a1e90670de0b6b3a7640000614ee1565b613a4d836113ee8760200151878681518110613a3c57613a3c61508b565b6020026020010151602001516134cd565b1115613a6b5760405162461bcd60e51b81526004016106ce90614f14565b60010161390f565b6001600160a01b03821660009081526020819052604090204360020190556131c582826142d8565b610f8d6001600160a01b038416833084614461565b613ab8613124565b613ac0613160565b613ac86135ad565b670de0b6b3a76400006001600160501b0383161015613b0e5760405162461bcd60e51b8152602060048201526002602482015261033360f41b60448201526064016106ce565b613b21670de0b6b3a76400006032614e2a565b6001600160501b0316826001600160501b03161115613b675760405162461bcd60e51b8152602060048201526002602482015261333160f01b60448201526064016106ce565b613b7e64e8d4a51000670de0b6b3a7640000614e49565b831015613bb25760405162461bcd60e51b8152602060048201526002602482015261199960f11b60448201526064016106ce565b6001600160a01b0384166000908152600560205260409020546001600160501b03620100009091048116908316811015613c9857613bf081846150a1565b600654613c0c91906201000090046001600160501b0316615242565b600680546001600160501b0392909216620100000262010000600160601b0319909216919091179055613c48670de0b6b3a76400006032614e2a565b6006546001600160501b03918216620100009091049091161115613c935760405162461bcd60e51b8152602060048201526002602482015261333360f01b60448201526064016106ce565b613d02565b806001600160501b0316836001600160501b03161015613d02576006548390613cd19083906201000090046001600160501b03166150a1565b613cdb9190615242565b600660026101000a8154816001600160501b0302191690836001600160501b031602179055505b6001600160a01b0385166000908152600560205260409020805462010000600160601b031916620100006001600160501b0386160217815560010180549085905580851115613d6457613d5f8633613d5a8489614ddd565b613a9b565b613dc6565b80851015613dc6576000613d788683614ddd565b90506000613d878260006138a0565b9050613d988833612b178486614ddd565b613dc3887f0000000000000000000000000000000000000000000000000000000000000000836138f7565b50505b6040805180820182526001600160a01b038581168252600060208084018281528b841683526009909152939020915182546001600160a01b031916911690811782559151600190910155613e1990614499565b6001600160a01b0380881660008181526009602052604090819020600181018590555490519193613e4e93919091169161526d565b60405180910390a15050611b116131a6565b613e68614844565b60408051606081018252848152600854602082015260009181016103e8613e98670de0b6b3a76400006003614e2a565b613ea29190614e49565b90526040805180820182526007546201000081046001600160401b03168252600a54602080840191909152835160608101855261010090920460ff168252600b548282015292810187905289830151928901519394509092909173__$4d90f7f4cae343463883313ffa78eb8612$__9163f1913050918b918b91613415916134cd565b6000306001600160a01b037f000000000000000000000000000000000000000000000000000000000000000016148015613f7e57507f000000000000000000000000000000000000000000000000000000000000000046145b15613fa857507f000000000000000000000000000000000000000000000000000000000000000090565b50604080517f00000000000000000000000000000000000000000000000000000000000000006020808301919091527f0000000000000000000000000000000000000000000000000000000000000000828401527f000000000000000000000000000000000000000000000000000000000000000060608301524660808301523060a0808401919091528351808403909101815260c0909201909252805191012090565b6000808251604114156140835760208301516040840151606085015160001a61407787828585614542565b945094505050506140b5565b8251604014156140ad57602083015160408401516140a2868383614625565b9350935050506140b5565b506000905060025b9250929050565b60008160048111156140d0576140d0615286565b14156140d95750565b60018160048111156140ed576140ed615286565b14156141365760405162461bcd60e51b815260206004820152601860248201527745434453413a20696e76616c6964207369676e617475726560401b60448201526064016106ce565b600281600481111561414a5761414a615286565b14156141985760405162461bcd60e51b815260206004820152601f60248201527f45434453413a20696e76616c6964207369676e6174757265206c656e6774680060448201526064016106ce565b60038160048111156141ac576141ac615286565b14156142055760405162461bcd60e51b815260206004820152602260248201527f45434453413a20696e76616c6964207369676e6174757265202773272076616c604482015261756560f01b60648201526084016106ce565b600481600481111561421957614219615286565b1415610b855760405162461bcd60e51b815260206004820152602260248201527f45434453413a20696e76616c6964207369676e6174757265202776272076616c604482015261756560f01b60648201526084016106ce565b3060009081526001602052604090205461428d908290614ee1565b306000908152600160205260409020556003546142ab908290614ee1565b600355604051818152309060009060008051602061540c833981519152906020015b60405180910390a350565b6131c5308383612ffa565b60008082136142f457506000919050565b5090565b60006109ef8284613487565b60008061431c614313856142e3565b6113ee886142e3565b90508260ff168560ff16141561433357905061347f565b8260ff168560ff1611156143755761436d81670de0b6b3a7640000614358868961529c565b61436390600a6153a3565b6132f79190614e2a565b91505061347f565b61436d81670de0b6b3a764000061438c888761529c565b61439790600a6153a3565b6113ee9190614e2a565b6131c5823083612ffa565b306000908152600160205260409020546143c7908290614ddd565b306000908152600160205260409020556003546143e5908290614ddd565b600355604051818152600090309060008051602061540c833981519152906020016142cd565b610f8d8363a9059cbb60e01b848460405160240161442a92919061526d565b60408051601f198184030181529190526020810180516001600160e01b03166001600160e01b03199093169290921790915261465e565b6040516001600160a01b0380851660248301528316604482015260648101829052611b119085906323b872dd60e01b9060840161442a565b600080826001600160a01b031663feaf968c6040518163ffffffff1660e01b815260040160a060405180830381865afa1580156144da573d6000803e3d6000fd5b505050506040513d601f19601f820116820180604052508101906144fe919061510e565b505050915050600081136145395760405162461bcd60e51b8152602060048201526002602482015261189b60f11b60448201526064016106ce565b6109ef816142e3565b6000806fa2a8918ca85bafe22016d0b997e4df60600160ff1b0383111561456f575060009050600361461c565b8460ff16601b1415801561458757508460ff16601c14155b15614598575060009050600461461c565b6040805160008082526020820180845289905260ff881692820192909252606081018690526080810185905260019060a0016020604051602081039080840390855afa1580156145ec573d6000803e3d6000fd5b5050604051601f1901519150506001600160a01b0381166146155760006001925092505061461c565b9150600090505b94509492505050565b6000806001600160ff1b0383168161464260ff86901c601b614ee1565b905061465087828885614542565b935093505050935093915050565b60006146b3826040518060400160405280602081526020017f5361666545524332303a206c6f772d6c6576656c2063616c6c206661696c6564815250856001600160a01b03166147309092919063ffffffff16565b805190915015610f8d57808060200190518101906146d191906153b2565b610f8d5760405162461bcd60e51b815260206004820152602a60248201527f5361666545524332303a204552433230206f7065726174696f6e20646964206e6044820152691bdd081cdd58d8d9595960b21b60648201526084016106ce565b606061347f8484600085856001600160a01b0385163b6147925760405162461bcd60e51b815260206004820152601d60248201527f416464726573733a2063616c6c20746f206e6f6e2d636f6e747261637400000060448201526064016106ce565b600080866001600160a01b031685876040516147ae91906153cf565b60006040518083038185875af1925050503d80600081146147eb576040519150601f19603f3d011682016040523d82523d6000602084013e6147f0565b606091505b509150915061480082828661480b565b979650505050505050565b6060831561481a5750816109ef565b82511561482a5782518084602001fd5b8160405162461bcd60e51b81526004016106ce91906149ef565b604051806040016040528060008152602001600081525090565b604080516080810182526000918101828152606082019290925290819081526040805160808101825260008082526020828101829052928201819052606082015291015290565b60008083601f8401126148b757600080fd5b5081356001600160401b038111156148ce57600080fd5b6020830191508360208260051b85010111156140b557600080fd5b80356001600160a01b038116811461490057600080fd5b919050565b600080600080600080600060a0888a03121561492057600080fd5b87356001600160401b038082111561493757600080fd5b818a0191508a601f83011261494b57600080fd5b81358181111561495a57600080fd5b8b602082850101111561496c57600080fd5b60209283019950975090890135908082111561498757600080fd5b506149948a828b016148a5565b90965094506149a79050604089016148e9565b9250606088013591506080880135905092959891949750929550565b60005b838110156149de5781810151838201526020016149c6565b83811115611b115750506000910152565b6020815260008251806020840152614a0e8160408501602087016149c3565b601f01601f19169190910160400192915050565b60008060408385031215614a3557600080fd5b614a3e836148e9565b946020939093013593505050565b60008060408385031215614a5f57600080fd5b614a68836148e9565b9150614a76602084016148e9565b90509250929050565b600080600060608486031215614a9457600080fd5b614a9d846148e9565b9250614aab602085016148e9565b9150604084013590509250925092565b600060208284031215614acd57600080fd5b6109ef826148e9565b6001600160a01b0391909116815260200190565b600060208284031215614afc57600080fd5b5035919050565b600060208284031215614b1557600080fd5b81356001600160401b03811681146109ef57600080fd5b60ff81168114610b8557600080fd5b600060208284031215614b4d57600080fd5b81356109ef81614b2c565b8015158114610b8557600080fd5b600060208284031215614b7857600080fd5b81356109ef81614b58565b600080600060408486031215614b9857600080fd5b8335925060208401356001600160401b03811115614bb557600080fd5b614bc1868287016148a5565b9497909650939450505050565b600080600080600060a08688031215614be657600080fd5b614bef866148e9565b945060208601359350614c04604087016148e9565b94979396509394606081013594506080013592915050565b80518252602090810151910152565b60608101614c398285614c1c565b8260408301529392505050565b600080600060608486031215614c5b57600080fd5b614c64846148e9565b95602085013595506040909401359392505050565b6001600160501b0381168114610b8557600080fd5b60008060008060808587031215614ca457600080fd5b614cad856148e9565b9350602085013592506040850135614cc481614c79565b9150614cd2606086016148e9565b905092959194509250565b6020808252825182820181905260009190848201906040850190845b81811015614d1e5783516001600160a01b031683529284019291840191600101614cf9565b50909695505050505050565b8781526001600160a01b03871660208201526040810186905260c060608201819052810184905260006001600160fb1b03851115614d6757600080fd5b8460051b808760e0850137600090830160e00190815260808301949094525060a0015295945050505050565b6020808252600190820152601960f91b604082015260600190565b600060208284031215614dc057600080fd5b5051919050565b634e487b7160e01b600052601160045260246000fd5b600082821015614def57614def614dc7565b500390565b6020808252600190820152600d60fa1b604082015260600190565b6020808252600190820152603360f81b604082015260600190565b6000816000190483118215151615614e4457614e44614dc7565b500290565b600082614e6657634e487b7160e01b600052601260045260246000fd5b500490565b602080825260029082015261031360f41b604082015260600190565b948552602085019390935260408401919091526060830152608082015260a00190565b602080825260029082015261313160f01b604082015260600190565b6020808252600190820152600760fb1b604082015260600190565b60008219821115614ef457614ef4614dc7565b500190565b6020808252600190820152603560f81b604082015260600190565b6020808252600290820152610d0d60f21b604082015260600190565b6020808252600190820152603160f81b604082015260600190565b614f56828251614c1c565b60209081015180516001600160a01b0316604084810191909152918101516001600160501b0316606080850191909152918101516080840152015160a090910152565b8051825260208082015190830152604090810151910152565b805160ff16825260208082015190830152604090810151910152565b60006102008083018984526020614fe78186018b614f4b565b60e08501929092528751908190526102208401918089019160005b8181101561502857615015858551614f4b565b60c0949094019392820192600101615002565b505050508091505061503e610100830186614f99565b61504c610160830185614c1c565b6148006101a0830184614fb2565b9283526020830191909152604082015260600190565b6020808252600190820152603960f81b604082015260600190565b634e487b7160e01b600052603260045260246000fd5b60006001600160501b03838116908316818110156150c1576150c1614dc7565b039392505050565b634e487b7160e01b600052603160045260246000fd5b60208152816020820152818360408301376000818301604090810191909152601f909201601f19160101919050565b600080600080600060a0868803121561512657600080fd5b855161513181614c79565b80955050602086015193506040860151925060608601519150608086015161515881614c79565b809150509295509295909350565b6102a081016151758289614f4b565b61518260c0830188614f4b565b856101808301526151976101a0830186614f99565b6151a5610200830185614c1c565b614800610240830184614fb2565b634e487b7160e01b600052604160045260246000fd5b6000604082840312156151db57600080fd5b604080519081016001600160401b038111828210171561520b57634e487b7160e01b600052604160045260246000fd5b604052825181526020928301519281019290925250919050565b60006020828403121561523757600080fd5b81516109ef81614b2c565b60006001600160501b0382811684821680830382111561526457615264614dc7565b01949350505050565b6001600160a01b03929092168252602082015260400190565b634e487b7160e01b600052602160045260246000fd5b600060ff821660ff8416808210156152b6576152b6614dc7565b90039392505050565b600181815b808511156152fa5781600019048211156152e0576152e0614dc7565b808516156152ed57918102915b93841c93908002906152c4565b509250929050565b600082615311575060016108b9565b8161531e575060006108b9565b8160018114615334576002811461533e5761535a565b60019150506108b9565b60ff84111561534f5761534f614dc7565b50506001821b6108b9565b5060208310610133831016604e8410600b841016171561537d575081810a6108b9565b61538783836152bf565b806000190482111561539b5761539b614dc7565b029392505050565b60006109ef60ff841683615302565b6000602082840312156153c457600080fd5b81516109ef81614b58565b600082516153e18184602087016149c3565b919091019291505056fe63982df10efd8dfaaaa0fcc7f50b2d93b7cba26ccc48adee2873220d485dc39addf252ad1be2c89b69c2b068fc378daa952ba7f163c4a11628f55a4df523b3efe74c91552b64c2e2e7bd255639e004e693bd3e1d01cc33e65610b86afcc1ffed8c5be1e5ebec7d5bd14f71427d1e84f3dd0314c0f7b2291e5b200ac8c7c3b92550ef2fc267012b5c84b56835f16ffd5331ac5a151a3760d74908721ba78b0efea26469706673582212200ced969ac59bca091e73dd963ebc8ca6889536608e932cf89cee7ddf61d1757464736f6c634300080c0033a2646970667358221220f80464a0e22098d2ecf4dc341efc51e4c3f4babe0ffcda81576444332b45d3a064736f6c634300080c0033",
			"opcodes": "PUSH1 0xA0 PUSH1 0x40 MSTORE CALLVALUE DUP1 ISZERO PUSH2 0x10 JUMPI PUSH1 0x0 DUP1 REVERT JUMPDEST POP PUSH1 0x1 DUP1 SLOAD PUSH1 0x1 PUSH1 0x1 PUSH1 0xA0 SHL SUB NOT AND CALLER OR SWAP1 SSTORE PUSH2 0x30 PUSH3 0x4F1A00 TIMESTAMP PUSH2 0x41 JUMP JUMPDEST PUSH1 0x1 PUSH1 0x1 PUSH1 0x40 SHL SUB AND PUSH1 0x80 MSTORE PUSH2 0x7A JUMP JUMPDEST PUSH1 0x0 PUSH1 0x1 PUSH1 0x1 PUSH1 0x40 SHL SUB DUP3 DUP2 AND DUP5 DUP3 AND DUP1 DUP4 SUB DUP3 GT ISZERO PUSH2 0x71 JUMPI PUSH4 0x4E487B71 PUSH1 0xE0 SHL PUSH1 0x0 MSTORE PUSH1 0x11 PUSH1 0x4 MSTORE PUSH1 0x24 PUSH1 0x0 REVERT JUMPDEST ADD SWAP5 SWAP4 POP POP POP POP JUMP JUMPDEST PUSH1 0x80 MLOAD PUSH2 0x5FE3 PUSH2 0x95 PUSH1 0x0 CODECOPY PUSH1 0x0 PUSH2 0x3C2 ADD MSTORE PUSH2 0x5FE3 PUSH1 0x0 RETURN INVALID PUSH1 0x80 PUSH1 0x40 MSTORE CALLVALUE DUP1 ISZERO PUSH2 0x10 JUMPI PUSH1 0x0 DUP1 REVERT JUMPDEST POP PUSH1 0x4 CALLDATASIZE LT PUSH2 0x6D JUMPI PUSH1 0x0 CALLDATALOAD PUSH1 0xE0 SHR DUP1 PUSH4 0x6EC16F8 EQ PUSH2 0x72 JUMPI DUP1 PUSH4 0xF11779B EQ PUSH2 0x87 JUMPI DUP1 PUSH4 0x126BAC63 EQ PUSH2 0xA5 JUMPI DUP1 PUSH4 0x5B16EBB7 EQ PUSH2 0xB8 JUMPI DUP1 PUSH4 0x5C2DC4F0 EQ PUSH2 0xF4 JUMPI DUP1 PUSH4 0xAF1224F0 EQ PUSH2 0xFC JUMPI DUP1 PUSH4 0xBEDB86FB EQ PUSH2 0x10D JUMPI JUMPDEST PUSH1 0x0 DUP1 REVERT JUMPDEST PUSH2 0x85 PUSH2 0x80 CALLDATASIZE PUSH1 0x4 PUSH2 0x6F5 JUMP JUMPDEST PUSH2 0x120 JUMP JUMPDEST STOP JUMPDEST PUSH2 0x8F PUSH2 0x1DD JUMP JUMPDEST PUSH1 0x40 MLOAD PUSH2 0x9C SWAP2 SWAP1 PUSH2 0x71E JUMP JUMPDEST PUSH1 0x40 MLOAD DUP1 SWAP2 SUB SWAP1 RETURN JUMPDEST PUSH2 0x85 PUSH2 0xB3 CALLDATASIZE PUSH1 0x4 PUSH2 0x6F5 JUMP JUMPDEST PUSH2 0x2E8 JUMP JUMPDEST PUSH2 0xE4 PUSH2 0xC6 CALLDATASIZE PUSH1 0x4 PUSH2 0x6F5 JUMP JUMPDEST PUSH1 0x1 PUSH1 0x1 PUSH1 0xA0 SHL SUB AND PUSH1 0x0 SWAP1 DUP2 MSTORE PUSH1 0x20 DUP2 SWAP1 MSTORE PUSH1 0x40 SWAP1 KECCAK256 SLOAD PUSH1 0xFF AND SWAP1 JUMP JUMPDEST PUSH1 0x40 MLOAD SWAP1 ISZERO ISZERO DUP2 MSTORE PUSH1 0x20 ADD PUSH2 0x9C JUMP JUMPDEST PUSH2 0x85 PUSH2 0x36A JUMP JUMPDEST PUSH1 0x1 SLOAD PUSH1 0x1 PUSH1 0x1 PUSH1 0xA0 SHL SUB AND PUSH2 0x8F JUMP JUMPDEST PUSH2 0x85 PUSH2 0x11B CALLDATASIZE PUSH1 0x4 PUSH2 0x743 JUMP JUMPDEST PUSH2 0x396 JUMP JUMPDEST PUSH1 0x1 SLOAD PUSH1 0x1 PUSH1 0x1 PUSH1 0xA0 SHL SUB AND CALLER EQ PUSH2 0x153 JUMPI PUSH1 0x40 MLOAD PUSH3 0x461BCD PUSH1 0xE5 SHL DUP2 MSTORE PUSH1 0x4 ADD PUSH2 0x14A SWAP1 PUSH2 0x760 JUMP JUMPDEST PUSH1 0x40 MLOAD DUP1 SWAP2 SUB SWAP1 REVERT JUMPDEST PUSH1 0x40 MLOAD PUSH4 0x70A08231 PUSH1 0xE0 SHL DUP2 MSTORE PUSH1 0x0 SWAP1 PUSH1 0x1 PUSH1 0x1 PUSH1 0xA0 SHL SUB DUP4 AND SWAP1 PUSH4 0x70A08231 SWAP1 PUSH2 0x182 SWAP1 ADDRESS SWAP1 PUSH1 0x4 ADD PUSH2 0x71E JUMP JUMPDEST PUSH1 0x20 PUSH1 0x40 MLOAD DUP1 DUP4 SUB DUP2 DUP7 GAS STATICCALL ISZERO DUP1 ISZERO PUSH2 0x19F JUMPI RETURNDATASIZE PUSH1 0x0 DUP1 RETURNDATACOPY RETURNDATASIZE PUSH1 0x0 REVERT JUMPDEST POP POP POP POP PUSH1 0x40 MLOAD RETURNDATASIZE PUSH1 0x1F NOT PUSH1 0x1F DUP3 ADD AND DUP3 ADD DUP1 PUSH1 0x40 MSTORE POP DUP2 ADD SWAP1 PUSH2 0x1C3 SWAP2 SWAP1 PUSH2 0x77C JUMP JUMPDEST SWAP1 POP PUSH2 0x1D9 PUSH1 0x1 PUSH1 0x1 PUSH1 0xA0 SHL SUB DUP4 AND CALLER DUP4 PUSH2 0x43B JUMP JUMPDEST POP POP JUMP JUMPDEST PUSH1 0x1 SLOAD PUSH1 0x0 SWAP1 PUSH1 0x1 PUSH1 0xA0 SHL SWAP1 DIV PUSH1 0xFF AND ISZERO PUSH2 0x20A JUMPI PUSH1 0x40 MLOAD PUSH3 0x461BCD PUSH1 0xE5 SHL DUP2 MSTORE PUSH1 0x4 ADD PUSH2 0x14A SWAP1 PUSH2 0x795 JUMP JUMPDEST PUSH1 0x0 PUSH1 0x40 MLOAD PUSH2 0x218 SWAP1 PUSH2 0x6E7 JUMP JUMPDEST PUSH1 0x40 MLOAD DUP1 SWAP2 SUB SWAP1 PUSH1 0x0 CREATE DUP1 ISZERO DUP1 ISZERO PUSH2 0x234 JUMPI RETURNDATASIZE PUSH1 0x0 DUP1 RETURNDATACOPY RETURNDATASIZE PUSH1 0x0 REVERT JUMPDEST POP PUSH1 0x1 PUSH1 0x1 PUSH1 0xA0 SHL SUB DUP2 AND PUSH1 0x0 DUP2 DUP2 MSTORE PUSH1 0x20 DUP2 SWAP1 MSTORE PUSH1 0x40 DUP1 DUP3 KECCAK256 DUP1 SLOAD PUSH1 0xFF NOT AND PUSH1 0x1 OR SWAP1 SSTORE MLOAD SWAP3 SWAP4 POP SWAP1 SWAP2 CALLER SWAP2 PUSH32 0x8CCEC77B0CB63AC2CAFD0F5DE8CDFADAB91CE656D262240BA8A6343BCCC5F945 SWAP2 LOG3 PUSH1 0x40 MLOAD PUSH4 0x92EEFE9B PUSH1 0xE0 SHL DUP2 MSTORE PUSH1 0x1 PUSH1 0x1 PUSH1 0xA0 SHL SUB DUP3 AND SWAP1 PUSH4 0x92EEFE9B SWAP1 PUSH2 0x2B0 SWAP1 CALLER SWAP1 PUSH1 0x4 ADD PUSH2 0x71E JUMP JUMPDEST PUSH1 0x0 PUSH1 0x40 MLOAD DUP1 DUP4 SUB DUP2 PUSH1 0x0 DUP8 DUP1 EXTCODESIZE ISZERO DUP1 ISZERO PUSH2 0x2CA JUMPI PUSH1 0x0 DUP1 REVERT JUMPDEST POP GAS CALL ISZERO DUP1 ISZERO PUSH2 0x2DE JUMPI RETURNDATASIZE PUSH1 0x0 DUP1 RETURNDATACOPY RETURNDATASIZE PUSH1 0x0 REVERT JUMPDEST POP SWAP3 SWAP5 SWAP4 POP POP POP POP JUMP JUMPDEST PUSH1 0x1 SLOAD PUSH1 0x1 PUSH1 0x1 PUSH1 0xA0 SHL SUB AND CALLER EQ PUSH2 0x312 JUMPI PUSH1 0x40 MLOAD PUSH3 0x461BCD PUSH1 0xE5 SHL DUP2 MSTORE PUSH1 0x4 ADD PUSH2 0x14A SWAP1 PUSH2 0x760 JUMP JUMPDEST PUSH1 0x40 MLOAD PUSH1 0x1 PUSH1 0x1 PUSH1 0xA0 SHL SUB DUP3 AND SWAP1 CALLER SWAP1 PUSH32 0xD5FC541246D6EF850235EBA8314229129138AAC441E26EDF4D044E01CF2D4650 SWAP1 PUSH1 0x0 SWAP1 LOG3 PUSH1 0x1 DUP1 SLOAD PUSH1 0x1 PUSH1 0x1 PUSH1 0xA0 SHL SUB NOT AND PUSH1 0x1 PUSH1 0x1 PUSH1 0xA0 SHL SUB SWAP3 SWAP1 SWAP3 AND SWAP2 SWAP1 SWAP2 OR SWAP1 SSTORE JUMP JUMPDEST PUSH1 0x1 SLOAD PUSH1 0x1 PUSH1 0xA0 SHL SWAP1 DIV PUSH1 0xFF AND ISZERO PUSH2 0x394 JUMPI PUSH1 0x40 MLOAD PUSH3 0x461BCD PUSH1 0xE5 SHL DUP2 MSTORE PUSH1 0x4 ADD PUSH2 0x14A SWAP1 PUSH2 0x795 JUMP JUMPDEST JUMP JUMPDEST PUSH1 0x1 SLOAD PUSH1 0x1 PUSH1 0x1 PUSH1 0xA0 SHL SUB AND CALLER EQ PUSH2 0x3C0 JUMPI PUSH1 0x40 MLOAD PUSH3 0x461BCD PUSH1 0xE5 SHL DUP2 MSTORE PUSH1 0x4 ADD PUSH2 0x14A SWAP1 PUSH2 0x760 JUMP JUMPDEST PUSH32 0x0 PUSH1 0x1 PUSH1 0x1 PUSH1 0x40 SHL SUB AND TIMESTAMP LT PUSH2 0x41D JUMPI PUSH1 0x40 MLOAD PUSH3 0x461BCD PUSH1 0xE5 SHL DUP2 MSTORE PUSH1 0x20 PUSH1 0x4 DUP3 ADD MSTORE PUSH1 0x2 PUSH1 0x24 DUP3 ADD MSTORE PUSH2 0x3435 PUSH1 0xF0 SHL PUSH1 0x44 DUP3 ADD MSTORE PUSH1 0x64 ADD PUSH2 0x14A JUMP JUMPDEST PUSH1 0x1 DUP1 SLOAD SWAP2 ISZERO ISZERO PUSH1 0x1 PUSH1 0xA0 SHL MUL PUSH1 0xFF PUSH1 0xA0 SHL NOT SWAP1 SWAP3 AND SWAP2 SWAP1 SWAP2 OR SWAP1 SSTORE JUMP JUMPDEST PUSH1 0x40 DUP1 MLOAD PUSH1 0x1 PUSH1 0x1 PUSH1 0xA0 SHL SUB DUP5 AND PUSH1 0x24 DUP3 ADD MSTORE PUSH1 0x44 DUP1 DUP3 ADD DUP5 SWAP1 MSTORE DUP3 MLOAD DUP1 DUP4 SUB SWAP1 SWAP2 ADD DUP2 MSTORE PUSH1 0x64 SWAP1 SWAP2 ADD SWAP1 SWAP2 MSTORE PUSH1 0x20 DUP2 ADD DUP1 MLOAD PUSH1 0x1 PUSH1 0x1 PUSH1 0xE0 SHL SUB AND PUSH4 0xA9059CBB PUSH1 0xE0 SHL OR SWAP1 MSTORE PUSH2 0x48D SWAP1 DUP5 SWAP1 PUSH2 0x492 JUMP JUMPDEST POP POP POP JUMP JUMPDEST PUSH1 0x0 PUSH2 0x4E7 DUP3 PUSH1 0x40 MLOAD DUP1 PUSH1 0x40 ADD PUSH1 0x40 MSTORE DUP1 PUSH1 0x20 DUP2 MSTORE PUSH1 0x20 ADD PUSH32 0x5361666545524332303A206C6F772D6C6576656C2063616C6C206661696C6564 DUP2 MSTORE POP DUP6 PUSH1 0x1 PUSH1 0x1 PUSH1 0xA0 SHL SUB AND PUSH2 0x564 SWAP1 SWAP3 SWAP2 SWAP1 PUSH4 0xFFFFFFFF AND JUMP JUMPDEST DUP1 MLOAD SWAP1 SWAP2 POP ISZERO PUSH2 0x48D JUMPI DUP1 DUP1 PUSH1 0x20 ADD SWAP1 MLOAD DUP2 ADD SWAP1 PUSH2 0x505 SWAP2 SWAP1 PUSH2 0x7B1 JUMP JUMPDEST PUSH2 0x48D JUMPI PUSH1 0x40 MLOAD PUSH3 0x461BCD PUSH1 0xE5 SHL DUP2 MSTORE PUSH1 0x20 PUSH1 0x4 DUP3 ADD MSTORE PUSH1 0x2A PUSH1 0x24 DUP3 ADD MSTORE PUSH32 0x5361666545524332303A204552433230206F7065726174696F6E20646964206E PUSH1 0x44 DUP3 ADD MSTORE PUSH10 0x1BDD081CDD58D8D95959 PUSH1 0xB2 SHL PUSH1 0x64 DUP3 ADD MSTORE PUSH1 0x84 ADD PUSH2 0x14A JUMP JUMPDEST PUSH1 0x60 PUSH2 0x573 DUP5 DUP5 PUSH1 0x0 DUP6 PUSH2 0x57D JUMP JUMPDEST SWAP1 POP JUMPDEST SWAP4 SWAP3 POP POP POP JUMP JUMPDEST PUSH1 0x60 DUP3 SELFBALANCE LT ISZERO PUSH2 0x5DE JUMPI PUSH1 0x40 MLOAD PUSH3 0x461BCD PUSH1 0xE5 SHL DUP2 MSTORE PUSH1 0x20 PUSH1 0x4 DUP3 ADD MSTORE PUSH1 0x26 PUSH1 0x24 DUP3 ADD MSTORE PUSH32 0x416464726573733A20696E73756666696369656E742062616C616E636520666F PUSH1 0x44 DUP3 ADD MSTORE PUSH6 0x1C8818D85B1B PUSH1 0xD2 SHL PUSH1 0x64 DUP3 ADD MSTORE PUSH1 0x84 ADD PUSH2 0x14A JUMP JUMPDEST PUSH1 0x1 PUSH1 0x1 PUSH1 0xA0 SHL SUB DUP6 AND EXTCODESIZE PUSH2 0x635 JUMPI PUSH1 0x40 MLOAD PUSH3 0x461BCD PUSH1 0xE5 SHL DUP2 MSTORE PUSH1 0x20 PUSH1 0x4 DUP3 ADD MSTORE PUSH1 0x1D PUSH1 0x24 DUP3 ADD MSTORE PUSH32 0x416464726573733A2063616C6C20746F206E6F6E2D636F6E7472616374000000 PUSH1 0x44 DUP3 ADD MSTORE PUSH1 0x64 ADD PUSH2 0x14A JUMP JUMPDEST PUSH1 0x0 DUP1 DUP7 PUSH1 0x1 PUSH1 0x1 PUSH1 0xA0 SHL SUB AND DUP6 DUP8 PUSH1 0x40 MLOAD PUSH2 0x651 SWAP2 SWAP1 PUSH2 0x7FE JUMP JUMPDEST PUSH1 0x0 PUSH1 0x40 MLOAD DUP1 DUP4 SUB DUP2 DUP6 DUP8 GAS CALL SWAP3 POP POP POP RETURNDATASIZE DUP1 PUSH1 0x0 DUP2 EQ PUSH2 0x68E JUMPI PUSH1 0x40 MLOAD SWAP2 POP PUSH1 0x1F NOT PUSH1 0x3F RETURNDATASIZE ADD AND DUP3 ADD PUSH1 0x40 MSTORE RETURNDATASIZE DUP3 MSTORE RETURNDATASIZE PUSH1 0x0 PUSH1 0x20 DUP5 ADD RETURNDATACOPY PUSH2 0x693 JUMP JUMPDEST PUSH1 0x60 SWAP2 POP JUMPDEST POP SWAP2 POP SWAP2 POP PUSH2 0x6A3 DUP3 DUP3 DUP7 PUSH2 0x6AE JUMP JUMPDEST SWAP8 SWAP7 POP POP POP POP POP POP POP JUMP JUMPDEST PUSH1 0x60 DUP4 ISZERO PUSH2 0x6BD JUMPI POP DUP2 PUSH2 0x576 JUMP JUMPDEST DUP3 MLOAD ISZERO PUSH2 0x6CD JUMPI DUP3 MLOAD DUP1 DUP5 PUSH1 0x20 ADD REVERT JUMPDEST DUP2 PUSH1 0x40 MLOAD PUSH3 0x461BCD PUSH1 0xE5 SHL DUP2 MSTORE PUSH1 0x4 ADD PUSH2 0x14A SWAP2 SWAP1 PUSH2 0x81A JUMP JUMPDEST PUSH2 0x5760 DUP1 PUSH3 0x84E DUP4 CODECOPY ADD SWAP1 JUMP JUMPDEST PUSH1 0x0 PUSH1 0x20 DUP3 DUP5 SUB SLT ISZERO PUSH2 0x707 JUMPI PUSH1 0x0 DUP1 REVERT JUMPDEST DUP2 CALLDATALOAD PUSH1 0x1 PUSH1 0x1 PUSH1 0xA0 SHL SUB DUP2 AND DUP2 EQ PUSH2 0x576 JUMPI PUSH1 0x0 DUP1 REVERT JUMPDEST PUSH1 0x1 PUSH1 0x1 PUSH1 0xA0 SHL SUB SWAP2 SWAP1 SWAP2 AND DUP2 MSTORE PUSH1 0x20 ADD SWAP1 JUMP JUMPDEST DUP1 ISZERO ISZERO DUP2 EQ PUSH2 0x740 JUMPI PUSH1 0x0 DUP1 REVERT JUMPDEST POP JUMP JUMPDEST PUSH1 0x0 PUSH1 0x20 DUP3 DUP5 SUB SLT ISZERO PUSH2 0x755 JUMPI PUSH1 0x0 DUP1 REVERT JUMPDEST DUP2 CALLDATALOAD PUSH2 0x576 DUP2 PUSH2 0x732 JUMP JUMPDEST PUSH1 0x20 DUP1 DUP3 MSTORE PUSH1 0x2 SWAP1 DUP3 ADD MSTORE PUSH2 0xCCD PUSH1 0xF2 SHL PUSH1 0x40 DUP3 ADD MSTORE PUSH1 0x60 ADD SWAP1 JUMP JUMPDEST PUSH1 0x0 PUSH1 0x20 DUP3 DUP5 SUB SLT ISZERO PUSH2 0x78E JUMPI PUSH1 0x0 DUP1 REVERT JUMPDEST POP MLOAD SWAP2 SWAP1 POP JUMP JUMPDEST PUSH1 0x20 DUP1 DUP3 MSTORE PUSH1 0x2 SWAP1 DUP3 ADD MSTORE PUSH2 0x199B PUSH1 0xF1 SHL PUSH1 0x40 DUP3 ADD MSTORE PUSH1 0x60 ADD SWAP1 JUMP JUMPDEST PUSH1 0x0 PUSH1 0x20 DUP3 DUP5 SUB SLT ISZERO PUSH2 0x7C3 JUMPI PUSH1 0x0 DUP1 REVERT JUMPDEST DUP2 MLOAD PUSH2 0x576 DUP2 PUSH2 0x732 JUMP JUMPDEST PUSH1 0x0 JUMPDEST DUP4 DUP2 LT ISZERO PUSH2 0x7E9 JUMPI DUP2 DUP2 ADD MLOAD DUP4 DUP3 ADD MSTORE PUSH1 0x20 ADD PUSH2 0x7D1 JUMP JUMPDEST DUP4 DUP2 GT ISZERO PUSH2 0x7F8 JUMPI PUSH1 0x0 DUP5 DUP5 ADD MSTORE JUMPDEST POP POP POP POP JUMP JUMPDEST PUSH1 0x0 DUP3 MLOAD PUSH2 0x810 DUP2 DUP5 PUSH1 0x20 DUP8 ADD PUSH2 0x7CE JUMP JUMPDEST SWAP2 SWAP1 SWAP2 ADD SWAP3 SWAP2 POP POP JUMP JUMPDEST PUSH1 0x20 DUP2 MSTORE PUSH1 0x0 DUP3 MLOAD DUP1 PUSH1 0x20 DUP5 ADD MSTORE PUSH2 0x839 DUP2 PUSH1 0x40 DUP6 ADD PUSH1 0x20 DUP8 ADD PUSH2 0x7CE JUMP JUMPDEST PUSH1 0x1F ADD PUSH1 0x1F NOT AND SWAP2 SWAP1 SWAP2 ADD PUSH1 0x40 ADD SWAP3 SWAP2 POP POP JUMP INVALID PUSH2 0x160 PUSH1 0x40 MSTORE CALLVALUE DUP1 ISZERO PUSH3 0x12 JUMPI PUSH1 0x0 DUP1 REVERT JUMPDEST POP PUSH1 0x40 DUP1 MLOAD DUP1 DUP3 ADD DUP3 MSTORE PUSH1 0x10 DUP2 MSTORE PUSH16 0x29BBB0B0B8102837B7B6102A37B5B2B7 PUSH1 0x81 SHL PUSH1 0x20 DUP1 DUP4 ADD SWAP2 DUP3 MSTORE DUP4 MLOAD DUP1 DUP6 ADD SWAP1 SWAP5 MSTORE PUSH1 0x5 DUP5 MSTORE PUSH5 0x312E302E3 PUSH1 0xDC SHL SWAP1 DUP5 ADD MSTORE DUP2 MLOAD SWAP1 KECCAK256 PUSH1 0xE0 DUP2 SWAP1 MSTORE PUSH32 0x6C015BD22B4C69690933C1058878EBDFEF31F9AAAE40BBE86D8A09FE1B2972C PUSH2 0x100 DUP2 SWAP1 MSTORE CHAINID PUSH1 0xA0 MSTORE SWAP2 SWAP3 SWAP2 PUSH32 0x8B73C3C69BB8FE3D512ECC4CF759CC79239F7B179B0FFACAA9A75D522B39400F PUSH3 0xFD DUP2 DUP5 DUP5 PUSH1 0x40 DUP1 MLOAD PUSH1 0x20 DUP2 ADD DUP6 SWAP1 MSTORE SWAP1 DUP2 ADD DUP4 SWAP1 MSTORE PUSH1 0x60 DUP2 ADD DUP3 SWAP1 MSTORE CHAINID PUSH1 0x80 DUP3 ADD MSTORE ADDRESS PUSH1 0xA0 DUP3 ADD MSTORE PUSH1 0x0 SWAP1 PUSH1 0xC0 ADD PUSH1 0x40 MLOAD PUSH1 0x20 DUP2 DUP4 SUB SUB DUP2 MSTORE SWAP1 PUSH1 0x40 MSTORE DUP1 MLOAD SWAP1 PUSH1 0x20 ADD KECCAK256 SWAP1 POP SWAP4 SWAP3 POP POP POP JUMP JUMPDEST PUSH1 0x80 MSTORE ADDRESS PUSH1 0xC0 MSTORE PUSH2 0x120 MSTORE POP POP PUSH1 0x6 DUP1 SLOAD PUSH1 0x1 PUSH1 0x1 PUSH1 0x60 SHL SUB AND CALLER PUSH13 0x1000000000000000000000000 DUP2 MUL SWAP2 SWAP1 SWAP2 OR SWAP1 SWAP2 SSTORE PUSH2 0x140 MSTORE POP PUSH3 0x14D SWAP1 POP PUSH3 0xF4240 PUSH8 0xDE0B6B3A7640000 PUSH3 0x1D0 JUMP JUMPDEST PUSH1 0x8 SSTORE PUSH1 0x7 DUP1 SLOAD PUSH2 0xFF00 NOT AND PUSH2 0x400 OR SWAP1 SSTORE PUSH2 0xE10 PUSH1 0xB SSTORE PUSH1 0xA PUSH3 0x17C PUSH8 0xDE0B6B3A7640000 PUSH1 0x6 PUSH3 0x1F3 JUMP JUMPDEST PUSH3 0x188 SWAP2 SWAP1 PUSH3 0x1D0 JUMP JUMPDEST PUSH1 0x7 DUP1 SLOAD PUSH1 0x1 PUSH1 0x1 PUSH1 0x40 SHL SUB SWAP3 SWAP1 SWAP3 AND PUSH3 0x10000 MUL PUSH3 0x10000 PUSH1 0x1 PUSH1 0x50 SHL SUB NOT SWAP1 SWAP3 AND SWAP2 SWAP1 SWAP2 OR SWAP1 SSTORE PUSH3 0x1C7 PUSH8 0xDE0B6B3A7640000 PUSH2 0x12C PUSH3 0x1F3 JUMP JUMPDEST PUSH1 0xA SSTORE PUSH3 0x221 JUMP JUMPDEST PUSH1 0x0 DUP3 PUSH3 0x1EE JUMPI PUSH4 0x4E487B71 PUSH1 0xE0 SHL PUSH1 0x0 MSTORE PUSH1 0x12 PUSH1 0x4 MSTORE PUSH1 0x24 PUSH1 0x0 REVERT JUMPDEST POP DIV SWAP1 JUMP JUMPDEST PUSH1 0x0 DUP2 PUSH1 0x0 NOT DIV DUP4 GT DUP3 ISZERO ISZERO AND ISZERO PUSH3 0x21C JUMPI PUSH4 0x4E487B71 PUSH1 0xE0 SHL PUSH1 0x0 MSTORE PUSH1 0x11 PUSH1 0x4 MSTORE PUSH1 0x24 PUSH1 0x0 REVERT JUMPDEST POP MUL SWAP1 JUMP JUMPDEST PUSH1 0x80 MLOAD PUSH1 0xA0 MLOAD PUSH1 0xC0 MLOAD PUSH1 0xE0 MLOAD PUSH2 0x100 MLOAD PUSH2 0x120 MLOAD PUSH2 0x140 MLOAD PUSH2 0x54C1 PUSH3 0x29F PUSH1 0x0 CODECOPY PUSH1 0x0 DUP2 DUP2 PUSH2 0x16A9 ADD MSTORE DUP2 DUP2 PUSH2 0x2069 ADD MSTORE DUP2 DUP2 PUSH2 0x223F ADD MSTORE DUP2 DUP2 PUSH2 0x2B22 ADD MSTORE DUP2 DUP2 PUSH2 0x35AF ADD MSTORE PUSH2 0x3D9E ADD MSTORE PUSH1 0x0 PUSH2 0x3FAF ADD MSTORE PUSH1 0x0 PUSH2 0x3FFE ADD MSTORE PUSH1 0x0 PUSH2 0x3FD9 ADD MSTORE PUSH1 0x0 PUSH2 0x3F32 ADD MSTORE PUSH1 0x0 PUSH2 0x3F5C ADD MSTORE PUSH1 0x0 PUSH2 0x3F86 ADD MSTORE PUSH2 0x54C1 PUSH1 0x0 RETURN INVALID PUSH1 0x80 PUSH1 0x40 MSTORE CALLVALUE DUP1 ISZERO PUSH2 0x10 JUMPI PUSH1 0x0 DUP1 REVERT JUMPDEST POP PUSH1 0x4 CALLDATASIZE LT PUSH2 0x225 JUMPI PUSH1 0x0 CALLDATALOAD PUSH1 0xE0 SHR DUP1 PUSH4 0x6CA1959 EQ PUSH2 0x22A JUMPI DUP1 PUSH4 0x6FDDE03 EQ PUSH2 0x23F JUMPI DUP1 PUSH4 0x95EA7B3 EQ PUSH2 0x27D JUMPI DUP1 PUSH4 0x1446A7FF EQ PUSH2 0x2A0 JUMPI DUP1 PUSH4 0x18160DDD EQ PUSH2 0x2C1 JUMPI DUP1 PUSH4 0x23B872DD EQ PUSH2 0x2C9 JUMPI DUP1 PUSH4 0x2D0335AB EQ PUSH2 0x2DC JUMPI DUP1 PUSH4 0x2F37B624 EQ PUSH2 0x305 JUMPI DUP1 PUSH4 0x3018205F EQ PUSH2 0x331 JUMPI DUP1 PUSH4 0x313CE567 EQ PUSH2 0x352 JUMPI DUP1 PUSH4 0x314D204F EQ PUSH2 0x361 JUMPI DUP1 PUSH4 0x34E19907 EQ PUSH2 0x374 JUMPI DUP1 PUSH4 0x3C515D99 EQ PUSH2 0x387 JUMPI DUP1 PUSH4 0x3CC33960 EQ PUSH2 0x39A JUMPI DUP1 PUSH4 0x49B59552 EQ PUSH2 0x3AD JUMPI DUP1 PUSH4 0x4BB278F3 EQ PUSH2 0x3C0 JUMPI DUP1 PUSH4 0x4F69C0D4 EQ PUSH2 0x3C8 JUMPI DUP1 PUSH4 0x538E285C EQ PUSH2 0x3DB JUMPI DUP1 PUSH4 0x66188463 EQ PUSH2 0x3EE JUMPI DUP1 PUSH4 0x6A9B7C88 EQ PUSH2 0x401 JUMPI DUP1 PUSH4 0x706860A3 EQ PUSH2 0x422 JUMPI DUP1 PUSH4 0x70A08231 EQ PUSH2 0x435 JUMPI DUP1 PUSH4 0x769E7F47 EQ PUSH2 0x45E JUMPI DUP1 PUSH4 0x812D8628 EQ PUSH2 0x471 JUMPI DUP1 PUSH4 0x86D46062 EQ PUSH2 0x4B7 JUMPI DUP1 PUSH4 0x895C253A EQ PUSH2 0x4CA JUMPI DUP1 PUSH4 0x8C28CBE8 EQ PUSH2 0x4F2 JUMPI DUP1 PUSH4 0x8D4E4083 EQ PUSH2 0x505 JUMPI DUP1 PUSH4 0x92EEFE9B EQ PUSH2 0x510 JUMPI DUP1 PUSH4 0x948D8CE6 EQ PUSH2 0x523 JUMPI DUP1 PUSH4 0x95D89B41 EQ PUSH2 0x536 JUMPI DUP1 PUSH4 0xA1F26854 EQ PUSH2 0x555 JUMPI DUP1 PUSH4 0xA9059CBB EQ PUSH2 0x568 JUMPI DUP1 PUSH4 0xAA6CA808 EQ PUSH2 0x57B JUMPI DUP1 PUSH4 0xAB323B49 EQ PUSH2 0x590 JUMPI DUP1 PUSH4 0xB02F0B73 EQ PUSH2 0x5A3 JUMPI DUP1 PUSH4 0xB849A206 EQ PUSH2 0x5B6 JUMPI DUP1 PUSH4 0xC09FA8B4 EQ PUSH2 0x5C9 JUMPI DUP1 PUSH4 0xC3435171 EQ PUSH2 0x5DC JUMPI DUP1 PUSH4 0xD04EE53F EQ PUSH2 0x5EF JUMPI DUP1 PUSH4 0xD0FFFBDB EQ PUSH2 0x602 JUMPI DUP1 PUSH4 0xD4CADF68 EQ PUSH2 0x615 JUMPI DUP1 PUSH4 0xD73DD623 EQ PUSH2 0x61D JUMPI DUP1 PUSH4 0xDD62ED3E EQ PUSH2 0x630 JUMPI DUP1 PUSH4 0xEA45766B EQ PUSH2 0x669 JUMPI DUP1 PUSH4 0xF8B2CB4F EQ PUSH2 0x67C JUMPI DUP1 PUSH4 0xFDE924F7 EQ PUSH2 0x68F JUMPI JUMPDEST PUSH1 0x0 DUP1 REVERT JUMPDEST PUSH2 0x23D PUSH2 0x238 CALLDATASIZE PUSH1 0x4 PUSH2 0x4905 JUMP JUMPDEST PUSH2 0x69F JUMP JUMPDEST STOP JUMPDEST PUSH1 0x40 DUP1 MLOAD DUP1 DUP3 ADD SWAP1 SWAP2 MSTORE PUSH1 0x10 DUP2 MSTORE PUSH16 0x29BBB0B0B8102837B7B6102A37B5B2B7 PUSH1 0x81 SHL PUSH1 0x20 DUP3 ADD MSTORE JUMPDEST PUSH1 0x40 MLOAD PUSH2 0x274 SWAP2 SWAP1 PUSH2 0x49EF JUMP JUMPDEST PUSH1 0x40 MLOAD DUP1 SWAP2 SUB SWAP1 RETURN JUMPDEST PUSH2 0x290 PUSH2 0x28B CALLDATASIZE PUSH1 0x4 PUSH2 0x4A22 JUMP JUMPDEST PUSH2 0x864 JUMP JUMPDEST PUSH1 0x40 MLOAD SWAP1 ISZERO ISZERO DUP2 MSTORE PUSH1 0x20 ADD PUSH2 0x274 JUMP JUMPDEST PUSH2 0x2B3 PUSH2 0x2AE CALLDATASIZE PUSH1 0x4 PUSH2 0x4A4C JUMP JUMPDEST PUSH2 0x8BF JUMP JUMPDEST PUSH1 0x40 MLOAD SWAP1 DUP2 MSTORE PUSH1 0x20 ADD PUSH2 0x274 JUMP JUMPDEST PUSH1 0x3 SLOAD PUSH2 0x2B3 JUMP JUMPDEST PUSH2 0x290 PUSH2 0x2D7 CALLDATASIZE PUSH1 0x4 PUSH2 0x4A7F JUMP JUMPDEST PUSH2 0x9F6 JUMP JUMPDEST PUSH2 0x2B3 PUSH2 0x2EA CALLDATASIZE PUSH1 0x4 PUSH2 0x4ABB JUMP JUMPDEST PUSH1 0x1 PUSH1 0x1 PUSH1 0xA0 SHL SUB AND PUSH1 0x0 SWAP1 DUP2 MSTORE PUSH1 0xC PUSH1 0x20 MSTORE PUSH1 0x40 SWAP1 KECCAK256 SLOAD SWAP1 JUMP JUMPDEST PUSH2 0x290 PUSH2 0x313 CALLDATASIZE PUSH1 0x4 PUSH2 0x4ABB JUMP JUMPDEST PUSH1 0x1 PUSH1 0x1 PUSH1 0xA0 SHL SUB AND PUSH1 0x0 SWAP1 DUP2 MSTORE PUSH1 0x5 PUSH1 0x20 MSTORE PUSH1 0x40 SWAP1 KECCAK256 SLOAD PUSH1 0xFF AND SWAP1 JUMP JUMPDEST PUSH1 0x6 SLOAD PUSH1 0x1 PUSH1 0x60 SHL SWAP1 DIV PUSH1 0x1 PUSH1 0x1 PUSH1 0xA0 SHL SUB AND JUMPDEST PUSH1 0x40 MLOAD PUSH2 0x274 SWAP2 SWAP1 PUSH2 0x4AD6 JUMP JUMPDEST PUSH1 0x40 MLOAD PUSH1 0x12 DUP2 MSTORE PUSH1 0x20 ADD PUSH2 0x274 JUMP JUMPDEST PUSH2 0x23D PUSH2 0x36F CALLDATASIZE PUSH1 0x4 PUSH2 0x4AEA JUMP JUMPDEST PUSH2 0xACD JUMP JUMPDEST PUSH2 0x23D PUSH2 0x382 CALLDATASIZE PUSH1 0x4 PUSH2 0x4AEA JUMP JUMPDEST PUSH2 0xB88 JUMP JUMPDEST PUSH2 0x23D PUSH2 0x395 CALLDATASIZE PUSH1 0x4 PUSH2 0x4B03 JUMP JUMPDEST PUSH2 0xC89 JUMP JUMPDEST PUSH2 0x23D PUSH2 0x3A8 CALLDATASIZE PUSH1 0x4 PUSH2 0x4B3B JUMP JUMPDEST PUSH2 0xD17 JUMP JUMPDEST PUSH2 0x23D PUSH2 0x3BB CALLDATASIZE PUSH1 0x4 PUSH2 0x4B66 JUMP JUMPDEST PUSH2 0xE09 JUMP JUMPDEST PUSH2 0x23D PUSH2 0xE88 JUMP JUMPDEST PUSH2 0x23D PUSH2 0x3D6 CALLDATASIZE PUSH1 0x4 PUSH2 0x4B83 JUMP JUMPDEST PUSH2 0xF81 JUMP JUMPDEST PUSH2 0x23D PUSH2 0x3E9 CALLDATASIZE PUSH1 0x4 PUSH2 0x4AEA JUMP JUMPDEST PUSH2 0xF92 JUMP JUMPDEST PUSH2 0x290 PUSH2 0x3FC CALLDATASIZE PUSH1 0x4 PUSH2 0x4A22 JUMP JUMPDEST PUSH2 0x1039 JUMP JUMPDEST PUSH2 0x414 PUSH2 0x40F CALLDATASIZE PUSH1 0x4 PUSH2 0x4BCE JUMP JUMPDEST PUSH2 0x110F JUMP JUMPDEST PUSH1 0x40 MLOAD PUSH2 0x274 SWAP3 SWAP2 SWAP1 PUSH2 0x4C2B JUMP JUMPDEST PUSH2 0x2B3 PUSH2 0x430 CALLDATASIZE PUSH1 0x4 PUSH2 0x4C46 JUMP JUMPDEST PUSH2 0x141F JUMP JUMPDEST PUSH2 0x2B3 PUSH2 0x443 CALLDATASIZE PUSH1 0x4 PUSH2 0x4ABB JUMP JUMPDEST PUSH1 0x1 PUSH1 0x1 PUSH1 0xA0 SHL SUB AND PUSH1 0x0 SWAP1 DUP2 MSTORE PUSH1 0x1 PUSH1 0x20 MSTORE PUSH1 0x40 SWAP1 KECCAK256 SLOAD SWAP1 JUMP JUMPDEST PUSH2 0x2B3 PUSH2 0x46C CALLDATASIZE PUSH1 0x4 PUSH2 0x4C46 JUMP JUMPDEST PUSH2 0x16E4 JUMP JUMPDEST PUSH1 0x7 SLOAD PUSH1 0xA SLOAD PUSH1 0xB SLOAD PUSH1 0x40 DUP1 MLOAD PUSH3 0x10000 DUP6 DIV PUSH1 0x1 PUSH1 0x1 PUSH1 0x40 SHL SUB AND DUP2 MSTORE PUSH1 0x20 DUP2 ADD SWAP4 SWAP1 SWAP4 MSTORE PUSH2 0x100 SWAP1 SWAP4 DIV PUSH1 0xFF AND SWAP3 DUP3 ADD SWAP3 SWAP1 SWAP3 MSTORE PUSH1 0x60 DUP2 ADD SWAP2 SWAP1 SWAP2 MSTORE PUSH1 0x80 ADD PUSH2 0x274 JUMP JUMPDEST PUSH2 0x23D PUSH2 0x4C5 CALLDATASIZE PUSH1 0x4 PUSH2 0x4C8E JUMP JUMPDEST PUSH2 0x1959 JUMP JUMPDEST PUSH2 0x4DD PUSH2 0x4D8 CALLDATASIZE PUSH1 0x4 PUSH2 0x4BCE JUMP JUMPDEST PUSH2 0x1B17 JUMP JUMPDEST PUSH1 0x40 DUP1 MLOAD SWAP3 DUP4 MSTORE PUSH1 0x20 DUP4 ADD SWAP2 SWAP1 SWAP2 MSTORE ADD PUSH2 0x274 JUMP JUMPDEST PUSH2 0x23D PUSH2 0x500 CALLDATASIZE PUSH1 0x4 PUSH2 0x4ABB JUMP JUMPDEST PUSH2 0x1C25 JUMP JUMPDEST PUSH1 0x7 SLOAD PUSH1 0xFF AND PUSH2 0x290 JUMP JUMPDEST PUSH2 0x23D PUSH2 0x51E CALLDATASIZE PUSH1 0x4 PUSH2 0x4ABB JUMP JUMPDEST PUSH2 0x1CFE JUMP JUMPDEST PUSH2 0x2B3 PUSH2 0x531 CALLDATASIZE PUSH1 0x4 PUSH2 0x4ABB JUMP JUMPDEST PUSH2 0x1DA2 JUMP JUMPDEST PUSH1 0x40 DUP1 MLOAD DUP1 DUP3 ADD SWAP1 SWAP2 MSTORE PUSH1 0x3 DUP2 MSTORE PUSH3 0x14D415 PUSH1 0xEA SHL PUSH1 0x20 DUP3 ADD MSTORE PUSH2 0x267 JUMP JUMPDEST PUSH2 0x2B3 PUSH2 0x563 CALLDATASIZE PUSH1 0x4 PUSH2 0x4C46 JUMP JUMPDEST PUSH2 0x1E05 JUMP JUMPDEST PUSH2 0x290 PUSH2 0x576 CALLDATASIZE PUSH1 0x4 PUSH2 0x4A22 JUMP JUMPDEST PUSH2 0x2099 JUMP JUMPDEST PUSH2 0x583 PUSH2 0x20AF JUMP JUMPDEST PUSH1 0x40 MLOAD PUSH2 0x274 SWAP2 SWAP1 PUSH2 0x4CDD JUMP JUMPDEST PUSH2 0x23D PUSH2 0x59E CALLDATASIZE PUSH1 0x4 PUSH2 0x4C8E JUMP JUMPDEST PUSH2 0x2111 JUMP JUMPDEST PUSH2 0x23D PUSH2 0x5B1 CALLDATASIZE PUSH1 0x4 PUSH2 0x4B83 JUMP JUMPDEST PUSH2 0x21A9 JUMP JUMPDEST PUSH2 0x2B3 PUSH2 0x5C4 CALLDATASIZE PUSH1 0x4 PUSH2 0x4C46 JUMP JUMPDEST PUSH2 0x23B2 JUMP JUMPDEST PUSH2 0x414 PUSH2 0x5D7 CALLDATASIZE PUSH1 0x4 PUSH2 0x4BCE JUMP JUMPDEST PUSH2 0x25FC JUMP JUMPDEST PUSH2 0x23D PUSH2 0x5EA CALLDATASIZE PUSH1 0x4 PUSH2 0x4ABB JUMP JUMPDEST PUSH2 0x286A JUMP JUMPDEST PUSH2 0x345 PUSH2 0x5FD CALLDATASIZE PUSH1 0x4 PUSH2 0x4ABB JUMP JUMPDEST PUSH2 0x2B53 JUMP JUMPDEST PUSH2 0x4DD PUSH2 0x610 CALLDATASIZE PUSH1 0x4 PUSH2 0x4BCE JUMP JUMPDEST PUSH2 0x2BAA JUMP JUMPDEST PUSH1 0x8 SLOAD PUSH2 0x2B3 JUMP JUMPDEST PUSH2 0x290 PUSH2 0x62B CALLDATASIZE PUSH1 0x4 PUSH2 0x4A22 JUMP JUMPDEST PUSH2 0x2C9B JUMP JUMPDEST PUSH2 0x2B3 PUSH2 0x63E CALLDATASIZE PUSH1 0x4 PUSH2 0x4A4C JUMP JUMPDEST PUSH1 0x1 PUSH1 0x1 PUSH1 0xA0 SHL SUB SWAP2 DUP3 AND PUSH1 0x0 SWAP1 DUP2 MSTORE PUSH1 0x2 PUSH1 0x20 SWAP1 DUP2 MSTORE PUSH1 0x40 DUP1 DUP4 KECCAK256 SWAP4 SWAP1 SWAP5 AND DUP3 MSTORE SWAP2 SWAP1 SWAP2 MSTORE KECCAK256 SLOAD SWAP1 JUMP JUMPDEST PUSH2 0x2B3 PUSH2 0x677 CALLDATASIZE PUSH1 0x4 PUSH2 0x4ABB JUMP JUMPDEST PUSH2 0x2D0F JUMP JUMPDEST PUSH2 0x2B3 PUSH2 0x68A CALLDATASIZE PUSH1 0x4 PUSH2 0x4ABB JUMP JUMPDEST PUSH2 0x2D66 JUMP JUMPDEST PUSH1 0x6 SLOAD PUSH2 0x100 SWAP1 DIV PUSH1 0xFF AND PUSH2 0x290 JUMP JUMPDEST DUP1 TIMESTAMP LT PUSH2 0x6D7 JUMPI PUSH1 0x40 MLOAD PUSH3 0x461BCD PUSH1 0xE5 SHL DUP2 MSTORE PUSH1 0x20 PUSH1 0x4 DUP3 ADD MSTORE PUSH1 0x1 PUSH1 0x24 DUP3 ADD MSTORE PUSH1 0x1B PUSH1 0xF9 SHL PUSH1 0x44 DUP3 ADD MSTORE PUSH1 0x64 ADD JUMPDEST PUSH1 0x40 MLOAD DUP1 SWAP2 SUB SWAP1 REVERT JUMPDEST PUSH1 0x1 PUSH1 0x1 PUSH1 0xA0 SHL SUB DUP4 AND PUSH1 0x0 SWAP1 DUP2 MSTORE PUSH1 0xC PUSH1 0x20 SWAP1 DUP2 MSTORE PUSH1 0x40 DUP1 DUP4 KECCAK256 SLOAD SWAP1 MLOAD PUSH2 0x74B SWAP3 PUSH2 0x730 SWAP3 PUSH32 0x8D70241BCA15590D68D30436A30BAF62A7BB9D12A334F8817928B92889AD3C12 SWAP3 DUP10 SWAP3 DUP10 SWAP3 DUP14 SWAP3 DUP14 SWAP3 DUP12 SWAP3 SWAP2 ADD PUSH2 0x4D2A JUMP JUMPDEST PUSH1 0x40 MLOAD PUSH1 0x20 DUP2 DUP4 SUB SUB DUP2 MSTORE SWAP1 PUSH1 0x40 MSTORE DUP1 MLOAD SWAP1 PUSH1 0x20 ADD KECCAK256 PUSH2 0x2DBD JUMP JUMPDEST SWAP1 POP PUSH2 0x7A3 DUP2 PUSH1 0x40 MLOAD PUSH28 0xCA2BA3432B932BAB69029B4B3B732B21026B2B9B9B0B3B29D051999 PUSH1 0x21 SHL PUSH1 0x20 DUP3 ADD MSTORE PUSH1 0x3C DUP2 ADD DUP3 SWAP1 MSTORE PUSH1 0x0 SWAP1 PUSH1 0x5C ADD PUSH1 0x40 MLOAD PUSH1 0x20 DUP2 DUP4 SUB SUB DUP2 MSTORE SWAP1 PUSH1 0x40 MSTORE DUP1 MLOAD SWAP1 PUSH1 0x20 ADD KECCAK256 SWAP1 POP SWAP2 SWAP1 POP JUMP JUMPDEST SWAP1 POP PUSH1 0x0 PUSH2 0x7E7 DUP3 DUP11 DUP11 DUP1 DUP1 PUSH1 0x1F ADD PUSH1 0x20 DUP1 SWAP2 DIV MUL PUSH1 0x20 ADD PUSH1 0x40 MLOAD SWAP1 DUP2 ADD PUSH1 0x40 MSTORE DUP1 SWAP4 SWAP3 SWAP2 SWAP1 DUP2 DUP2 MSTORE PUSH1 0x20 ADD DUP4 DUP4 DUP1 DUP3 DUP5 CALLDATACOPY PUSH1 0x0 SWAP3 ADD SWAP2 SWAP1 SWAP2 MSTORE POP PUSH2 0x2E0B SWAP3 POP POP POP JUMP JUMPDEST SWAP1 POP DUP5 PUSH1 0x1 PUSH1 0x1 PUSH1 0xA0 SHL SUB AND DUP2 PUSH1 0x1 PUSH1 0x1 PUSH1 0xA0 SHL SUB AND EQ PUSH2 0x82E JUMPI PUSH1 0x40 MLOAD PUSH3 0x461BCD PUSH1 0xE5 SHL DUP2 MSTORE PUSH1 0x20 PUSH1 0x4 DUP3 ADD MSTORE PUSH1 0x1 PUSH1 0x24 DUP3 ADD MSTORE PUSH1 0x37 PUSH1 0xF8 SHL PUSH1 0x44 DUP3 ADD MSTORE PUSH1 0x64 ADD PUSH2 0x6CE JUMP JUMPDEST PUSH1 0x1 PUSH1 0x1 PUSH1 0xA0 SHL SUB DUP6 AND PUSH1 0x0 SWAP1 DUP2 MSTORE PUSH1 0xC PUSH1 0x20 MSTORE PUSH1 0x40 SWAP1 KECCAK256 DUP1 SLOAD PUSH1 0x1 ADD SWAP1 SSTORE PUSH2 0x859 DUP6 DUP6 DUP10 DUP10 PUSH2 0x2E2F JUMP JUMPDEST POP POP POP POP POP POP POP POP POP JUMP JUMPDEST CALLER PUSH1 0x0 DUP2 DUP2 MSTORE PUSH1 0x2 PUSH1 0x20 SWAP1 DUP2 MSTORE PUSH1 0x40 DUP1 DUP4 KECCAK256 PUSH1 0x1 PUSH1 0x1 PUSH1 0xA0 SHL SUB DUP8 AND DUP1 DUP6 MSTORE SWAP3 MSTORE DUP1 DUP4 KECCAK256 DUP6 SWAP1 SSTORE MLOAD SWAP2 SWAP3 SWAP1 SWAP2 PUSH1 0x0 DUP1 MLOAD PUSH1 0x20 PUSH2 0x544C DUP4 CODECOPY DUP2 MLOAD SWAP2 MSTORE SWAP1 PUSH2 0x8AD SWAP1 DUP7 DUP2 MSTORE PUSH1 0x20 ADD SWAP1 JUMP JUMPDEST PUSH1 0x40 MLOAD DUP1 SWAP2 SUB SWAP1 LOG3 POP PUSH1 0x1 JUMPDEST SWAP3 SWAP2 POP POP JUMP JUMPDEST PUSH1 0x1 PUSH1 0x1 PUSH1 0xA0 SHL SUB DUP3 AND PUSH1 0x0 SWAP1 DUP2 MSTORE PUSH1 0x5 PUSH1 0x20 MSTORE PUSH1 0x40 DUP2 KECCAK256 SLOAD PUSH1 0xFF AND DUP1 ISZERO PUSH2 0x8FF JUMPI POP PUSH1 0x1 PUSH1 0x1 PUSH1 0xA0 SHL SUB DUP3 AND PUSH1 0x0 SWAP1 DUP2 MSTORE PUSH1 0x5 PUSH1 0x20 MSTORE PUSH1 0x40 SWAP1 KECCAK256 SLOAD PUSH1 0xFF AND JUMPDEST PUSH2 0x91B JUMPI PUSH1 0x40 MLOAD PUSH3 0x461BCD PUSH1 0xE5 SHL DUP2 MSTORE PUSH1 0x4 ADD PUSH2 0x6CE SWAP1 PUSH2 0x4D93 JUMP JUMPDEST PUSH1 0x1 PUSH1 0x1 PUSH1 0xA0 SHL SUB DUP4 DUP2 AND PUSH1 0x0 SWAP1 DUP2 MSTORE PUSH1 0x5 PUSH1 0x20 MSTORE PUSH1 0x40 DUP1 DUP3 KECCAK256 PUSH1 0x1 DUP1 DUP3 ADD SLOAD SWAP2 SLOAD SWAP5 DUP8 AND DUP5 MSTORE DUP3 DUP5 KECCAK256 SWAP1 DUP2 ADD SLOAD SWAP1 SLOAD SWAP3 MLOAD PUSH4 0xA221EE49 PUSH1 0xE0 SHL DUP2 MSTORE PUSH1 0x4 DUP2 ADD SWAP3 SWAP1 SWAP3 MSTORE PUSH1 0x1 PUSH1 0x1 PUSH1 0x50 SHL SUB PUSH3 0x10000 SWAP6 DUP7 SWAP1 DIV DUP2 AND PUSH1 0x24 DUP5 ADD MSTORE PUSH1 0x44 DUP4 ADD SWAP2 SWAP1 SWAP2 MSTORE SWAP4 SWAP1 SWAP2 DIV SWAP1 SWAP3 AND PUSH1 0x64 DUP4 ADD MSTORE PUSH1 0x84 DUP3 ADD MSTORE PUSH20 0x0 SWAP1 PUSH4 0xA221EE49 SWAP1 PUSH1 0xA4 ADD PUSH1 0x20 PUSH1 0x40 MLOAD DUP1 DUP4 SUB DUP2 DUP7 GAS DELEGATECALL ISZERO DUP1 ISZERO PUSH2 0x9CB JUMPI RETURNDATASIZE PUSH1 0x0 DUP1 RETURNDATACOPY RETURNDATASIZE PUSH1 0x0 REVERT JUMPDEST POP POP POP POP PUSH1 0x40 MLOAD RETURNDATASIZE PUSH1 0x1F NOT PUSH1 0x1F DUP3 ADD AND DUP3 ADD DUP1 PUSH1 0x40 MSTORE POP DUP2 ADD SWAP1 PUSH2 0x9EF SWAP2 SWAP1 PUSH2 0x4DAE JUMP JUMPDEST SWAP4 SWAP3 POP POP POP JUMP JUMPDEST PUSH1 0x0 PUSH2 0xA03 DUP5 DUP5 DUP5 PUSH2 0x2FFA JUMP JUMPDEST CALLER PUSH1 0x1 PUSH1 0x1 PUSH1 0xA0 SHL SUB DUP6 AND EQ DUP1 ISZERO SWAP1 PUSH2 0xA41 JUMPI POP PUSH1 0x1 PUSH1 0x1 PUSH1 0xA0 SHL SUB DUP5 AND PUSH1 0x0 SWAP1 DUP2 MSTORE PUSH1 0x2 PUSH1 0x20 SWAP1 DUP2 MSTORE PUSH1 0x40 DUP1 DUP4 KECCAK256 CALLER DUP5 MSTORE SWAP1 SWAP2 MSTORE SWAP1 KECCAK256 SLOAD PUSH1 0x0 NOT EQ ISZERO JUMPDEST ISZERO PUSH2 0xAC3 JUMPI PUSH1 0x1 PUSH1 0x1 PUSH1 0xA0 SHL SUB DUP5 AND PUSH1 0x0 SWAP1 DUP2 MSTORE PUSH1 0x2 PUSH1 0x20 SWAP1 DUP2 MSTORE PUSH1 0x40 DUP1 DUP4 KECCAK256 CALLER DUP5 MSTORE SWAP1 SWAP2 MSTORE SWAP1 KECCAK256 SLOAD PUSH2 0xA75 SWAP1 DUP4 SWAP1 PUSH2 0x4DDD JUMP JUMPDEST PUSH1 0x1 PUSH1 0x1 PUSH1 0xA0 SHL SUB DUP6 DUP2 AND PUSH1 0x0 SWAP1 DUP2 MSTORE PUSH1 0x2 PUSH1 0x20 SWAP1 DUP2 MSTORE PUSH1 0x40 DUP1 DUP4 KECCAK256 CALLER DUP1 DUP6 MSTORE SWAP1 DUP4 MSTORE SWAP3 DUP2 SWAP1 KECCAK256 DUP6 SWAP1 SSTORE MLOAD SWAP4 DUP5 MSTORE SWAP2 DUP7 AND SWAP3 SWAP1 SWAP2 PUSH1 0x0 DUP1 MLOAD PUSH1 0x20 PUSH2 0x544C DUP4 CODECOPY DUP2 MLOAD SWAP2 MSTORE SWAP2 ADD PUSH1 0x40 MLOAD DUP1 SWAP2 SUB SWAP1 LOG3 JUMPDEST POP PUSH1 0x1 SWAP4 SWAP3 POP POP POP JUMP JUMPDEST PUSH2 0xAD5 PUSH2 0x3124 JUMP JUMPDEST PUSH2 0xADD PUSH2 0x3160 JUMP JUMPDEST PUSH1 0x7 SLOAD PUSH1 0xFF AND ISZERO PUSH2 0xB00 JUMPI PUSH1 0x40 MLOAD PUSH3 0x461BCD PUSH1 0xE5 SHL DUP2 MSTORE PUSH1 0x4 ADD PUSH2 0x6CE SWAP1 PUSH2 0x4DF4 JUMP JUMPDEST PUSH1 0x6 SLOAD PUSH1 0x1 PUSH1 0x60 SHL SWAP1 DIV PUSH1 0x1 PUSH1 0x1 PUSH1 0xA0 SHL SUB AND CALLER EQ PUSH2 0xB31 JUMPI PUSH1 0x40 MLOAD PUSH3 0x461BCD PUSH1 0xE5 SHL DUP2 MSTORE PUSH1 0x4 ADD PUSH2 0x6CE SWAP1 PUSH2 0x4E0F JUMP JUMPDEST PUSH2 0xB44 PUSH8 0xDE0B6B3A7640000 PUSH1 0x1 PUSH2 0x4E2A JUMP JUMPDEST DUP2 LT ISZERO PUSH2 0xB78 JUMPI PUSH1 0x40 MLOAD PUSH3 0x461BCD PUSH1 0xE5 SHL DUP2 MSTORE PUSH1 0x20 PUSH1 0x4 DUP3 ADD MSTORE PUSH1 0x2 PUSH1 0x24 DUP3 ADD MSTORE PUSH2 0x1919 PUSH1 0xF1 SHL PUSH1 0x44 DUP3 ADD MSTORE PUSH1 0x64 ADD PUSH2 0x6CE JUMP JUMPDEST PUSH1 0xA DUP2 SWAP1 SSTORE PUSH2 0xB85 PUSH2 0x31A6 JUMP JUMPDEST POP JUMP JUMPDEST PUSH2 0xB90 PUSH2 0x3124 JUMP JUMPDEST PUSH2 0xB98 PUSH2 0x3160 JUMP JUMPDEST PUSH1 0x7 SLOAD PUSH1 0xFF AND ISZERO PUSH2 0xBBB JUMPI PUSH1 0x40 MLOAD PUSH3 0x461BCD PUSH1 0xE5 SHL DUP2 MSTORE PUSH1 0x4 ADD PUSH2 0x6CE SWAP1 PUSH2 0x4DF4 JUMP JUMPDEST PUSH1 0x6 SLOAD PUSH1 0x1 PUSH1 0x60 SHL SWAP1 DIV PUSH1 0x1 PUSH1 0x1 PUSH1 0xA0 SHL SUB AND CALLER EQ PUSH2 0xBEC JUMPI PUSH1 0x40 MLOAD PUSH3 0x461BCD PUSH1 0xE5 SHL DUP2 MSTORE PUSH1 0x4 ADD PUSH2 0x6CE SWAP1 PUSH2 0x4E0F JUMP JUMPDEST PUSH2 0xC01 PUSH3 0xF4240 PUSH8 0xDE0B6B3A7640000 PUSH2 0x4E49 JUMP JUMPDEST DUP2 LT ISZERO PUSH2 0xC35 JUMPI PUSH1 0x40 MLOAD PUSH3 0x461BCD PUSH1 0xE5 SHL DUP2 MSTORE PUSH1 0x20 PUSH1 0x4 DUP3 ADD MSTORE PUSH1 0x2 PUSH1 0x24 DUP3 ADD MSTORE PUSH2 0xC4D PUSH1 0xF2 SHL PUSH1 0x44 DUP3 ADD MSTORE PUSH1 0x64 ADD PUSH2 0x6CE JUMP JUMPDEST PUSH2 0xC48 PUSH1 0xA PUSH8 0xDE0B6B3A7640000 PUSH2 0x4E49 JUMP JUMPDEST DUP2 GT ISZERO PUSH2 0xC7C JUMPI PUSH1 0x40 MLOAD PUSH3 0x461BCD PUSH1 0xE5 SHL DUP2 MSTORE PUSH1 0x20 PUSH1 0x4 DUP3 ADD MSTORE PUSH1 0x2 PUSH1 0x24 DUP3 ADD MSTORE PUSH2 0x3135 PUSH1 0xF0 SHL PUSH1 0x44 DUP3 ADD MSTORE PUSH1 0x64 ADD PUSH2 0x6CE JUMP JUMPDEST PUSH1 0x8 DUP2 SWAP1 SSTORE PUSH2 0xB85 PUSH2 0x31A6 JUMP JUMPDEST PUSH2 0xC91 PUSH2 0x3124 JUMP JUMPDEST PUSH2 0xC99 PUSH2 0x3160 JUMP JUMPDEST PUSH1 0x7 SLOAD PUSH1 0xFF AND ISZERO PUSH2 0xCBC JUMPI PUSH1 0x40 MLOAD PUSH3 0x461BCD PUSH1 0xE5 SHL DUP2 MSTORE PUSH1 0x4 ADD PUSH2 0x6CE SWAP1 PUSH2 0x4DF4 JUMP JUMPDEST PUSH1 0x6 SLOAD PUSH1 0x1 PUSH1 0x60 SHL SWAP1 DIV PUSH1 0x1 PUSH1 0x1 PUSH1 0xA0 SHL SUB AND CALLER EQ PUSH2 0xCED JUMPI PUSH1 0x40 MLOAD PUSH3 0x461BCD PUSH1 0xE5 SHL DUP2 MSTORE PUSH1 0x4 ADD PUSH2 0x6CE SWAP1 PUSH2 0x4E0F JUMP JUMPDEST PUSH1 0x7 DUP1 SLOAD PUSH3 0x10000 PUSH1 0x1 PUSH1 0x50 SHL SUB NOT AND PUSH3 0x10000 PUSH1 0x1 PUSH1 0x1 PUSH1 0x40 SHL SUB DUP5 AND MUL OR SWAP1 SSTORE PUSH2 0xB85 PUSH2 0x31A6 JUMP JUMPDEST PUSH2 0xD1F PUSH2 0x3124 JUMP JUMPDEST PUSH2 0xD27 PUSH2 0x3160 JUMP JUMPDEST PUSH1 0x7 SLOAD PUSH1 0xFF AND ISZERO PUSH2 0xD4A JUMPI PUSH1 0x40 MLOAD PUSH3 0x461BCD PUSH1 0xE5 SHL DUP2 MSTORE PUSH1 0x4 ADD PUSH2 0x6CE SWAP1 PUSH2 0x4DF4 JUMP JUMPDEST PUSH1 0x6 SLOAD PUSH1 0x1 PUSH1 0x60 SHL SWAP1 DIV PUSH1 0x1 PUSH1 0x1 PUSH1 0xA0 SHL SUB AND CALLER EQ PUSH2 0xD7B JUMPI PUSH1 0x40 MLOAD PUSH3 0x461BCD PUSH1 0xE5 SHL DUP2 MSTORE PUSH1 0x4 ADD PUSH2 0x6CE SWAP1 PUSH2 0x4E0F JUMP JUMPDEST PUSH1 0x1 PUSH1 0xFF DUP3 AND LT ISZERO PUSH2 0xDB4 JUMPI PUSH1 0x40 MLOAD PUSH3 0x461BCD PUSH1 0xE5 SHL DUP2 MSTORE PUSH1 0x20 PUSH1 0x4 DUP3 ADD MSTORE PUSH1 0x2 PUSH1 0x24 DUP3 ADD MSTORE PUSH2 0xC8D PUSH1 0xF2 SHL PUSH1 0x44 DUP3 ADD MSTORE PUSH1 0x64 ADD PUSH2 0x6CE JUMP JUMPDEST PUSH1 0x64 PUSH1 0xFF DUP3 AND GT ISZERO PUSH2 0xDED JUMPI PUSH1 0x40 MLOAD PUSH3 0x461BCD PUSH1 0xE5 SHL DUP2 MSTORE PUSH1 0x20 PUSH1 0x4 DUP3 ADD MSTORE PUSH1 0x2 PUSH1 0x24 DUP3 ADD MSTORE PUSH2 0x3235 PUSH1 0xF0 SHL PUSH1 0x44 DUP3 ADD MSTORE PUSH1 0x64 ADD PUSH2 0x6CE JUMP JUMPDEST PUSH1 0x7 DUP1 SLOAD PUSH2 0xFF00 NOT AND PUSH2 0x100 PUSH1 0xFF DUP5 AND MUL OR SWAP1 SSTORE PUSH2 0xB85 PUSH2 0x31A6 JUMP JUMPDEST PUSH2 0xE11 PUSH2 0x3124 JUMP JUMPDEST PUSH2 0xE19 PUSH2 0x3160 JUMP JUMPDEST PUSH1 0x7 SLOAD PUSH1 0xFF AND ISZERO PUSH2 0xE3C JUMPI PUSH1 0x40 MLOAD PUSH3 0x461BCD PUSH1 0xE5 SHL DUP2 MSTORE PUSH1 0x4 ADD PUSH2 0x6CE SWAP1 PUSH2 0x4DF4 JUMP JUMPDEST PUSH1 0x6 SLOAD PUSH1 0x1 PUSH1 0x60 SHL SWAP1 DIV PUSH1 0x1 PUSH1 0x1 PUSH1 0xA0 SHL SUB AND CALLER EQ PUSH2 0xE6D JUMPI PUSH1 0x40 MLOAD PUSH3 0x461BCD PUSH1 0xE5 SHL DUP2 MSTORE PUSH1 0x4 ADD PUSH2 0x6CE SWAP1 PUSH2 0x4E0F JUMP JUMPDEST PUSH1 0x6 DUP1 SLOAD PUSH2 0xFF00 NOT AND PUSH2 0x100 DUP4 ISZERO ISZERO MUL OR SWAP1 SSTORE PUSH2 0xB85 PUSH2 0x31A6 JUMP JUMPDEST PUSH2 0xE90 PUSH2 0x3124 JUMP JUMPDEST PUSH2 0xE98 PUSH2 0x3160 JUMP JUMPDEST PUSH1 0x7 SLOAD PUSH1 0xFF AND ISZERO PUSH2 0xEBB JUMPI PUSH1 0x40 MLOAD PUSH3 0x461BCD PUSH1 0xE5 SHL DUP2 MSTORE PUSH1 0x4 ADD PUSH2 0x6CE SWAP1 PUSH2 0x4DF4 JUMP JUMPDEST PUSH1 0x6 SLOAD PUSH1 0x1 PUSH1 0x60 SHL SWAP1 DIV PUSH1 0x1 PUSH1 0x1 PUSH1 0xA0 SHL SUB AND CALLER EQ PUSH2 0xEEC JUMPI PUSH1 0x40 MLOAD PUSH3 0x461BCD PUSH1 0xE5 SHL DUP2 MSTORE PUSH1 0x4 ADD PUSH2 0x6CE SWAP1 PUSH2 0x4E0F JUMP JUMPDEST PUSH1 0x4 SLOAD PUSH1 0x2 GT ISZERO PUSH2 0xF24 JUMPI PUSH1 0x40 MLOAD PUSH3 0x461BCD PUSH1 0xE5 SHL DUP2 MSTORE PUSH1 0x20 PUSH1 0x4 DUP3 ADD MSTORE PUSH1 0x2 PUSH1 0x24 DUP3 ADD MSTORE PUSH2 0x627 PUSH1 0xF3 SHL PUSH1 0x44 DUP3 ADD MSTORE PUSH1 0x64 ADD PUSH2 0x6CE JUMP JUMPDEST PUSH1 0x7 DUP1 SLOAD PUSH1 0xFF NOT AND PUSH1 0x1 OR SWAP1 SSTORE PUSH1 0x6 DUP1 SLOAD PUSH2 0xFF00 NOT AND PUSH2 0x100 OR SWAP1 SSTORE PUSH2 0xF5B PUSH2 0xF56 PUSH8 0xDE0B6B3A7640000 PUSH1 0x64 PUSH2 0x4E2A JUMP JUMPDEST PUSH2 0x31B2 JUMP JUMPDEST PUSH2 0xF77 CALLER PUSH2 0xF72 PUSH8 0xDE0B6B3A7640000 PUSH1 0x64 PUSH2 0x4E2A JUMP JUMPDEST PUSH2 0x31BB JUMP JUMPDEST PUSH2 0xF7F PUSH2 0x31A6 JUMP JUMPDEST JUMP JUMPDEST PUSH2 0xF8D CALLER DUP5 DUP5 DUP5 PUSH2 0x2E2F JUMP JUMPDEST POP POP POP JUMP JUMPDEST PUSH2 0xF9A PUSH2 0x3124 JUMP JUMPDEST PUSH2 0xFA2 PUSH2 0x3160 JUMP JUMPDEST PUSH1 0x7 SLOAD PUSH1 0xFF AND ISZERO PUSH2 0xFC5 JUMPI PUSH1 0x40 MLOAD PUSH3 0x461BCD PUSH1 0xE5 SHL DUP2 MSTORE PUSH1 0x4 ADD PUSH2 0x6CE SWAP1 PUSH2 0x4DF4 JUMP JUMPDEST PUSH1 0x6 SLOAD PUSH1 0x1 PUSH1 0x60 SHL SWAP1 DIV PUSH1 0x1 PUSH1 0x1 PUSH1 0xA0 SHL SUB AND CALLER EQ PUSH2 0xFF6 JUMPI PUSH1 0x40 MLOAD PUSH3 0x461BCD PUSH1 0xE5 SHL DUP2 MSTORE PUSH1 0x4 ADD PUSH2 0x6CE SWAP1 PUSH2 0x4E0F JUMP JUMPDEST PUSH1 0x1 DUP2 LT ISZERO PUSH2 0x102C JUMPI PUSH1 0x40 MLOAD PUSH3 0x461BCD PUSH1 0xE5 SHL DUP2 MSTORE PUSH1 0x20 PUSH1 0x4 DUP3 ADD MSTORE PUSH1 0x2 PUSH1 0x24 DUP3 ADD MSTORE PUSH2 0x191B PUSH1 0xF1 SHL PUSH1 0x44 DUP3 ADD MSTORE PUSH1 0x64 ADD PUSH2 0x6CE JUMP JUMPDEST PUSH1 0xB DUP2 SWAP1 SSTORE PUSH2 0xB85 PUSH2 0x31A6 JUMP JUMPDEST CALLER PUSH1 0x0 SWAP1 DUP2 MSTORE PUSH1 0x2 PUSH1 0x20 SWAP1 DUP2 MSTORE PUSH1 0x40 DUP1 DUP4 KECCAK256 PUSH1 0x1 PUSH1 0x1 PUSH1 0xA0 SHL SUB DUP7 AND DUP5 MSTORE SWAP1 SWAP2 MSTORE DUP2 KECCAK256 SLOAD DUP1 DUP4 GT ISZERO PUSH2 0x108E JUMPI CALLER PUSH1 0x0 SWAP1 DUP2 MSTORE PUSH1 0x2 PUSH1 0x20 SWAP1 DUP2 MSTORE PUSH1 0x40 DUP1 DUP4 KECCAK256 PUSH1 0x1 PUSH1 0x1 PUSH1 0xA0 SHL SUB DUP9 AND DUP5 MSTORE SWAP1 SWAP2 MSTORE DUP2 KECCAK256 SSTORE PUSH2 0x10BD JUMP JUMPDEST PUSH2 0x1098 DUP4 DUP3 PUSH2 0x4DDD JUMP JUMPDEST CALLER PUSH1 0x0 SWAP1 DUP2 MSTORE PUSH1 0x2 PUSH1 0x20 SWAP1 DUP2 MSTORE PUSH1 0x40 DUP1 DUP4 KECCAK256 PUSH1 0x1 PUSH1 0x1 PUSH1 0xA0 SHL SUB DUP10 AND DUP5 MSTORE SWAP1 SWAP2 MSTORE SWAP1 KECCAK256 SSTORE JUMPDEST CALLER PUSH1 0x0 DUP2 DUP2 MSTORE PUSH1 0x2 PUSH1 0x20 SWAP1 DUP2 MSTORE PUSH1 0x40 DUP1 DUP4 KECCAK256 PUSH1 0x1 PUSH1 0x1 PUSH1 0xA0 SHL SUB DUP10 AND DUP1 DUP6 MSTORE SWAP1 DUP4 MSTORE SWAP3 DUP2 SWAP1 KECCAK256 SLOAD SWAP1 MLOAD SWAP1 DUP2 MSTORE SWAP2 SWAP3 SWAP2 PUSH1 0x0 DUP1 MLOAD PUSH1 0x20 PUSH2 0x544C DUP4 CODECOPY DUP2 MLOAD SWAP2 MSTORE SWAP2 ADD PUSH1 0x40 MLOAD DUP1 SWAP2 SUB SWAP1 LOG3 POP PUSH1 0x1 SWAP4 SWAP3 POP POP POP JUMP JUMPDEST PUSH2 0x1117 PUSH2 0x4844 JUMP JUMPDEST PUSH1 0x1 PUSH1 0x1 PUSH1 0xA0 SHL SUB DUP7 AND PUSH1 0x0 SWAP1 DUP2 MSTORE PUSH1 0x5 PUSH1 0x20 MSTORE PUSH1 0x40 DUP2 KECCAK256 SLOAD PUSH1 0xFF AND DUP1 ISZERO PUSH2 0x1157 JUMPI POP PUSH1 0x1 PUSH1 0x1 PUSH1 0xA0 SHL SUB DUP6 AND PUSH1 0x0 SWAP1 DUP2 MSTORE PUSH1 0x5 PUSH1 0x20 MSTORE PUSH1 0x40 SWAP1 KECCAK256 SLOAD PUSH1 0xFF AND JUMPDEST PUSH2 0x1173 JUMPI PUSH1 0x40 MLOAD PUSH3 0x461BCD PUSH1 0xE5 SHL DUP2 MSTORE PUSH1 0x4 ADD PUSH2 0x6CE SWAP1 PUSH2 0x4D93 JUMP JUMPDEST PUSH1 0x6 SLOAD PUSH2 0x100 SWAP1 DIV PUSH1 0xFF AND PUSH2 0x119A JUMPI PUSH1 0x40 MLOAD PUSH3 0x461BCD PUSH1 0xE5 SHL DUP2 MSTORE PUSH1 0x4 ADD PUSH2 0x6CE SWAP1 PUSH2 0x4E6B JUMP JUMPDEST PUSH1 0x0 PUSH2 0x11A5 DUP9 PUSH2 0x31C9 JUMP JUMPDEST SWAP1 POP PUSH1 0x0 PUSH2 0x11B2 DUP8 PUSH2 0x31C9 JUMP JUMPDEST DUP3 MLOAD DUP1 MLOAD PUSH1 0x20 SWAP2 DUP3 ADD MLOAD DUP4 MLOAD DUP1 MLOAD SWAP4 ADD MLOAD PUSH1 0x8 SLOAD PUSH1 0x40 MLOAD PUSH4 0xA221EE49 PUSH1 0xE0 SHL DUP2 MSTORE SWAP6 SWAP7 POP PUSH1 0x0 SWAP6 PUSH20 0x0 SWAP6 PUSH4 0xA221EE49 SWAP6 PUSH2 0x120A SWAP6 SWAP1 SWAP5 SWAP1 SWAP4 SWAP2 SWAP3 SWAP1 SWAP2 SWAP1 PUSH1 0x4 ADD PUSH2 0x4E87 JUMP JUMPDEST PUSH1 0x20 PUSH1 0x40 MLOAD DUP1 DUP4 SUB DUP2 DUP7 GAS DELEGATECALL ISZERO DUP1 ISZERO PUSH2 0x1227 JUMPI RETURNDATASIZE PUSH1 0x0 DUP1 RETURNDATACOPY RETURNDATASIZE PUSH1 0x0 REVERT JUMPDEST POP POP POP POP PUSH1 0x40 MLOAD RETURNDATASIZE PUSH1 0x1F NOT PUSH1 0x1F DUP3 ADD AND DUP3 ADD DUP1 PUSH1 0x40 MSTORE POP DUP2 ADD SWAP1 PUSH2 0x124B SWAP2 SWAP1 PUSH2 0x4DAE JUMP JUMPDEST SWAP1 POP DUP6 DUP2 GT ISZERO PUSH2 0x126D JUMPI PUSH1 0x40 MLOAD PUSH3 0x461BCD PUSH1 0xE5 SHL DUP2 MSTORE PUSH1 0x4 ADD PUSH2 0x6CE SWAP1 PUSH2 0x4EAA JUMP JUMPDEST PUSH2 0x1279 DUP4 DUP4 DUP10 TIMESTAMP PUSH2 0x3350 JUMP JUMPDEST SWAP5 POP DUP9 DUP6 PUSH1 0x0 ADD MLOAD GT ISZERO PUSH2 0x129F JUMPI PUSH1 0x40 MLOAD PUSH3 0x461BCD PUSH1 0xE5 SHL DUP2 MSTORE PUSH1 0x4 ADD PUSH2 0x6CE SWAP1 PUSH2 0x4EC6 JUMP JUMPDEST DUP5 MLOAD DUP4 MLOAD MLOAD PUSH20 0x0 SWAP2 PUSH4 0xA221EE49 SWAP2 PUSH2 0x12CA SWAP2 SWAP1 PUSH2 0x4EE1 JUMP JUMPDEST DUP6 MLOAD PUSH1 0x20 ADD MLOAD DUP6 MLOAD MLOAD PUSH2 0x12DE SWAP1 DUP13 SWAP1 PUSH2 0x4DDD JUMP JUMPDEST DUP7 MLOAD PUSH1 0x20 ADD MLOAD PUSH1 0x8 SLOAD PUSH1 0x40 MLOAD PUSH1 0x1 PUSH1 0x1 PUSH1 0xE0 SHL SUB NOT PUSH1 0xE0 DUP9 SWAP1 SHL AND DUP2 MSTORE PUSH2 0x130C SWAP6 SWAP5 SWAP4 SWAP3 SWAP2 SWAP1 PUSH1 0x4 ADD PUSH2 0x4E87 JUMP JUMPDEST PUSH1 0x20 PUSH1 0x40 MLOAD DUP1 DUP4 SUB DUP2 DUP7 GAS DELEGATECALL ISZERO DUP1 ISZERO PUSH2 0x1329 JUMPI RETURNDATASIZE PUSH1 0x0 DUP1 RETURNDATACOPY RETURNDATASIZE PUSH1 0x0 REVERT JUMPDEST POP POP POP POP PUSH1 0x40 MLOAD RETURNDATASIZE PUSH1 0x1F NOT PUSH1 0x1F DUP3 ADD AND DUP3 ADD DUP1 PUSH1 0x40 MSTORE POP DUP2 ADD SWAP1 PUSH2 0x134D SWAP2 SWAP1 PUSH2 0x4DAE JUMP JUMPDEST SWAP4 POP DUP1 DUP5 LT ISZERO PUSH2 0x136F JUMPI PUSH1 0x40 MLOAD PUSH3 0x461BCD PUSH1 0xE5 SHL DUP2 MSTORE PUSH1 0x4 ADD PUSH2 0x6CE SWAP1 PUSH2 0x4EF9 JUMP JUMPDEST DUP5 MLOAD PUSH2 0x137B SWAP1 DUP9 PUSH2 0x3487 JUMP JUMPDEST DUP2 GT ISZERO PUSH2 0x139A JUMPI PUSH1 0x40 MLOAD PUSH3 0x461BCD PUSH1 0xE5 SHL DUP2 MSTORE PUSH1 0x4 ADD PUSH2 0x6CE SWAP1 PUSH2 0x4EF9 JUMP JUMPDEST PUSH1 0x8 SLOAD PUSH1 0x64 PUSH2 0x13B2 PUSH8 0xDE0B6B3A7640000 PUSH1 0x2 PUSH2 0x4E2A JUMP JUMPDEST PUSH2 0x13BC SWAP2 SWAP1 PUSH2 0x4E49 JUMP JUMPDEST PUSH2 0x13CE SWAP1 PUSH8 0xDE0B6B3A7640000 PUSH2 0x4EE1 JUMP JUMPDEST PUSH2 0x13D8 SWAP2 SWAP1 PUSH2 0x4EE1 JUMP JUMPDEST PUSH2 0x13F3 DUP6 PUSH2 0x13EE DUP7 PUSH1 0x20 ADD MLOAD DUP7 PUSH1 0x20 ADD MLOAD PUSH2 0x34CD JUMP JUMPDEST PUSH2 0x3487 JUMP JUMPDEST GT ISZERO PUSH2 0x1411 JUMPI PUSH1 0x40 MLOAD PUSH3 0x461BCD PUSH1 0xE5 SHL DUP2 MSTORE PUSH1 0x4 ADD PUSH2 0x6CE SWAP1 PUSH2 0x4F14 JUMP JUMPDEST POP POP POP JUMPDEST SWAP6 POP SWAP6 SWAP4 POP POP POP POP JUMP JUMPDEST PUSH1 0x0 PUSH2 0x1429 PUSH2 0x3124 JUMP JUMPDEST PUSH2 0x1431 PUSH2 0x3160 JUMP JUMPDEST PUSH2 0x1439 PUSH2 0x35AD JUMP JUMPDEST PUSH1 0x7 SLOAD PUSH1 0xFF AND PUSH2 0x145B JUMPI PUSH1 0x40 MLOAD PUSH3 0x461BCD PUSH1 0xE5 SHL DUP2 MSTORE PUSH1 0x4 ADD PUSH2 0x6CE SWAP1 PUSH2 0x4F30 JUMP JUMPDEST PUSH1 0x1 PUSH1 0x1 PUSH1 0xA0 SHL SUB DUP5 AND PUSH1 0x0 SWAP1 DUP2 MSTORE PUSH1 0x5 PUSH1 0x20 MSTORE PUSH1 0x40 SWAP1 KECCAK256 SLOAD PUSH1 0xFF AND PUSH2 0x1493 JUMPI PUSH1 0x40 MLOAD PUSH3 0x461BCD PUSH1 0xE5 SHL DUP2 MSTORE PUSH1 0x4 ADD PUSH2 0x6CE SWAP1 PUSH2 0x4D93 JUMP JUMPDEST PUSH2 0x149B PUSH2 0x485E JUMP JUMPDEST PUSH1 0x60 PUSH2 0x14A6 DUP7 PUSH2 0x361A JUMP JUMPDEST PUSH1 0x40 DUP1 MLOAD PUSH1 0x60 DUP2 ADD DUP3 MSTORE DUP9 DUP2 MSTORE PUSH1 0x8 SLOAD PUSH1 0x20 DUP3 ADD MSTORE SWAP3 SWAP5 POP SWAP1 SWAP3 POP PUSH1 0x0 SWAP2 SWAP1 DUP2 ADD PUSH2 0x3E8 PUSH2 0x14DD PUSH8 0xDE0B6B3A7640000 PUSH1 0x3 PUSH2 0x4E2A JUMP JUMPDEST PUSH2 0x14E7 SWAP2 SWAP1 PUSH2 0x4E49 JUMP JUMPDEST SWAP1 MSTORE PUSH1 0x40 DUP1 MLOAD DUP1 DUP3 ADD DUP3 MSTORE PUSH1 0x7 SLOAD PUSH3 0x10000 DUP2 DIV PUSH1 0x1 PUSH1 0x1 PUSH1 0x40 SHL SUB AND DUP3 MSTORE PUSH1 0xA SLOAD PUSH1 0x20 DUP1 DUP5 ADD SWAP2 SWAP1 SWAP2 MSTORE DUP4 MLOAD PUSH1 0x60 DUP2 ADD DUP6 MSTORE PUSH2 0x100 SWAP1 SWAP3 DIV PUSH1 0xFF AND DUP3 MSTORE PUSH1 0xB SLOAD SWAP1 DUP3 ADD MSTORE TIMESTAMP DUP2 DUP5 ADD MSTORE PUSH1 0x3 SLOAD SWAP3 MLOAD PUSH4 0x7075BBAF PUSH1 0xE1 SHL DUP2 MSTORE SWAP4 SWAP5 POP SWAP1 SWAP3 SWAP1 SWAP2 PUSH20 0x0 SWAP2 PUSH4 0xE0EB775E SWAP2 PUSH2 0x1579 SWAP2 DUP10 SWAP1 DUP10 SWAP1 DUP10 SWAP1 DUP10 SWAP1 DUP10 SWAP1 PUSH1 0x4 ADD PUSH2 0x4FCE JUMP JUMPDEST PUSH1 0x20 PUSH1 0x40 MLOAD DUP1 DUP4 SUB DUP2 DUP7 GAS DELEGATECALL ISZERO DUP1 ISZERO PUSH2 0x1596 JUMPI RETURNDATASIZE PUSH1 0x0 DUP1 RETURNDATACOPY RETURNDATASIZE PUSH1 0x0 REVERT JUMPDEST POP POP POP POP PUSH1 0x40 MLOAD RETURNDATASIZE PUSH1 0x1F NOT PUSH1 0x1F DUP3 ADD AND DUP3 ADD DUP1 PUSH1 0x40 MSTORE POP DUP2 ADD SWAP1 PUSH2 0x15BA SWAP2 SWAP1 PUSH2 0x4DAE JUMP JUMPDEST SWAP6 POP POP POP POP DUP3 PUSH1 0x0 EQ ISZERO PUSH2 0x15E0 JUMPI PUSH1 0x40 MLOAD PUSH3 0x461BCD PUSH1 0xE5 SHL DUP2 MSTORE PUSH1 0x4 ADD PUSH2 0x6CE SWAP1 PUSH2 0x4EF9 JUMP JUMPDEST DUP4 DUP4 GT ISZERO PUSH2 0x1600 JUMPI PUSH1 0x40 MLOAD PUSH3 0x461BCD PUSH1 0xE5 SHL DUP2 MSTORE PUSH1 0x4 ADD PUSH2 0x6CE SWAP1 PUSH2 0x4EC6 JUMP JUMPDEST DUP2 MLOAD DUP1 MLOAD DUP7 SWAP2 SWAP1 PUSH2 0x1612 SWAP1 DUP4 SWAP1 PUSH2 0x4DDD JUMP JUMPDEST SWAP1 MSTORE POP PUSH2 0x161F DUP3 DUP3 PUSH2 0x373F JUMP JUMPDEST DUP2 MLOAD MLOAD PUSH1 0x1 PUSH1 0x1 PUSH1 0xA0 SHL SUB DUP8 AND PUSH1 0x0 SWAP1 DUP2 MSTORE PUSH1 0x5 PUSH1 0x20 MSTORE PUSH1 0x40 DUP2 KECCAK256 PUSH1 0x1 ADD SWAP2 SWAP1 SWAP2 SSTORE PUSH2 0x164B DUP5 DUP3 PUSH2 0x38A0 JUMP JUMPDEST SWAP1 POP DUP7 PUSH1 0x1 PUSH1 0x1 PUSH1 0xA0 SHL SUB AND CALLER PUSH1 0x1 PUSH1 0x1 PUSH1 0xA0 SHL SUB AND PUSH1 0x0 DUP1 MLOAD PUSH1 0x20 PUSH2 0x542C DUP4 CODECOPY DUP2 MLOAD SWAP2 MSTORE DUP9 PUSH1 0x40 MLOAD PUSH2 0x1680 SWAP2 DUP2 MSTORE PUSH1 0x20 ADD SWAP1 JUMP JUMPDEST PUSH1 0x40 MLOAD DUP1 SWAP2 SUB SWAP1 LOG3 PUSH2 0x1692 CALLER DUP6 PUSH2 0x38E4 JUMP JUMPDEST PUSH2 0x16A4 PUSH2 0x169F DUP3 DUP7 PUSH2 0x4DDD JUMP JUMPDEST PUSH2 0x38EE JUMP JUMPDEST PUSH2 0x16CE PUSH32 0x0 DUP3 PUSH2 0x31BB JUMP JUMPDEST PUSH2 0x16D9 DUP8 CALLER DUP9 PUSH2 0x38F7 JUMP JUMPDEST POP POP POP PUSH2 0x9EF PUSH2 0x31A6 JUMP JUMPDEST PUSH1 0x0 PUSH2 0x16EE PUSH2 0x3124 JUMP JUMPDEST PUSH2 0x16F6 PUSH2 0x3160 JUMP JUMPDEST PUSH2 0x16FE PUSH2 0x35AD JUMP JUMPDEST PUSH1 0x7 SLOAD PUSH1 0xFF AND PUSH2 0x1720 JUMPI PUSH1 0x40 MLOAD PUSH3 0x461BCD PUSH1 0xE5 SHL DUP2 MSTORE PUSH1 0x4 ADD PUSH2 0x6CE SWAP1 PUSH2 0x4F30 JUMP JUMPDEST PUSH1 0x1 PUSH1 0x1 PUSH1 0xA0 SHL SUB DUP5 AND PUSH1 0x0 SWAP1 DUP2 MSTORE PUSH1 0x5 PUSH1 0x20 MSTORE PUSH1 0x40 SWAP1 KECCAK256 SLOAD PUSH1 0xFF AND PUSH2 0x1758 JUMPI PUSH1 0x40 MLOAD PUSH3 0x461BCD PUSH1 0xE5 SHL DUP2 MSTORE PUSH1 0x4 ADD PUSH2 0x6CE SWAP1 PUSH2 0x4D93 JUMP JUMPDEST PUSH2 0x1760 PUSH2 0x485E JUMP JUMPDEST PUSH1 0x60 PUSH2 0x176B DUP7 PUSH2 0x361A JUMP JUMPDEST PUSH1 0x40 DUP1 MLOAD PUSH1 0x60 DUP2 ADD DUP3 MSTORE DUP9 DUP2 MSTORE PUSH1 0x8 SLOAD PUSH1 0x20 DUP3 ADD MSTORE SWAP3 SWAP5 POP SWAP1 SWAP3 POP PUSH1 0x0 SWAP2 SWAP1 DUP2 ADD PUSH2 0x3E8 PUSH2 0x17A2 PUSH8 0xDE0B6B3A7640000 PUSH1 0x3 PUSH2 0x4E2A JUMP JUMPDEST PUSH2 0x17AC SWAP2 SWAP1 PUSH2 0x4E49 JUMP JUMPDEST SWAP1 MSTORE PUSH1 0x40 DUP1 MLOAD DUP1 DUP3 ADD DUP3 MSTORE PUSH1 0x7 SLOAD PUSH3 0x10000 DUP2 DIV PUSH1 0x1 PUSH1 0x1 PUSH1 0x40 SHL SUB AND DUP3 MSTORE PUSH1 0xA SLOAD PUSH1 0x20 DUP1 DUP5 ADD SWAP2 SWAP1 SWAP2 MSTORE DUP4 MLOAD PUSH1 0x60 DUP2 ADD DUP6 MSTORE PUSH2 0x100 SWAP1 SWAP3 DIV PUSH1 0xFF AND DUP3 MSTORE PUSH1 0xB SLOAD SWAP1 DUP3 ADD MSTORE TIMESTAMP DUP2 DUP5 ADD MSTORE PUSH1 0x3 SLOAD SWAP3 MLOAD PUSH4 0x511FD5CD PUSH1 0xE0 SHL DUP2 MSTORE SWAP4 SWAP5 POP SWAP1 SWAP3 SWAP1 SWAP2 PUSH20 0x0 SWAP2 PUSH4 0x511FD5CD SWAP2 PUSH2 0x183E SWAP2 DUP10 SWAP1 DUP10 SWAP1 DUP10 SWAP1 DUP10 SWAP1 DUP10 SWAP1 PUSH1 0x4 ADD PUSH2 0x4FCE JUMP JUMPDEST PUSH1 0x20 PUSH1 0x40 MLOAD DUP1 DUP4 SUB DUP2 DUP7 GAS DELEGATECALL ISZERO DUP1 ISZERO PUSH2 0x185B JUMPI RETURNDATASIZE PUSH1 0x0 DUP1 RETURNDATACOPY RETURNDATASIZE PUSH1 0x0 REVERT JUMPDEST POP POP POP POP PUSH1 0x40 MLOAD RETURNDATASIZE PUSH1 0x1F NOT PUSH1 0x1F DUP3 ADD AND DUP3 ADD DUP1 PUSH1 0x40 MSTORE POP DUP2 ADD SWAP1 PUSH2 0x187F SWAP2 SWAP1 PUSH2 0x4DAE JUMP JUMPDEST SWAP6 POP POP POP POP DUP3 PUSH1 0x0 EQ ISZERO PUSH2 0x18A5 JUMPI PUSH1 0x40 MLOAD PUSH3 0x461BCD PUSH1 0xE5 SHL DUP2 MSTORE PUSH1 0x4 ADD PUSH2 0x6CE SWAP1 PUSH2 0x4EF9 JUMP JUMPDEST DUP4 DUP4 GT ISZERO PUSH2 0x18C5 JUMPI PUSH1 0x40 MLOAD PUSH3 0x461BCD PUSH1 0xE5 SHL DUP2 MSTORE PUSH1 0x4 ADD PUSH2 0x6CE SWAP1 PUSH2 0x4EC6 JUMP JUMPDEST DUP2 MLOAD DUP1 MLOAD DUP5 SWAP2 SWAP1 PUSH2 0x18D7 SWAP1 DUP4 SWAP1 PUSH2 0x4EE1 JUMP JUMPDEST SWAP1 MSTORE POP PUSH2 0x18E4 DUP3 DUP3 PUSH2 0x390B JUMP JUMPDEST DUP2 MLOAD MLOAD PUSH1 0x1 PUSH1 0x1 PUSH1 0xA0 SHL SUB DUP8 AND PUSH1 0x0 DUP2 DUP2 MSTORE PUSH1 0x5 PUSH1 0x20 MSTORE PUSH1 0x40 SWAP1 DUP2 SWAP1 KECCAK256 PUSH1 0x1 ADD SWAP3 SWAP1 SWAP3 SSTORE SWAP1 MLOAD CALLER SWAP1 PUSH1 0x0 DUP1 MLOAD PUSH1 0x20 PUSH2 0x53EC DUP4 CODECOPY DUP2 MLOAD SWAP2 MSTORE SWAP1 PUSH2 0x1929 SWAP1 DUP8 DUP2 MSTORE PUSH1 0x20 ADD SWAP1 JUMP JUMPDEST PUSH1 0x40 MLOAD DUP1 SWAP2 SUB SWAP1 LOG3 PUSH2 0x193A DUP6 PUSH2 0x31B2 JUMP JUMPDEST PUSH2 0x1944 CALLER DUP7 PUSH2 0x3A73 JUMP JUMPDEST PUSH2 0x194F DUP7 CALLER DUP6 PUSH2 0x3A9B JUMP JUMPDEST POP POP PUSH2 0x9EF PUSH2 0x31A6 JUMP JUMPDEST PUSH1 0x6 SLOAD PUSH1 0x1 PUSH1 0x60 SHL SWAP1 DIV PUSH1 0x1 PUSH1 0x1 PUSH1 0xA0 SHL SUB AND CALLER EQ PUSH2 0x198A JUMPI PUSH1 0x40 MLOAD PUSH3 0x461BCD PUSH1 0xE5 SHL DUP2 MSTORE PUSH1 0x4 ADD PUSH2 0x6CE SWAP1 PUSH2 0x4E0F JUMP JUMPDEST PUSH1 0x1 PUSH1 0x1 PUSH1 0xA0 SHL SUB DUP5 AND PUSH1 0x0 SWAP1 DUP2 MSTORE PUSH1 0x5 PUSH1 0x20 MSTORE PUSH1 0x40 SWAP1 KECCAK256 SLOAD PUSH1 0xFF AND ISZERO PUSH2 0x19D8 JUMPI PUSH1 0x40 MLOAD PUSH3 0x461BCD PUSH1 0xE5 SHL DUP2 MSTORE PUSH1 0x20 PUSH1 0x4 DUP3 ADD MSTORE PUSH1 0x2 PUSH1 0x24 DUP3 ADD MSTORE PUSH2 0x647 PUSH1 0xF3 SHL PUSH1 0x44 DUP3 ADD MSTORE PUSH1 0x64 ADD PUSH2 0x6CE JUMP JUMPDEST PUSH1 0x7 SLOAD PUSH1 0xFF AND ISZERO PUSH2 0x19FB JUMPI PUSH1 0x40 MLOAD PUSH3 0x461BCD PUSH1 0xE5 SHL DUP2 MSTORE PUSH1 0x4 ADD PUSH2 0x6CE SWAP1 PUSH2 0x4DF4 JUMP JUMPDEST PUSH1 0x4 SLOAD PUSH1 0x8 GT PUSH2 0x1A32 JUMPI PUSH1 0x40 MLOAD PUSH3 0x461BCD PUSH1 0xE5 SHL DUP2 MSTORE PUSH1 0x20 PUSH1 0x4 DUP3 ADD MSTORE PUSH1 0x2 PUSH1 0x24 DUP3 ADD MSTORE PUSH2 0x3239 PUSH1 0xF0 SHL PUSH1 0x44 DUP3 ADD MSTORE PUSH1 0x64 ADD PUSH2 0x6CE JUMP JUMPDEST PUSH1 0x40 DUP1 MLOAD PUSH1 0x80 DUP2 ADD DUP3 MSTORE PUSH1 0x1 DUP1 DUP3 MSTORE PUSH1 0x4 DUP1 SLOAD PUSH1 0xFF SWAP1 DUP2 AND PUSH1 0x20 DUP1 DUP7 ADD SWAP2 DUP3 MSTORE PUSH1 0x0 DUP7 DUP9 ADD DUP2 DUP2 MSTORE PUSH1 0x60 DUP9 ADD DUP3 DUP2 MSTORE PUSH1 0x1 PUSH1 0x1 PUSH1 0xA0 SHL SUB DUP15 AND DUP1 DUP5 MSTORE PUSH1 0x5 SWAP1 SWAP5 MSTORE SWAP9 DUP3 KECCAK256 SWAP8 MLOAD DUP9 SLOAD SWAP5 MLOAD SWAP2 MLOAD PUSH2 0xFFFF NOT SWAP1 SWAP6 AND SWAP1 ISZERO ISZERO PUSH2 0xFF00 NOT AND OR PUSH2 0x100 SWAP2 SWAP1 SWAP6 AND MUL SWAP4 SWAP1 SWAP4 OR PUSH3 0x10000 PUSH1 0x1 PUSH1 0x60 SHL SUB NOT AND PUSH3 0x10000 PUSH1 0x1 PUSH1 0x1 PUSH1 0x50 SHL SUB SWAP1 SWAP4 AND SWAP3 SWAP1 SWAP3 MUL SWAP2 SWAP1 SWAP2 OR DUP6 SSTORE SWAP5 MLOAD SWAP4 DUP4 ADD SWAP4 SWAP1 SWAP4 SSTORE DUP1 SLOAD SWAP2 DUP3 ADD DUP2 SSTORE SWAP1 SWAP2 MSTORE PUSH32 0x8A35ACFBC15FF81A39AE7D344FD709F28E8600B4AA8C65C6B64BFE7FE36BD19B ADD DUP1 SLOAD PUSH1 0x1 PUSH1 0x1 PUSH1 0xA0 SHL SUB NOT AND SWAP1 SWAP2 OR SWAP1 SSTORE PUSH2 0x1B11 DUP5 DUP5 DUP5 DUP5 PUSH2 0x3AB0 JUMP JUMPDEST POP POP POP POP JUMP JUMPDEST PUSH1 0x0 DUP1 PUSH2 0x1B22 PUSH2 0x3124 JUMP JUMPDEST PUSH2 0x1B2A PUSH2 0x3160 JUMP JUMPDEST PUSH2 0x1B32 PUSH2 0x35AD JUMP JUMPDEST PUSH2 0x1B3A PUSH2 0x4844 JUMP JUMPDEST PUSH2 0x1B47 DUP9 DUP9 DUP9 DUP9 DUP9 PUSH2 0x110F JUMP JUMPDEST DUP2 MLOAD PUSH1 0x1 PUSH1 0x1 PUSH1 0xA0 SHL SUB DUP12 AND PUSH1 0x0 SWAP1 DUP2 MSTORE PUSH1 0x5 PUSH1 0x20 MSTORE PUSH1 0x40 DUP2 KECCAK256 PUSH1 0x1 ADD DUP1 SLOAD SWAP4 SWAP7 POP SWAP4 SWAP5 POP SWAP1 SWAP3 SWAP2 PUSH2 0x1B7A SWAP1 DUP5 SWAP1 PUSH2 0x4EE1 JUMP JUMPDEST SWAP1 SWAP2 SSTORE POP POP PUSH1 0x1 PUSH1 0x1 PUSH1 0xA0 SHL SUB DUP7 AND PUSH1 0x0 SWAP1 DUP2 MSTORE PUSH1 0x5 PUSH1 0x20 MSTORE PUSH1 0x40 DUP2 KECCAK256 PUSH1 0x1 ADD DUP1 SLOAD DUP8 SWAP3 SWAP1 PUSH2 0x1BAA SWAP1 DUP5 SWAP1 PUSH2 0x4DDD JUMP JUMPDEST SWAP3 POP POP DUP2 SWAP1 SSTORE POP DUP6 PUSH1 0x1 PUSH1 0x1 PUSH1 0xA0 SHL SUB AND DUP9 PUSH1 0x1 PUSH1 0x1 PUSH1 0xA0 SHL SUB AND CALLER PUSH1 0x1 PUSH1 0x1 PUSH1 0xA0 SHL SUB AND PUSH1 0x0 DUP1 MLOAD PUSH1 0x20 PUSH2 0x546C DUP4 CODECOPY DUP2 MLOAD SWAP2 MSTORE DUP5 PUSH1 0x0 ADD MLOAD DUP10 DUP7 PUSH1 0x20 ADD MLOAD PUSH1 0x40 MLOAD PUSH2 0x1BF8 SWAP4 SWAP3 SWAP2 SWAP1 PUSH2 0x505A JUMP JUMPDEST PUSH1 0x40 MLOAD DUP1 SWAP2 SUB SWAP1 LOG4 PUSH2 0x1C0F DUP9 CALLER DUP4 PUSH1 0x0 ADD MLOAD PUSH2 0x3A9B JUMP JUMPDEST PUSH2 0x1C1A DUP7 CALLER DUP8 PUSH2 0x38F7 JUMP JUMPDEST MLOAD SWAP2 POP PUSH2 0x1415 PUSH2 0x31A6 JUMP JUMPDEST PUSH2 0x1C2D PUSH2 0x3124 JUMP JUMPDEST PUSH2 0x1C35 PUSH2 0x3160 JUMP JUMPDEST PUSH1 0x1 PUSH1 0x1 PUSH1 0xA0 SHL SUB DUP2 AND PUSH1 0x0 SWAP1 DUP2 MSTORE PUSH1 0x5 PUSH1 0x20 MSTORE PUSH1 0x40 SWAP1 KECCAK256 SLOAD PUSH1 0xFF AND PUSH2 0x1C6D JUMPI PUSH1 0x40 MLOAD PUSH3 0x461BCD PUSH1 0xE5 SHL DUP2 MSTORE PUSH1 0x4 ADD PUSH2 0x6CE SWAP1 PUSH2 0x4D93 JUMP JUMPDEST PUSH1 0x40 MLOAD PUSH4 0x70A08231 PUSH1 0xE0 SHL DUP2 MSTORE PUSH1 0x1 PUSH1 0x1 PUSH1 0xA0 SHL SUB DUP3 AND SWAP1 PUSH4 0x70A08231 SWAP1 PUSH2 0x1C99 SWAP1 ADDRESS SWAP1 PUSH1 0x4 ADD PUSH2 0x4AD6 JUMP JUMPDEST PUSH1 0x20 PUSH1 0x40 MLOAD DUP1 DUP4 SUB DUP2 DUP7 GAS STATICCALL ISZERO DUP1 ISZERO PUSH2 0x1CB6 JUMPI RETURNDATASIZE PUSH1 0x0 DUP1 RETURNDATACOPY RETURNDATASIZE PUSH1 0x0 REVERT JUMPDEST POP POP POP POP PUSH1 0x40 MLOAD RETURNDATASIZE PUSH1 0x1F NOT PUSH1 0x1F DUP3 ADD AND DUP3 ADD DUP1 PUSH1 0x40 MSTORE POP DUP2 ADD SWAP1 PUSH2 0x1CDA SWAP2 SWAP1 PUSH2 0x4DAE JUMP JUMPDEST PUSH1 0x1 PUSH1 0x1 PUSH1 0xA0 SHL SUB DUP3 AND PUSH1 0x0 SWAP1 DUP2 MSTORE PUSH1 0x5 PUSH1 0x20 MSTORE PUSH1 0x40 SWAP1 KECCAK256 PUSH1 0x1 ADD SSTORE PUSH2 0xB85 PUSH2 0x31A6 JUMP JUMPDEST PUSH2 0x1D06 PUSH2 0x3124 JUMP JUMPDEST PUSH2 0x1D0E PUSH2 0x3160 JUMP JUMPDEST PUSH1 0x6 SLOAD PUSH1 0x1 PUSH1 0x60 SHL SWAP1 DIV PUSH1 0x1 PUSH1 0x1 PUSH1 0xA0 SHL SUB AND CALLER EQ PUSH2 0x1D3F JUMPI PUSH1 0x40 MLOAD PUSH3 0x461BCD PUSH1 0xE5 SHL DUP2 MSTORE PUSH1 0x4 ADD PUSH2 0x6CE SWAP1 PUSH2 0x4E0F JUMP JUMPDEST PUSH1 0x1 PUSH1 0x1 PUSH1 0xA0 SHL SUB DUP2 AND PUSH2 0x1D7A JUMPI PUSH1 0x40 MLOAD PUSH3 0x461BCD PUSH1 0xE5 SHL DUP2 MSTORE PUSH1 0x20 PUSH1 0x4 DUP3 ADD MSTORE PUSH1 0x2 PUSH1 0x24 DUP3 ADD MSTORE PUSH2 0x3133 PUSH1 0xF0 SHL PUSH1 0x44 DUP3 ADD MSTORE PUSH1 0x64 ADD PUSH2 0x6CE JUMP JUMPDEST PUSH1 0x6 DUP1 SLOAD PUSH1 0x1 PUSH1 0x1 PUSH1 0x60 SHL SUB AND PUSH1 0x1 PUSH1 0x60 SHL PUSH1 0x1 PUSH1 0x1 PUSH1 0xA0 SHL SUB DUP5 AND MUL OR SWAP1 SSTORE PUSH2 0xB85 PUSH2 0x31A6 JUMP JUMPDEST PUSH1 0x1 PUSH1 0x1 PUSH1 0xA0 SHL SUB DUP2 AND PUSH1 0x0 SWAP1 DUP2 MSTORE PUSH1 0x5 PUSH1 0x20 MSTORE PUSH1 0x40 DUP2 KECCAK256 SLOAD PUSH1 0xFF AND PUSH2 0x1DDA JUMPI PUSH1 0x40 MLOAD PUSH3 0x461BCD PUSH1 0xE5 SHL DUP2 MSTORE PUSH1 0x4 ADD PUSH2 0x6CE SWAP1 PUSH2 0x4D93 JUMP JUMPDEST POP PUSH1 0x1 PUSH1 0x1 PUSH1 0xA0 SHL SUB AND PUSH1 0x0 SWAP1 DUP2 MSTORE PUSH1 0x5 PUSH1 0x20 MSTORE PUSH1 0x40 SWAP1 KECCAK256 SLOAD PUSH3 0x10000 SWAP1 DIV PUSH1 0x1 PUSH1 0x1 PUSH1 0x50 SHL SUB AND SWAP1 JUMP JUMPDEST PUSH1 0x0 PUSH2 0x1E0F PUSH2 0x3124 JUMP JUMPDEST PUSH2 0x1E17 PUSH2 0x3160 JUMP JUMPDEST PUSH2 0x1E1F PUSH2 0x35AD JUMP JUMPDEST PUSH1 0x7 SLOAD PUSH1 0xFF AND PUSH2 0x1E41 JUMPI PUSH1 0x40 MLOAD PUSH3 0x461BCD PUSH1 0xE5 SHL DUP2 MSTORE PUSH1 0x4 ADD PUSH2 0x6CE SWAP1 PUSH2 0x4F30 JUMP JUMPDEST PUSH1 0x1 PUSH1 0x1 PUSH1 0xA0 SHL SUB DUP5 AND PUSH1 0x0 SWAP1 DUP2 MSTORE PUSH1 0x5 PUSH1 0x20 MSTORE PUSH1 0x40 SWAP1 KECCAK256 SLOAD PUSH1 0xFF AND PUSH2 0x1E79 JUMPI PUSH1 0x40 MLOAD PUSH3 0x461BCD PUSH1 0xE5 SHL DUP2 MSTORE PUSH1 0x4 ADD PUSH2 0x6CE SWAP1 PUSH2 0x4D93 JUMP JUMPDEST PUSH2 0x1E81 PUSH2 0x485E JUMP JUMPDEST PUSH1 0x60 PUSH2 0x1E8C DUP7 PUSH2 0x361A JUMP JUMPDEST PUSH1 0x40 DUP1 MLOAD PUSH1 0x60 DUP2 ADD DUP3 MSTORE DUP9 DUP2 MSTORE PUSH1 0x8 SLOAD PUSH1 0x20 DUP3 ADD MSTORE SWAP3 SWAP5 POP SWAP1 SWAP3 POP PUSH1 0x0 SWAP2 SWAP1 DUP2 ADD PUSH2 0x3E8 PUSH2 0x1EC3 PUSH8 0xDE0B6B3A7640000 PUSH1 0x3 PUSH2 0x4E2A JUMP JUMPDEST PUSH2 0x1ECD SWAP2 SWAP1 PUSH2 0x4E49 JUMP JUMPDEST SWAP1 MSTORE PUSH1 0x40 DUP1 MLOAD DUP1 DUP3 ADD DUP3 MSTORE PUSH1 0x7 SLOAD PUSH3 0x10000 DUP2 DIV PUSH1 0x1 PUSH1 0x1 PUSH1 0x40 SHL SUB AND DUP3 MSTORE PUSH1 0xA SLOAD PUSH1 0x20 DUP1 DUP5 ADD SWAP2 SWAP1 SWAP2 MSTORE DUP4 MLOAD PUSH1 0x60 DUP2 ADD DUP6 MSTORE PUSH2 0x100 SWAP1 SWAP3 DIV PUSH1 0xFF AND DUP3 MSTORE PUSH1 0xB SLOAD SWAP1 DUP3 ADD MSTORE TIMESTAMP DUP2 DUP5 ADD MSTORE PUSH1 0x3 SLOAD SWAP3 MLOAD PUSH4 0xC534D8F PUSH1 0xE1 SHL DUP2 MSTORE SWAP4 SWAP5 POP SWAP1 SWAP3 SWAP1 SWAP2 PUSH20 0x0 SWAP2 PUSH4 0x18A69B1E SWAP2 PUSH2 0x1F5F SWAP2 DUP10 SWAP1 DUP10 SWAP1 DUP10 SWAP1 DUP10 SWAP1 DUP10 SWAP1 PUSH1 0x4 ADD PUSH2 0x4FCE JUMP JUMPDEST PUSH1 0x20 PUSH1 0x40 MLOAD DUP1 DUP4 SUB DUP2 DUP7 GAS DELEGATECALL ISZERO DUP1 ISZERO PUSH2 0x1F7C JUMPI RETURNDATASIZE PUSH1 0x0 DUP1 RETURNDATACOPY RETURNDATASIZE PUSH1 0x0 REVERT JUMPDEST POP POP POP POP PUSH1 0x40 MLOAD RETURNDATASIZE PUSH1 0x1F NOT PUSH1 0x1F DUP3 ADD AND DUP3 ADD DUP1 PUSH1 0x40 MSTORE POP DUP2 ADD SWAP1 PUSH2 0x1FA0 SWAP2 SWAP1 PUSH2 0x4DAE JUMP JUMPDEST SWAP6 POP POP POP POP DUP4 DUP4 LT ISZERO PUSH2 0x1FC5 JUMPI PUSH1 0x40 MLOAD PUSH3 0x461BCD PUSH1 0xE5 SHL DUP2 MSTORE PUSH1 0x4 ADD PUSH2 0x6CE SWAP1 PUSH2 0x5070 JUMP JUMPDEST DUP2 MLOAD DUP1 MLOAD DUP5 SWAP2 SWAP1 PUSH2 0x1FD7 SWAP1 DUP4 SWAP1 PUSH2 0x4DDD JUMP JUMPDEST SWAP1 MSTORE POP PUSH2 0x1FE4 DUP3 DUP3 PUSH2 0x373F JUMP JUMPDEST DUP2 MLOAD MLOAD PUSH1 0x1 PUSH1 0x1 PUSH1 0xA0 SHL SUB DUP8 AND PUSH1 0x0 SWAP1 DUP2 MSTORE PUSH1 0x5 PUSH1 0x20 MSTORE PUSH1 0x40 DUP2 KECCAK256 PUSH1 0x1 ADD SWAP2 SWAP1 SWAP2 SSTORE PUSH2 0x2010 DUP7 DUP3 PUSH2 0x38A0 JUMP JUMPDEST SWAP1 POP DUP7 PUSH1 0x1 PUSH1 0x1 PUSH1 0xA0 SHL SUB AND CALLER PUSH1 0x1 PUSH1 0x1 PUSH1 0xA0 SHL SUB AND PUSH1 0x0 DUP1 MLOAD PUSH1 0x20 PUSH2 0x542C DUP4 CODECOPY DUP2 MLOAD SWAP2 MSTORE DUP7 PUSH1 0x40 MLOAD PUSH2 0x2045 SWAP2 DUP2 MSTORE PUSH1 0x20 ADD SWAP1 JUMP JUMPDEST PUSH1 0x40 MLOAD DUP1 SWAP2 SUB SWAP1 LOG3 PUSH2 0x2057 CALLER DUP8 PUSH2 0x38E4 JUMP JUMPDEST PUSH2 0x2064 PUSH2 0x169F DUP3 DUP9 PUSH2 0x4DDD JUMP JUMPDEST PUSH2 0x208E PUSH32 0x0 DUP3 PUSH2 0x31BB JUMP JUMPDEST PUSH2 0x16D9 DUP8 CALLER DUP7 PUSH2 0x38F7 JUMP JUMPDEST PUSH1 0x0 PUSH2 0x20A6 CALLER DUP5 DUP5 PUSH2 0x2FFA JUMP JUMPDEST POP PUSH1 0x1 SWAP3 SWAP2 POP POP JUMP JUMPDEST PUSH1 0x60 PUSH1 0x4 DUP1 SLOAD DUP1 PUSH1 0x20 MUL PUSH1 0x20 ADD PUSH1 0x40 MLOAD SWAP1 DUP2 ADD PUSH1 0x40 MSTORE DUP1 SWAP3 SWAP2 SWAP1 DUP2 DUP2 MSTORE PUSH1 0x20 ADD DUP3 DUP1 SLOAD DUP1 ISZERO PUSH2 0x2107 JUMPI PUSH1 0x20 MUL DUP3 ADD SWAP2 SWAP1 PUSH1 0x0 MSTORE PUSH1 0x20 PUSH1 0x0 KECCAK256 SWAP1 JUMPDEST DUP2 SLOAD PUSH1 0x1 PUSH1 0x1 PUSH1 0xA0 SHL SUB AND DUP2 MSTORE PUSH1 0x1 SWAP1 SWAP2 ADD SWAP1 PUSH1 0x20 ADD DUP1 DUP4 GT PUSH2 0x20E9 JUMPI JUMPDEST POP POP POP POP POP SWAP1 POP SWAP1 JUMP JUMPDEST PUSH1 0x6 SLOAD PUSH1 0x1 PUSH1 0x60 SHL SWAP1 DIV PUSH1 0x1 PUSH1 0x1 PUSH1 0xA0 SHL SUB AND CALLER EQ PUSH2 0x2142 JUMPI PUSH1 0x40 MLOAD PUSH3 0x461BCD PUSH1 0xE5 SHL DUP2 MSTORE PUSH1 0x4 ADD PUSH2 0x6CE SWAP1 PUSH2 0x4E0F JUMP JUMPDEST PUSH1 0x1 PUSH1 0x1 PUSH1 0xA0 SHL SUB DUP5 AND PUSH1 0x0 SWAP1 DUP2 MSTORE PUSH1 0x5 PUSH1 0x20 MSTORE PUSH1 0x40 SWAP1 KECCAK256 SLOAD PUSH1 0xFF AND PUSH2 0x217A JUMPI PUSH1 0x40 MLOAD PUSH3 0x461BCD PUSH1 0xE5 SHL DUP2 MSTORE PUSH1 0x4 ADD PUSH2 0x6CE SWAP1 PUSH2 0x4D93 JUMP JUMPDEST PUSH1 0x7 SLOAD PUSH1 0xFF AND ISZERO PUSH2 0x219D JUMPI PUSH1 0x40 MLOAD PUSH3 0x461BCD PUSH1 0xE5 SHL DUP2 MSTORE PUSH1 0x4 ADD PUSH2 0x6CE SWAP1 PUSH2 0x4DF4 JUMP JUMPDEST PUSH2 0x1B11 DUP5 DUP5 DUP5 DUP5 PUSH2 0x3AB0 JUMP JUMPDEST PUSH2 0x21B1 PUSH2 0x3124 JUMP JUMPDEST PUSH2 0x21B9 PUSH2 0x3160 JUMP JUMPDEST PUSH1 0x7 SLOAD PUSH1 0xFF AND PUSH2 0x21DB JUMPI PUSH1 0x40 MLOAD PUSH3 0x461BCD PUSH1 0xE5 SHL DUP2 MSTORE PUSH1 0x4 ADD PUSH2 0x6CE SWAP1 PUSH2 0x4F30 JUMP JUMPDEST PUSH1 0x0 PUSH2 0x21E6 PUSH1 0x3 SLOAD SWAP1 JUMP JUMPDEST SWAP1 POP PUSH1 0x0 PUSH2 0x21F5 DUP6 PUSH1 0x0 PUSH2 0x38A0 JUMP JUMPDEST SWAP1 POP PUSH1 0x0 PUSH2 0x2203 DUP3 DUP8 PUSH2 0x4DDD JUMP JUMPDEST SWAP1 POP PUSH1 0x0 PUSH2 0x2211 DUP3 DUP6 PUSH2 0x3487 JUMP JUMPDEST SWAP1 POP DUP1 PUSH2 0x2230 JUMPI PUSH1 0x40 MLOAD PUSH3 0x461BCD PUSH1 0xE5 SHL DUP2 MSTORE PUSH1 0x4 ADD PUSH2 0x6CE SWAP1 PUSH2 0x4EF9 JUMP JUMPDEST PUSH2 0x223A CALLER DUP9 PUSH2 0x38E4 JUMP JUMPDEST PUSH2 0x2264 PUSH32 0x0 DUP5 PUSH2 0x31BB JUMP JUMPDEST PUSH2 0x226D DUP3 PUSH2 0x38EE JUMP JUMPDEST PUSH1 0x0 JUMPDEST PUSH1 0x4 SLOAD DUP2 LT ISZERO PUSH2 0x23A5 JUMPI PUSH1 0x0 PUSH1 0x4 DUP3 DUP2 SLOAD DUP2 LT PUSH2 0x228F JUMPI PUSH2 0x228F PUSH2 0x508B JUMP JUMPDEST PUSH1 0x0 SWAP2 DUP3 MSTORE PUSH1 0x20 DUP1 DUP4 KECCAK256 SWAP1 SWAP2 ADD SLOAD PUSH1 0x1 PUSH1 0x1 PUSH1 0xA0 SHL SUB AND DUP1 DUP4 MSTORE PUSH1 0x5 SWAP1 SWAP2 MSTORE PUSH1 0x40 DUP3 KECCAK256 PUSH1 0x1 ADD SLOAD SWAP1 SWAP3 POP SWAP1 PUSH2 0x22C4 DUP6 DUP4 PUSH2 0x38A0 JUMP JUMPDEST SWAP1 POP DUP1 PUSH2 0x22E3 JUMPI PUSH1 0x40 MLOAD PUSH3 0x461BCD PUSH1 0xE5 SHL DUP2 MSTORE PUSH1 0x4 ADD PUSH2 0x6CE SWAP1 PUSH2 0x4EF9 JUMP JUMPDEST DUP10 DUP10 DUP6 DUP2 DUP2 LT PUSH2 0x22F5 JUMPI PUSH2 0x22F5 PUSH2 0x508B JUMP JUMPDEST SWAP1 POP PUSH1 0x20 MUL ADD CALLDATALOAD DUP2 LT ISZERO PUSH2 0x231B JUMPI PUSH1 0x40 MLOAD PUSH3 0x461BCD PUSH1 0xE5 SHL DUP2 MSTORE PUSH1 0x4 ADD PUSH2 0x6CE SWAP1 PUSH2 0x5070 JUMP JUMPDEST PUSH1 0x1 PUSH1 0x1 PUSH1 0xA0 SHL SUB DUP4 AND PUSH1 0x0 SWAP1 DUP2 MSTORE PUSH1 0x5 PUSH1 0x20 MSTORE PUSH1 0x40 SWAP1 KECCAK256 PUSH1 0x1 ADD SLOAD PUSH2 0x2342 SWAP1 DUP3 SWAP1 PUSH2 0x4DDD JUMP JUMPDEST PUSH1 0x1 PUSH1 0x1 PUSH1 0xA0 SHL SUB DUP5 AND PUSH1 0x0 DUP2 DUP2 MSTORE PUSH1 0x5 PUSH1 0x20 MSTORE PUSH1 0x40 SWAP1 DUP2 SWAP1 KECCAK256 PUSH1 0x1 ADD SWAP3 SWAP1 SWAP3 SSTORE SWAP1 MLOAD CALLER SWAP1 PUSH1 0x0 DUP1 MLOAD PUSH1 0x20 PUSH2 0x542C DUP4 CODECOPY DUP2 MLOAD SWAP2 MSTORE SWAP1 PUSH2 0x2384 SWAP1 DUP6 DUP2 MSTORE PUSH1 0x20 ADD SWAP1 JUMP JUMPDEST PUSH1 0x40 MLOAD DUP1 SWAP2 SUB SWAP1 LOG3 PUSH2 0x2397 DUP4 CALLER DUP4 PUSH2 0x38F7 JUMP JUMPDEST DUP4 PUSH1 0x1 ADD SWAP4 POP POP POP POP PUSH2 0x2270 JUMP JUMPDEST POP POP POP POP POP PUSH2 0xF8D PUSH2 0x31A6 JUMP JUMPDEST PUSH1 0x0 PUSH2 0x23BC PUSH2 0x3124 JUMP JUMPDEST PUSH2 0x23C4 PUSH2 0x3160 JUMP JUMPDEST PUSH2 0x23CC PUSH2 0x35AD JUMP JUMPDEST PUSH1 0x7 SLOAD PUSH1 0xFF AND PUSH2 0x23EE JUMPI PUSH1 0x40 MLOAD PUSH3 0x461BCD PUSH1 0xE5 SHL DUP2 MSTORE PUSH1 0x4 ADD PUSH2 0x6CE SWAP1 PUSH2 0x4F30 JUMP JUMPDEST PUSH1 0x1 PUSH1 0x1 PUSH1 0xA0 SHL SUB DUP5 AND PUSH1 0x0 SWAP1 DUP2 MSTORE PUSH1 0x5 PUSH1 0x20 MSTORE PUSH1 0x40 SWAP1 KECCAK256 SLOAD PUSH1 0xFF AND PUSH2 0x2426 JUMPI PUSH1 0x40 MLOAD PUSH3 0x461BCD PUSH1 0xE5 SHL DUP2 MSTORE PUSH1 0x4 ADD PUSH2 0x6CE SWAP1 PUSH2 0x4D93 JUMP JUMPDEST PUSH2 0x242E PUSH2 0x485E JUMP JUMPDEST PUSH1 0x60 PUSH2 0x2439 DUP7 PUSH2 0x361A JUMP JUMPDEST PUSH1 0x40 DUP1 MLOAD PUSH1 0x60 DUP2 ADD DUP3 MSTORE DUP9 DUP2 MSTORE PUSH1 0x8 SLOAD PUSH1 0x20 DUP3 ADD MSTORE SWAP3 SWAP5 POP SWAP1 SWAP3 POP PUSH1 0x0 SWAP2 SWAP1 DUP2 ADD PUSH2 0x3E8 PUSH2 0x2470 PUSH8 0xDE0B6B3A7640000 PUSH1 0x3 PUSH2 0x4E2A JUMP JUMPDEST PUSH2 0x247A SWAP2 SWAP1 PUSH2 0x4E49 JUMP JUMPDEST SWAP1 MSTORE PUSH1 0x40 DUP1 MLOAD DUP1 DUP3 ADD DUP3 MSTORE PUSH1 0x7 SLOAD PUSH3 0x10000 DUP2 DIV PUSH1 0x1 PUSH1 0x1 PUSH1 0x40 SHL SUB AND DUP3 MSTORE PUSH1 0xA SLOAD PUSH1 0x20 DUP1 DUP5 ADD SWAP2 SWAP1 SWAP2 MSTORE DUP4 MLOAD PUSH1 0x60 DUP2 ADD DUP6 MSTORE PUSH2 0x100 SWAP1 SWAP3 DIV PUSH1 0xFF AND DUP3 MSTORE PUSH1 0xB SLOAD SWAP1 DUP3 ADD MSTORE TIMESTAMP DUP2 DUP5 ADD MSTORE PUSH1 0x3 SLOAD SWAP3 MLOAD PUSH4 0x7E0ACF6D PUSH1 0xE1 SHL DUP2 MSTORE SWAP4 SWAP5 POP SWAP1 SWAP3 SWAP1 SWAP2 PUSH20 0x0 SWAP2 PUSH4 0xFC159EDA SWAP2 PUSH2 0x250C SWAP2 DUP10 SWAP1 DUP10 SWAP1 DUP10 SWAP1 DUP10 SWAP1 DUP10 SWAP1 PUSH1 0x4 ADD PUSH2 0x4FCE JUMP JUMPDEST PUSH1 0x20 PUSH1 0x40 MLOAD DUP1 DUP4 SUB DUP2 DUP7 GAS DELEGATECALL ISZERO DUP1 ISZERO PUSH2 0x2529 JUMPI RETURNDATASIZE PUSH1 0x0 DUP1 RETURNDATACOPY RETURNDATASIZE PUSH1 0x0 REVERT JUMPDEST POP POP POP POP PUSH1 0x40 MLOAD RETURNDATASIZE PUSH1 0x1F NOT PUSH1 0x1F DUP3 ADD AND DUP3 ADD DUP1 PUSH1 0x40 MSTORE POP DUP2 ADD SWAP1 PUSH2 0x254D SWAP2 SWAP1 PUSH2 0x4DAE JUMP JUMPDEST SWAP6 POP POP POP POP DUP4 DUP4 LT ISZERO PUSH2 0x2572 JUMPI PUSH1 0x40 MLOAD PUSH3 0x461BCD PUSH1 0xE5 SHL DUP2 MSTORE PUSH1 0x4 ADD PUSH2 0x6CE SWAP1 PUSH2 0x5070 JUMP JUMPDEST DUP2 MLOAD DUP1 MLOAD DUP7 SWAP2 SWAP1 PUSH2 0x2584 SWAP1 DUP4 SWAP1 PUSH2 0x4EE1 JUMP JUMPDEST SWAP1 MSTORE POP PUSH2 0x2591 DUP3 DUP3 PUSH2 0x390B JUMP JUMPDEST DUP2 MLOAD MLOAD PUSH1 0x1 PUSH1 0x1 PUSH1 0xA0 SHL SUB DUP8 AND PUSH1 0x0 DUP2 DUP2 MSTORE PUSH1 0x5 PUSH1 0x20 MSTORE PUSH1 0x40 SWAP1 DUP2 SWAP1 KECCAK256 PUSH1 0x1 ADD SWAP3 SWAP1 SWAP3 SSTORE SWAP1 MLOAD CALLER SWAP1 PUSH1 0x0 DUP1 MLOAD PUSH1 0x20 PUSH2 0x53EC DUP4 CODECOPY DUP2 MLOAD SWAP2 MSTORE SWAP1 PUSH2 0x25D6 SWAP1 DUP10 DUP2 MSTORE PUSH1 0x20 ADD SWAP1 JUMP JUMPDEST PUSH1 0x40 MLOAD DUP1 SWAP2 SUB SWAP1 LOG3 PUSH2 0x25E7 DUP4 PUSH2 0x31B2 JUMP JUMPDEST PUSH2 0x25F1 CALLER DUP5 PUSH2 0x3A73 JUMP JUMPDEST PUSH2 0x194F DUP7 CALLER DUP8 PUSH2 0x3A9B JUMP JUMPDEST PUSH2 0x2604 PUSH2 0x4844 JUMP JUMPDEST PUSH1 0x1 PUSH1 0x1 PUSH1 0xA0 SHL SUB DUP7 AND PUSH1 0x0 SWAP1 DUP2 MSTORE PUSH1 0x5 PUSH1 0x20 MSTORE PUSH1 0x40 DUP2 KECCAK256 SLOAD PUSH1 0xFF AND DUP1 ISZERO PUSH2 0x2644 JUMPI POP PUSH1 0x1 PUSH1 0x1 PUSH1 0xA0 SHL SUB DUP6 AND PUSH1 0x0 SWAP1 DUP2 MSTORE PUSH1 0x5 PUSH1 0x20 MSTORE PUSH1 0x40 SWAP1 KECCAK256 SLOAD PUSH1 0xFF AND JUMPDEST PUSH2 0x2660 JUMPI PUSH1 0x40 MLOAD PUSH3 0x461BCD PUSH1 0xE5 SHL DUP2 MSTORE PUSH1 0x4 ADD PUSH2 0x6CE SWAP1 PUSH2 0x4D93 JUMP JUMPDEST PUSH1 0x6 SLOAD PUSH2 0x100 SWAP1 DIV PUSH1 0xFF AND PUSH2 0x2687 JUMPI PUSH1 0x40 MLOAD PUSH3 0x461BCD PUSH1 0xE5 SHL DUP2 MSTORE PUSH1 0x4 ADD PUSH2 0x6CE SWAP1 PUSH2 0x4E6B JUMP JUMPDEST PUSH1 0x0 PUSH2 0x2692 DUP9 PUSH2 0x31C9 JUMP JUMPDEST SWAP1 POP PUSH1 0x0 PUSH2 0x269F DUP8 PUSH2 0x31C9 JUMP JUMPDEST DUP3 MLOAD DUP1 MLOAD PUSH1 0x20 SWAP2 DUP3 ADD MLOAD DUP4 MLOAD DUP1 MLOAD SWAP4 ADD MLOAD PUSH1 0x8 SLOAD PUSH1 0x40 MLOAD PUSH4 0xA221EE49 PUSH1 0xE0 SHL DUP2 MSTORE SWAP6 SWAP7 POP PUSH1 0x0 SWAP6 PUSH20 0x0 SWAP6 PUSH4 0xA221EE49 SWAP6 PUSH2 0x26F7 SWAP6 SWAP1 SWAP5 SWAP1 SWAP4 SWAP2 SWAP3 SWAP1 SWAP2 SWAP1 PUSH1 0x4 ADD PUSH2 0x4E87 JUMP JUMPDEST PUSH1 0x20 PUSH1 0x40 MLOAD DUP1 DUP4 SUB DUP2 DUP7 GAS DELEGATECALL ISZERO DUP1 ISZERO PUSH2 0x2714 JUMPI RETURNDATASIZE PUSH1 0x0 DUP1 RETURNDATACOPY RETURNDATASIZE PUSH1 0x0 REVERT JUMPDEST POP POP POP POP PUSH1 0x40 MLOAD RETURNDATASIZE PUSH1 0x1F NOT PUSH1 0x1F DUP3 ADD AND DUP3 ADD DUP1 PUSH1 0x40 MSTORE POP DUP2 ADD SWAP1 PUSH2 0x2738 SWAP2 SWAP1 PUSH2 0x4DAE JUMP JUMPDEST SWAP1 POP DUP6 DUP2 GT ISZERO PUSH2 0x275A JUMPI PUSH1 0x40 MLOAD PUSH3 0x461BCD PUSH1 0xE5 SHL DUP2 MSTORE PUSH1 0x4 ADD PUSH2 0x6CE SWAP1 PUSH2 0x4EAA JUMP JUMPDEST PUSH2 0x2766 DUP4 DUP4 DUP12 TIMESTAMP PUSH2 0x3E60 JUMP JUMPDEST SWAP5 POP DUP7 DUP6 PUSH1 0x0 ADD MLOAD LT ISZERO PUSH2 0x278C JUMPI PUSH1 0x40 MLOAD PUSH3 0x461BCD PUSH1 0xE5 SHL DUP2 MSTORE PUSH1 0x4 ADD PUSH2 0x6CE SWAP1 PUSH2 0x5070 JUMP JUMPDEST DUP3 MLOAD MLOAD PUSH20 0x0 SWAP1 PUSH4 0xA221EE49 SWAP1 PUSH2 0x27B6 SWAP1 DUP13 SWAP1 PUSH2 0x4EE1 JUMP JUMPDEST DUP6 MLOAD PUSH1 0x20 ADD MLOAD DUP9 MLOAD DUP7 MLOAD MLOAD PUSH2 0x27CB SWAP2 SWAP1 PUSH2 0x4DDD JUMP JUMPDEST DUP7 MLOAD PUSH1 0x20 ADD MLOAD PUSH1 0x8 SLOAD PUSH1 0x40 MLOAD PUSH1 0x1 PUSH1 0x1 PUSH1 0xE0 SHL SUB NOT PUSH1 0xE0 DUP9 SWAP1 SHL AND DUP2 MSTORE PUSH2 0x27F9 SWAP6 SWAP5 SWAP4 SWAP3 SWAP2 SWAP1 PUSH1 0x4 ADD PUSH2 0x4E87 JUMP JUMPDEST PUSH1 0x20 PUSH1 0x40 MLOAD DUP1 DUP4 SUB DUP2 DUP7 GAS DELEGATECALL ISZERO DUP1 ISZERO PUSH2 0x2816 JUMPI RETURNDATASIZE PUSH1 0x0 DUP1 RETURNDATACOPY RETURNDATASIZE PUSH1 0x0 REVERT JUMPDEST POP POP POP POP PUSH1 0x40 MLOAD RETURNDATASIZE PUSH1 0x1F NOT PUSH1 0x1F DUP3 ADD AND DUP3 ADD DUP1 PUSH1 0x40 MSTORE POP DUP2 ADD SWAP1 PUSH2 0x283A SWAP2 SWAP1 PUSH2 0x4DAE JUMP JUMPDEST SWAP4 POP DUP1 DUP5 LT ISZERO PUSH2 0x285C JUMPI PUSH1 0x40 MLOAD PUSH3 0x461BCD PUSH1 0xE5 SHL DUP2 MSTORE PUSH1 0x4 ADD PUSH2 0x6CE SWAP1 PUSH2 0x4EF9 JUMP JUMPDEST PUSH2 0x137B DUP10 DUP7 PUSH1 0x0 ADD MLOAD PUSH2 0x3487 JUMP JUMPDEST PUSH2 0x2872 PUSH2 0x3124 JUMP JUMPDEST PUSH2 0x287A PUSH2 0x3160 JUMP JUMPDEST PUSH1 0x6 SLOAD PUSH1 0x1 PUSH1 0x60 SHL SWAP1 DIV PUSH1 0x1 PUSH1 0x1 PUSH1 0xA0 SHL SUB AND CALLER EQ PUSH2 0x28AB JUMPI PUSH1 0x40 MLOAD PUSH3 0x461BCD PUSH1 0xE5 SHL DUP2 MSTORE PUSH1 0x4 ADD PUSH2 0x6CE SWAP1 PUSH2 0x4E0F JUMP JUMPDEST PUSH1 0x1 PUSH1 0x1 PUSH1 0xA0 SHL SUB DUP2 AND PUSH1 0x0 SWAP1 DUP2 MSTORE PUSH1 0x5 PUSH1 0x20 MSTORE PUSH1 0x40 SWAP1 KECCAK256 SLOAD PUSH1 0xFF AND PUSH2 0x28E3 JUMPI PUSH1 0x40 MLOAD PUSH3 0x461BCD PUSH1 0xE5 SHL DUP2 MSTORE PUSH1 0x4 ADD PUSH2 0x6CE SWAP1 PUSH2 0x4D93 JUMP JUMPDEST PUSH1 0x7 SLOAD PUSH1 0xFF AND ISZERO PUSH2 0x2906 JUMPI PUSH1 0x40 MLOAD PUSH3 0x461BCD PUSH1 0xE5 SHL DUP2 MSTORE PUSH1 0x4 ADD PUSH2 0x6CE SWAP1 PUSH2 0x4DF4 JUMP JUMPDEST PUSH1 0x1 PUSH1 0x1 PUSH1 0xA0 SHL SUB DUP2 AND PUSH1 0x0 SWAP1 DUP2 MSTORE PUSH1 0x5 PUSH1 0x20 MSTORE PUSH1 0x40 DUP2 KECCAK256 PUSH1 0x1 ADD SLOAD SWAP1 PUSH2 0x292D DUP3 DUP3 PUSH2 0x38A0 JUMP JUMPDEST PUSH1 0x1 PUSH1 0x1 PUSH1 0xA0 SHL SUB DUP5 AND PUSH1 0x0 SWAP1 DUP2 MSTORE PUSH1 0x5 PUSH1 0x20 MSTORE PUSH1 0x40 SWAP1 KECCAK256 SLOAD PUSH1 0x6 SLOAD SWAP2 SWAP3 POP PUSH2 0x296C SWAP2 PUSH1 0x1 PUSH1 0x1 PUSH1 0x50 SHL SUB PUSH3 0x10000 SWAP3 DUP4 SWAP1 DIV DUP2 AND SWAP3 SWAP1 SWAP2 DIV AND PUSH2 0x50A1 JUMP JUMPDEST PUSH1 0x6 DUP1 SLOAD PUSH3 0x10000 PUSH1 0x1 PUSH1 0x60 SHL SUB NOT AND PUSH3 0x10000 PUSH1 0x1 PUSH1 0x1 PUSH1 0x50 SHL SUB SWAP4 SWAP1 SWAP4 AND SWAP3 SWAP1 SWAP3 MUL SWAP2 SWAP1 SWAP2 OR SWAP1 SSTORE PUSH1 0x1 PUSH1 0x1 PUSH1 0xA0 SHL SUB DUP4 AND PUSH1 0x0 SWAP1 DUP2 MSTORE PUSH1 0x5 PUSH1 0x20 MSTORE PUSH1 0x40 DUP2 KECCAK256 SLOAD PUSH1 0x4 SLOAD PUSH2 0x100 SWAP1 SWAP2 DIV PUSH1 0xFF AND SWAP2 SWAP1 PUSH2 0x29C9 SWAP1 PUSH1 0x1 SWAP1 PUSH2 0x4DDD JUMP JUMPDEST SWAP1 POP PUSH1 0x4 DUP2 DUP2 SLOAD DUP2 LT PUSH2 0x29DE JUMPI PUSH2 0x29DE PUSH2 0x508B JUMP JUMPDEST PUSH1 0x0 SWAP2 DUP3 MSTORE PUSH1 0x20 SWAP1 SWAP2 KECCAK256 ADD SLOAD PUSH1 0x4 DUP1 SLOAD PUSH1 0x1 PUSH1 0x1 PUSH1 0xA0 SHL SUB SWAP1 SWAP3 AND SWAP2 PUSH1 0xFF DUP6 AND SWAP1 DUP2 LT PUSH2 0x2A0D JUMPI PUSH2 0x2A0D PUSH2 0x508B JUMP JUMPDEST SWAP1 PUSH1 0x0 MSTORE PUSH1 0x20 PUSH1 0x0 KECCAK256 ADD PUSH1 0x0 PUSH2 0x100 EXP DUP2 SLOAD DUP2 PUSH1 0x1 PUSH1 0x1 PUSH1 0xA0 SHL SUB MUL NOT AND SWAP1 DUP4 PUSH1 0x1 PUSH1 0x1 PUSH1 0xA0 SHL SUB AND MUL OR SWAP1 SSTORE POP DUP2 PUSH1 0x5 PUSH1 0x0 PUSH1 0x4 DUP6 PUSH1 0xFF AND DUP2 SLOAD DUP2 LT PUSH2 0x2A56 JUMPI PUSH2 0x2A56 PUSH2 0x508B JUMP JUMPDEST PUSH1 0x0 SWAP2 DUP3 MSTORE PUSH1 0x20 DUP1 DUP4 KECCAK256 SWAP1 SWAP2 ADD SLOAD PUSH1 0x1 PUSH1 0x1 PUSH1 0xA0 SHL SUB AND DUP4 MSTORE DUP3 ADD SWAP3 SWAP1 SWAP3 MSTORE PUSH1 0x40 ADD SWAP1 KECCAK256 DUP1 SLOAD PUSH1 0xFF SWAP3 SWAP1 SWAP3 AND PUSH2 0x100 MUL PUSH2 0xFF00 NOT SWAP1 SWAP3 AND SWAP2 SWAP1 SWAP2 OR SWAP1 SSTORE PUSH1 0x4 DUP1 SLOAD DUP1 PUSH2 0x2AA4 JUMPI PUSH2 0x2AA4 PUSH2 0x50C9 JUMP JUMPDEST PUSH1 0x0 DUP3 DUP2 MSTORE PUSH1 0x20 DUP1 DUP3 KECCAK256 DUP4 ADD PUSH1 0x0 NOT SWAP1 DUP2 ADD DUP1 SLOAD PUSH1 0x1 PUSH1 0x1 PUSH1 0xA0 SHL SUB NOT SWAP1 DUP2 AND SWAP1 SWAP2 SSTORE SWAP4 ADD SWAP1 SWAP4 SSTORE PUSH1 0x1 PUSH1 0x1 PUSH1 0xA0 SHL SUB DUP9 AND DUP2 MSTORE PUSH1 0x5 DUP4 MSTORE PUSH1 0x40 DUP1 DUP3 KECCAK256 DUP1 SLOAD PUSH1 0x1 PUSH1 0x1 PUSH1 0x60 SHL SUB NOT AND DUP2 SSTORE PUSH1 0x1 SWAP1 DUP2 ADD DUP4 SWAP1 SSTORE PUSH1 0x9 SWAP1 SWAP5 MSTORE DUP2 KECCAK256 DUP1 SLOAD SWAP1 SWAP3 AND DUP3 SSTORE SWAP2 ADD SSTORE PUSH2 0x2B1C DUP6 CALLER PUSH2 0x2B17 DUP7 DUP9 PUSH2 0x4DDD JUMP JUMPDEST PUSH2 0x38F7 JUMP JUMPDEST PUSH2 0x2B47 DUP6 PUSH32 0x0 DUP6 PUSH2 0x38F7 JUMP JUMPDEST POP POP POP POP PUSH2 0xB85 PUSH2 0x31A6 JUMP JUMPDEST PUSH1 0x1 PUSH1 0x1 PUSH1 0xA0 SHL SUB DUP2 AND PUSH1 0x0 SWAP1 DUP2 MSTORE PUSH1 0x5 PUSH1 0x20 MSTORE PUSH1 0x40 DUP2 KECCAK256 SLOAD PUSH1 0xFF AND PUSH2 0x2B8B JUMPI PUSH1 0x40 MLOAD PUSH3 0x461BCD PUSH1 0xE5 SHL DUP2 MSTORE PUSH1 0x4 ADD PUSH2 0x6CE SWAP1 PUSH2 0x4D93 JUMP JUMPDEST POP PUSH1 0x1 PUSH1 0x1 PUSH1 0xA0 SHL SUB SWAP1 DUP2 AND PUSH1 0x0 SWAP1 DUP2 MSTORE PUSH1 0x9 PUSH1 0x20 MSTORE PUSH1 0x40 SWAP1 KECCAK256 SLOAD AND SWAP1 JUMP JUMPDEST PUSH1 0x0 DUP1 PUSH2 0x2BB5 PUSH2 0x3124 JUMP JUMPDEST PUSH2 0x2BBD PUSH2 0x3160 JUMP JUMPDEST PUSH2 0x2BC5 PUSH2 0x35AD JUMP JUMPDEST PUSH2 0x2BCD PUSH2 0x4844 JUMP JUMPDEST PUSH2 0x2BDA DUP9 DUP9 DUP9 DUP9 DUP9 PUSH2 0x25FC JUMP JUMPDEST PUSH1 0x1 PUSH1 0x1 PUSH1 0xA0 SHL SUB DUP11 AND PUSH1 0x0 SWAP1 DUP2 MSTORE PUSH1 0x5 PUSH1 0x20 MSTORE PUSH1 0x40 DUP2 KECCAK256 PUSH1 0x1 ADD DUP1 SLOAD SWAP3 SWAP6 POP SWAP3 SWAP4 POP DUP10 SWAP3 SWAP2 PUSH2 0x2C0B SWAP1 DUP5 SWAP1 PUSH2 0x4EE1 JUMP JUMPDEST SWAP1 SWAP2 SSTORE POP POP DUP1 MLOAD PUSH1 0x1 PUSH1 0x1 PUSH1 0xA0 SHL SUB DUP8 AND PUSH1 0x0 SWAP1 DUP2 MSTORE PUSH1 0x5 PUSH1 0x20 MSTORE PUSH1 0x40 DUP2 KECCAK256 PUSH1 0x1 ADD DUP1 SLOAD SWAP1 SWAP2 SWAP1 PUSH2 0x2C3D SWAP1 DUP5 SWAP1 PUSH2 0x4DDD JUMP JUMPDEST SWAP1 SWAP2 SSTORE POP POP DUP1 MLOAD PUSH1 0x20 DUP3 ADD MLOAD PUSH1 0x40 MLOAD PUSH1 0x1 PUSH1 0x1 PUSH1 0xA0 SHL SUB DUP1 DUP11 AND SWAP4 SWAP1 DUP13 AND SWAP3 CALLER SWAP3 PUSH1 0x0 DUP1 MLOAD PUSH1 0x20 PUSH2 0x546C DUP4 CODECOPY DUP2 MLOAD SWAP2 MSTORE SWAP3 PUSH2 0x2C79 SWAP3 DUP15 SWAP3 PUSH2 0x505A JUMP JUMPDEST PUSH1 0x40 MLOAD DUP1 SWAP2 SUB SWAP1 LOG4 PUSH2 0x2C8C DUP9 CALLER DUP10 PUSH2 0x3A9B JUMP JUMPDEST PUSH2 0x1C1A DUP7 CALLER DUP4 PUSH1 0x0 ADD MLOAD PUSH2 0x38F7 JUMP JUMPDEST CALLER PUSH1 0x0 SWAP1 DUP2 MSTORE PUSH1 0x2 PUSH1 0x20 SWAP1 DUP2 MSTORE PUSH1 0x40 DUP1 DUP4 KECCAK256 PUSH1 0x1 PUSH1 0x1 PUSH1 0xA0 SHL SUB DUP7 AND DUP5 MSTORE SWAP1 SWAP2 MSTORE DUP2 KECCAK256 SLOAD PUSH2 0x2CCA SWAP1 DUP4 SWAP1 PUSH2 0x4EE1 JUMP JUMPDEST CALLER PUSH1 0x0 DUP2 DUP2 MSTORE PUSH1 0x2 PUSH1 0x20 SWAP1 DUP2 MSTORE PUSH1 0x40 DUP1 DUP4 KECCAK256 PUSH1 0x1 PUSH1 0x1 PUSH1 0xA0 SHL SUB DUP10 AND DUP1 DUP6 MSTORE SWAP1 DUP4 MSTORE SWAP3 DUP2 SWAP1 KECCAK256 DUP6 SWAP1 SSTORE MLOAD SWAP4 DUP5 MSTORE SWAP1 SWAP3 PUSH1 0x0 DUP1 MLOAD PUSH1 0x20 PUSH2 0x544C DUP4 CODECOPY DUP2 MLOAD SWAP2 MSTORE SWAP2 ADD PUSH2 0x8AD JUMP JUMPDEST PUSH1 0x1 PUSH1 0x1 PUSH1 0xA0 SHL SUB DUP2 AND PUSH1 0x0 SWAP1 DUP2 MSTORE PUSH1 0x5 PUSH1 0x20 MSTORE PUSH1 0x40 DUP2 KECCAK256 SLOAD PUSH1 0xFF AND PUSH2 0x2D47 JUMPI PUSH1 0x40 MLOAD PUSH3 0x461BCD PUSH1 0xE5 SHL DUP2 MSTORE PUSH1 0x4 ADD PUSH2 0x6CE SWAP1 PUSH2 0x4D93 JUMP JUMPDEST POP PUSH1 0x1 PUSH1 0x1 PUSH1 0xA0 SHL SUB AND PUSH1 0x0 SWAP1 DUP2 MSTORE PUSH1 0x9 PUSH1 0x20 MSTORE PUSH1 0x40 SWAP1 KECCAK256 PUSH1 0x1 ADD SLOAD SWAP1 JUMP JUMPDEST PUSH1 0x1 PUSH1 0x1 PUSH1 0xA0 SHL SUB DUP2 AND PUSH1 0x0 SWAP1 DUP2 MSTORE PUSH1 0x5 PUSH1 0x20 MSTORE PUSH1 0x40 DUP2 KECCAK256 SLOAD PUSH1 0xFF AND PUSH2 0x2D9E JUMPI PUSH1 0x40 MLOAD PUSH3 0x461BCD PUSH1 0xE5 SHL DUP2 MSTORE PUSH1 0x4 ADD PUSH2 0x6CE SWAP1 PUSH2 0x4D93 JUMP JUMPDEST POP PUSH1 0x1 PUSH1 0x1 PUSH1 0xA0 SHL SUB AND PUSH1 0x0 SWAP1 DUP2 MSTORE PUSH1 0x5 PUSH1 0x20 MSTORE PUSH1 0x40 SWAP1 KECCAK256 PUSH1 0x1 ADD SLOAD SWAP1 JUMP JUMPDEST PUSH1 0x0 PUSH2 0x8B9 PUSH2 0x2DCA PUSH2 0x3F25 JUMP JUMPDEST DUP4 PUSH1 0x40 MLOAD PUSH2 0x1901 PUSH1 0xF0 SHL PUSH1 0x20 DUP3 ADD MSTORE PUSH1 0x22 DUP2 ADD DUP4 SWAP1 MSTORE PUSH1 0x42 DUP2 ADD DUP3 SWAP1 MSTORE PUSH1 0x0 SWAP1 PUSH1 0x62 ADD PUSH1 0x40 MLOAD PUSH1 0x20 DUP2 DUP4 SUB SUB DUP2 MSTORE SWAP1 PUSH1 0x40 MSTORE DUP1 MLOAD SWAP1 PUSH1 0x20 ADD KECCAK256 SWAP1 POP SWAP3 SWAP2 POP POP JUMP JUMPDEST PUSH1 0x0 DUP1 PUSH1 0x0 PUSH2 0x2E1A DUP6 DUP6 PUSH2 0x404C JUMP JUMPDEST SWAP2 POP SWAP2 POP PUSH2 0x2E27 DUP2 PUSH2 0x40BC JUMP JUMPDEST POP SWAP4 SWAP3 POP POP POP JUMP JUMPDEST PUSH2 0x2E37 PUSH2 0x3124 JUMP JUMPDEST PUSH2 0x2E3F PUSH2 0x3160 JUMP JUMPDEST PUSH2 0x2E47 PUSH2 0x35AD JUMP JUMPDEST PUSH1 0x7 SLOAD PUSH1 0xFF AND PUSH2 0x2E69 JUMPI PUSH1 0x40 MLOAD PUSH3 0x461BCD PUSH1 0xE5 SHL DUP2 MSTORE PUSH1 0x4 ADD PUSH2 0x6CE SWAP1 PUSH2 0x4F30 JUMP JUMPDEST PUSH1 0x0 PUSH2 0x2E74 PUSH1 0x3 SLOAD SWAP1 JUMP JUMPDEST SWAP1 POP PUSH1 0x0 PUSH2 0x2E82 DUP6 DUP4 PUSH2 0x3487 JUMP JUMPDEST SWAP1 POP DUP1 PUSH2 0x2EA1 JUMPI PUSH1 0x40 MLOAD PUSH3 0x461BCD PUSH1 0xE5 SHL DUP2 MSTORE PUSH1 0x4 ADD PUSH2 0x6CE SWAP1 PUSH2 0x4EF9 JUMP JUMPDEST PUSH1 0x0 JUMPDEST PUSH1 0x4 SLOAD DUP2 LT ISZERO PUSH2 0x2FDC JUMPI PUSH1 0x0 PUSH1 0x4 DUP3 DUP2 SLOAD DUP2 LT PUSH2 0x2EC3 JUMPI PUSH2 0x2EC3 PUSH2 0x508B JUMP JUMPDEST PUSH1 0x0 SWAP2 DUP3 MSTORE PUSH1 0x20 DUP1 DUP4 KECCAK256 SWAP1 SWAP2 ADD SLOAD PUSH1 0x1 PUSH1 0x1 PUSH1 0xA0 SHL SUB AND DUP1 DUP4 MSTORE PUSH1 0x5 SWAP1 SWAP2 MSTORE PUSH1 0x40 DUP3 KECCAK256 PUSH1 0x1 ADD SLOAD SWAP1 SWAP3 POP SWAP1 PUSH2 0x2EF8 DUP6 DUP4 PUSH2 0x38A0 JUMP JUMPDEST SWAP1 POP DUP1 PUSH2 0x2F17 JUMPI PUSH1 0x40 MLOAD PUSH3 0x461BCD PUSH1 0xE5 SHL DUP2 MSTORE PUSH1 0x4 ADD PUSH2 0x6CE SWAP1 PUSH2 0x4EF9 JUMP JUMPDEST DUP8 DUP8 DUP6 DUP2 DUP2 LT PUSH2 0x2F29 JUMPI PUSH2 0x2F29 PUSH2 0x508B JUMP JUMPDEST SWAP1 POP PUSH1 0x20 MUL ADD CALLDATALOAD DUP2 GT ISZERO PUSH2 0x2F4F JUMPI PUSH1 0x40 MLOAD PUSH3 0x461BCD PUSH1 0xE5 SHL DUP2 MSTORE PUSH1 0x4 ADD PUSH2 0x6CE SWAP1 PUSH2 0x4EC6 JUMP JUMPDEST PUSH1 0x1 PUSH1 0x1 PUSH1 0xA0 SHL SUB DUP4 AND PUSH1 0x0 SWAP1 DUP2 MSTORE PUSH1 0x5 PUSH1 0x20 MSTORE PUSH1 0x40 SWAP1 KECCAK256 PUSH1 0x1 ADD SLOAD PUSH2 0x2F76 SWAP1 DUP3 SWAP1 PUSH2 0x4EE1 JUMP JUMPDEST PUSH1 0x1 PUSH1 0x1 PUSH1 0xA0 SHL SUB DUP1 DUP6 AND PUSH1 0x0 DUP2 DUP2 MSTORE PUSH1 0x5 PUSH1 0x20 MSTORE PUSH1 0x40 SWAP1 DUP2 SWAP1 KECCAK256 PUSH1 0x1 ADD SWAP4 SWAP1 SWAP4 SSTORE SWAP2 MLOAD SWAP1 DUP13 AND SWAP1 PUSH1 0x0 DUP1 MLOAD PUSH1 0x20 PUSH2 0x53EC DUP4 CODECOPY DUP2 MLOAD SWAP2 MSTORE SWAP1 PUSH2 0x2FBB SWAP1 DUP6 DUP2 MSTORE PUSH1 0x20 ADD SWAP1 JUMP JUMPDEST PUSH1 0x40 MLOAD DUP1 SWAP2 SUB SWAP1 LOG3 PUSH2 0x2FCE DUP4 CALLER DUP4 PUSH2 0x3A9B JUMP JUMPDEST DUP4 PUSH1 0x1 ADD SWAP4 POP POP POP POP PUSH2 0x2EA4 JUMP JUMPDEST POP PUSH2 0x2FE6 DUP6 PUSH2 0x31B2 JUMP JUMPDEST PUSH2 0x2FF0 DUP7 DUP7 PUSH2 0x3A73 JUMP JUMPDEST POP POP PUSH2 0x1B11 PUSH2 0x31A6 JUMP JUMPDEST PUSH1 0x1 PUSH1 0x1 PUSH1 0xA0 SHL SUB DUP3 AND PUSH2 0x3035 JUMPI PUSH1 0x40 MLOAD PUSH3 0x461BCD PUSH1 0xE5 SHL DUP2 MSTORE PUSH1 0x20 PUSH1 0x4 DUP3 ADD MSTORE PUSH1 0x2 PUSH1 0x24 DUP3 ADD MSTORE PUSH2 0x3335 PUSH1 0xF0 SHL PUSH1 0x44 DUP3 ADD MSTORE PUSH1 0x64 ADD PUSH2 0x6CE JUMP JUMPDEST PUSH1 0x1 PUSH1 0x1 PUSH1 0xA0 SHL SUB DUP4 AND PUSH1 0x0 SWAP1 DUP2 MSTORE PUSH1 0x20 DUP2 SWAP1 MSTORE PUSH1 0x40 SWAP1 KECCAK256 SLOAD NUMBER GT PUSH2 0x3081 JUMPI PUSH1 0x40 MLOAD PUSH3 0x461BCD PUSH1 0xE5 SHL DUP2 MSTORE PUSH1 0x20 PUSH1 0x4 DUP3 ADD MSTORE PUSH1 0x2 PUSH1 0x24 DUP3 ADD MSTORE PUSH2 0x3137 PUSH1 0xF0 SHL PUSH1 0x44 DUP3 ADD MSTORE PUSH1 0x64 ADD PUSH2 0x6CE JUMP JUMPDEST PUSH1 0x1 PUSH1 0x1 PUSH1 0xA0 SHL SUB DUP4 AND PUSH1 0x0 SWAP1 DUP2 MSTORE PUSH1 0x1 PUSH1 0x20 MSTORE PUSH1 0x40 SWAP1 KECCAK256 SLOAD PUSH2 0x30A5 SWAP1 DUP3 SWAP1 PUSH2 0x4DDD JUMP JUMPDEST PUSH1 0x1 PUSH1 0x1 PUSH1 0xA0 SHL SUB DUP1 DUP6 AND PUSH1 0x0 SWAP1 DUP2 MSTORE PUSH1 0x1 PUSH1 0x20 MSTORE PUSH1 0x40 DUP1 DUP3 KECCAK256 SWAP4 SWAP1 SWAP4 SSTORE SWAP1 DUP5 AND DUP2 MSTORE KECCAK256 SLOAD PUSH2 0x30D5 SWAP1 DUP3 SWAP1 PUSH2 0x4EE1 JUMP JUMPDEST PUSH1 0x1 PUSH1 0x1 PUSH1 0xA0 SHL SUB DUP1 DUP5 AND PUSH1 0x0 DUP2 DUP2 MSTORE PUSH1 0x1 PUSH1 0x20 MSTORE PUSH1 0x40 SWAP1 DUP2 SWAP1 KECCAK256 SWAP4 SWAP1 SWAP4 SSTORE SWAP2 MLOAD SWAP1 DUP6 AND SWAP1 PUSH1 0x0 DUP1 MLOAD PUSH1 0x20 PUSH2 0x540C DUP4 CODECOPY DUP2 MLOAD SWAP2 MSTORE SWAP1 PUSH2 0x3117 SWAP1 DUP6 DUP2 MSTORE PUSH1 0x20 ADD SWAP1 JUMP JUMPDEST PUSH1 0x40 MLOAD DUP1 SWAP2 SUB SWAP1 LOG3 POP POP POP JUMP JUMPDEST CALLER PUSH1 0x1 PUSH1 0x1 PUSH1 0xA0 SHL SUB AND PUSH1 0x0 CALLDATALOAD PUSH1 0x1 PUSH1 0x1 PUSH1 0xE0 SHL SUB NOT AND PUSH1 0x1 PUSH1 0x1 PUSH1 0xE0 SHL SUB NOT AND PUSH1 0x0 CALLDATASIZE PUSH1 0x40 MLOAD PUSH2 0x3156 SWAP3 SWAP2 SWAP1 PUSH2 0x50DF JUMP JUMPDEST PUSH1 0x40 MLOAD DUP1 SWAP2 SUB SWAP1 LOG2 JUMP JUMPDEST PUSH1 0x6 SLOAD PUSH1 0xFF AND ISZERO PUSH2 0x3197 JUMPI PUSH1 0x40 MLOAD PUSH3 0x461BCD PUSH1 0xE5 SHL DUP2 MSTORE PUSH1 0x20 PUSH1 0x4 DUP3 ADD MSTORE PUSH1 0x1 PUSH1 0x24 DUP3 ADD MSTORE PUSH1 0x3 PUSH1 0xFC SHL PUSH1 0x44 DUP3 ADD MSTORE PUSH1 0x64 ADD PUSH2 0x6CE JUMP JUMPDEST PUSH1 0x6 DUP1 SLOAD PUSH1 0xFF NOT AND PUSH1 0x1 OR SWAP1 SSTORE JUMP JUMPDEST PUSH1 0x6 DUP1 SLOAD PUSH1 0xFF NOT AND SWAP1 SSTORE JUMP JUMPDEST PUSH2 0xB85 DUP2 PUSH2 0x4272 JUMP JUMPDEST PUSH2 0x31C5 DUP3 DUP3 PUSH2 0x42D8 JUMP JUMPDEST POP POP JUMP JUMPDEST PUSH2 0x31D1 PUSH2 0x485E JUMP JUMPDEST PUSH1 0x1 PUSH1 0x1 PUSH1 0xA0 SHL SUB DUP3 DUP2 AND PUSH1 0x0 DUP2 DUP2 MSTORE PUSH1 0x5 PUSH1 0x20 SWAP1 DUP2 MSTORE PUSH1 0x40 DUP1 DUP4 KECCAK256 DUP2 MLOAD PUSH1 0x80 DUP2 ADD DUP4 MSTORE DUP2 SLOAD PUSH1 0xFF DUP1 DUP3 AND ISZERO ISZERO DUP4 MSTORE PUSH2 0x100 DUP3 DIV AND DUP3 DUP7 ADD MSTORE PUSH3 0x10000 SWAP1 DIV PUSH1 0x1 PUSH1 0x1 PUSH1 0x50 SHL SUB AND DUP2 DUP5 ADD MSTORE PUSH1 0x1 SWAP2 DUP3 ADD SLOAD PUSH1 0x60 DUP3 ADD MSTORE SWAP5 DUP5 MSTORE PUSH1 0x9 DUP4 MSTORE DUP2 DUP5 KECCAK256 DUP3 MLOAD DUP1 DUP5 ADD DUP5 MSTORE DUP2 SLOAD SWAP1 SWAP8 AND DUP1 DUP9 MSTORE SWAP2 ADD SLOAD SWAP3 DUP7 ADD SWAP3 SWAP1 SWAP3 MSTORE DUP1 MLOAD PUSH4 0x3FABE5A3 PUSH1 0xE2 SHL DUP2 MSTORE SWAP1 MLOAD SWAP4 SWAP5 SWAP4 DUP4 SWAP3 DUP4 SWAP3 SWAP1 SWAP2 PUSH4 0xFEAF968C SWAP2 PUSH1 0x4 DUP1 DUP3 ADD SWAP3 PUSH1 0xA0 SWAP3 SWAP1 SWAP2 SWAP1 DUP3 SWAP1 SUB ADD DUP2 DUP7 GAS STATICCALL ISZERO DUP1 ISZERO PUSH2 0x328D JUMPI RETURNDATASIZE PUSH1 0x0 DUP1 RETURNDATACOPY RETURNDATASIZE PUSH1 0x0 REVERT JUMPDEST POP POP POP POP PUSH1 0x40 MLOAD RETURNDATASIZE PUSH1 0x1F NOT PUSH1 0x1F DUP3 ADD AND DUP3 ADD DUP1 PUSH1 0x40 MSTORE POP DUP2 ADD SWAP1 PUSH2 0x32B1 SWAP2 SWAP1 PUSH2 0x510E JUMP JUMPDEST POP SWAP4 POP POP SWAP3 POP SWAP3 POP PUSH1 0x0 PUSH1 0x40 MLOAD DUP1 PUSH1 0x40 ADD PUSH1 0x40 MSTORE DUP1 DUP8 PUSH1 0x60 ADD MLOAD DUP2 MSTORE PUSH1 0x20 ADD PUSH2 0x32FC DUP9 PUSH1 0x40 ADD MLOAD PUSH1 0x1 PUSH1 0x1 PUSH1 0x50 SHL SUB AND PUSH2 0x32F7 DUP10 PUSH1 0x20 ADD MLOAD PUSH2 0x32F2 DUP10 PUSH2 0x42E3 JUMP JUMPDEST PUSH2 0x42F8 JUMP JUMPDEST PUSH2 0x38A0 JUMP JUMPDEST SWAP1 MSTORE PUSH1 0x40 DUP1 MLOAD PUSH1 0x80 DUP2 ADD DUP3 MSTORE SWAP7 MLOAD PUSH1 0x1 PUSH1 0x1 PUSH1 0xA0 SHL SUB AND DUP8 MSTORE PUSH1 0x1 PUSH1 0x1 PUSH1 0x50 SHL SUB SWAP1 SWAP6 AND PUSH1 0x20 DUP1 DUP9 ADD SWAP2 SWAP1 SWAP2 MSTORE DUP7 DUP7 ADD SWAP5 SWAP1 SWAP5 MSTORE PUSH1 0x60 DUP7 ADD SWAP3 SWAP1 SWAP3 MSTORE POP DUP3 MLOAD DUP1 DUP5 ADD SWAP1 SWAP4 MSTORE DUP3 MSTORE DUP2 ADD SWAP2 SWAP1 SWAP2 MSTORE SWAP4 SWAP3 POP POP POP JUMP JUMPDEST PUSH2 0x3358 PUSH2 0x4844 JUMP JUMPDEST PUSH1 0x40 DUP1 MLOAD PUSH1 0x60 DUP2 ADD DUP3 MSTORE DUP5 DUP2 MSTORE PUSH1 0x8 SLOAD PUSH1 0x20 DUP3 ADD MSTORE PUSH1 0x0 SWAP2 DUP2 ADD PUSH2 0x3E8 PUSH2 0x3388 PUSH8 0xDE0B6B3A7640000 PUSH1 0x3 PUSH2 0x4E2A JUMP JUMPDEST PUSH2 0x3392 SWAP2 SWAP1 PUSH2 0x4E49 JUMP JUMPDEST SWAP1 MSTORE PUSH1 0x40 DUP1 MLOAD DUP1 DUP3 ADD DUP3 MSTORE PUSH1 0x7 SLOAD PUSH3 0x10000 DUP2 DIV PUSH1 0x1 PUSH1 0x1 PUSH1 0x40 SHL SUB AND DUP3 MSTORE PUSH1 0xA SLOAD PUSH1 0x20 DUP1 DUP5 ADD SWAP2 SWAP1 SWAP2 MSTORE DUP4 MLOAD PUSH1 0x60 DUP2 ADD DUP6 MSTORE PUSH2 0x100 SWAP1 SWAP3 DIV PUSH1 0xFF AND DUP3 MSTORE PUSH1 0xB SLOAD DUP3 DUP3 ADD MSTORE SWAP3 DUP2 ADD DUP8 SWAP1 MSTORE DUP10 DUP4 ADD MLOAD SWAP3 DUP10 ADD MLOAD SWAP4 SWAP5 POP SWAP1 SWAP3 SWAP1 SWAP2 PUSH20 0x0 SWAP2 PUSH4 0xB2A3E6D4 SWAP2 DUP12 SWAP2 DUP12 SWAP2 PUSH2 0x3415 SWAP2 PUSH2 0x34CD JUMP JUMPDEST DUP8 DUP8 DUP8 PUSH1 0x40 MLOAD DUP8 PUSH4 0xFFFFFFFF AND PUSH1 0xE0 SHL DUP2 MSTORE PUSH1 0x4 ADD PUSH2 0x3439 SWAP7 SWAP6 SWAP5 SWAP4 SWAP3 SWAP2 SWAP1 PUSH2 0x5166 JUMP JUMPDEST PUSH1 0x40 DUP1 MLOAD DUP1 DUP4 SUB DUP2 DUP7 GAS DELEGATECALL ISZERO DUP1 ISZERO PUSH2 0x3455 JUMPI RETURNDATASIZE PUSH1 0x0 DUP1 RETURNDATACOPY RETURNDATASIZE PUSH1 0x0 REVERT JUMPDEST POP POP POP POP PUSH1 0x40 MLOAD RETURNDATASIZE PUSH1 0x1F NOT PUSH1 0x1F DUP3 ADD AND DUP3 ADD DUP1 PUSH1 0x40 MSTORE POP DUP2 ADD SWAP1 PUSH2 0x3479 SWAP2 SWAP1 PUSH2 0x51C9 JUMP JUMPDEST SWAP4 POP POP POP POP JUMPDEST SWAP5 SWAP4 POP POP POP POP JUMP JUMPDEST PUSH1 0x0 DUP1 PUSH2 0x349C PUSH8 0xDE0B6B3A7640000 DUP6 PUSH2 0x4E2A JUMP JUMPDEST SWAP1 POP PUSH1 0x0 PUSH2 0x34AB PUSH1 0x2 DUP6 PUSH2 0x4E49 JUMP JUMPDEST PUSH2 0x34B5 SWAP1 DUP4 PUSH2 0x4EE1 JUMP JUMPDEST SWAP1 POP PUSH1 0x0 PUSH2 0x34C3 DUP6 DUP4 PUSH2 0x4E49 JUMP JUMPDEST SWAP7 SWAP6 POP POP POP POP POP POP JUMP JUMPDEST PUSH1 0x0 PUSH2 0x9EF DUP4 PUSH1 0x40 ADD MLOAD DUP5 PUSH1 0x0 ADD MLOAD PUSH1 0x1 PUSH1 0x1 PUSH1 0xA0 SHL SUB AND PUSH4 0x313CE567 PUSH1 0x40 MLOAD DUP2 PUSH4 0xFFFFFFFF AND PUSH1 0xE0 SHL DUP2 MSTORE PUSH1 0x4 ADD PUSH1 0x20 PUSH1 0x40 MLOAD DUP1 DUP4 SUB DUP2 DUP7 GAS STATICCALL ISZERO DUP1 ISZERO PUSH2 0x3519 JUMPI RETURNDATASIZE PUSH1 0x0 DUP1 RETURNDATACOPY RETURNDATASIZE PUSH1 0x0 REVERT JUMPDEST POP POP POP POP PUSH1 0x40 MLOAD RETURNDATASIZE PUSH1 0x1F NOT PUSH1 0x1F DUP3 ADD AND DUP3 ADD DUP1 PUSH1 0x40 MSTORE POP DUP2 ADD SWAP1 PUSH2 0x353D SWAP2 SWAP1 PUSH2 0x5225 JUMP JUMPDEST DUP5 PUSH1 0x40 ADD MLOAD DUP6 PUSH1 0x0 ADD MLOAD PUSH1 0x1 PUSH1 0x1 PUSH1 0xA0 SHL SUB AND PUSH4 0x313CE567 PUSH1 0x40 MLOAD DUP2 PUSH4 0xFFFFFFFF AND PUSH1 0xE0 SHL DUP2 MSTORE PUSH1 0x4 ADD PUSH1 0x20 PUSH1 0x40 MLOAD DUP1 DUP4 SUB DUP2 DUP7 GAS STATICCALL ISZERO DUP1 ISZERO PUSH2 0x3584 JUMPI RETURNDATASIZE PUSH1 0x0 DUP1 RETURNDATACOPY RETURNDATASIZE PUSH1 0x0 REVERT JUMPDEST POP POP POP POP PUSH1 0x40 MLOAD RETURNDATASIZE PUSH1 0x1F NOT PUSH1 0x1F DUP3 ADD AND DUP3 ADD DUP1 PUSH1 0x40 MSTORE POP DUP2 ADD SWAP1 PUSH2 0x35A8 SWAP2 SWAP1 PUSH2 0x5225 JUMP JUMPDEST PUSH2 0x4304 JUMP JUMPDEST PUSH32 0x0 PUSH1 0x1 PUSH1 0x1 PUSH1 0xA0 SHL SUB AND PUSH4 0x5C2DC4F0 PUSH1 0x40 MLOAD DUP2 PUSH4 0xFFFFFFFF AND PUSH1 0xE0 SHL DUP2 MSTORE PUSH1 0x4 ADD PUSH1 0x0 PUSH1 0x40 MLOAD DUP1 DUP4 SUB DUP2 DUP7 DUP1 EXTCODESIZE ISZERO DUP1 ISZERO PUSH2 0x3606 JUMPI PUSH1 0x0 DUP1 REVERT JUMPDEST POP GAS STATICCALL ISZERO DUP1 ISZERO PUSH2 0x1B11 JUMPI RETURNDATASIZE PUSH1 0x0 DUP1 RETURNDATACOPY RETURNDATASIZE PUSH1 0x0 REVERT JUMPDEST PUSH2 0x3622 PUSH2 0x485E JUMP JUMPDEST PUSH1 0x60 PUSH2 0x362D DUP4 PUSH2 0x31C9 JUMP JUMPDEST PUSH1 0x4 SLOAD SWAP1 SWAP3 POP PUSH1 0x0 SWAP1 PUSH2 0x3642 SWAP1 PUSH1 0x1 SWAP1 PUSH2 0x4DDD JUMP JUMPDEST SWAP1 POP DUP1 PUSH1 0x1 PUSH1 0x1 PUSH1 0x40 SHL SUB DUP2 GT ISZERO PUSH2 0x365C JUMPI PUSH2 0x365C PUSH2 0x51B3 JUMP JUMPDEST PUSH1 0x40 MLOAD SWAP1 DUP1 DUP3 MSTORE DUP1 PUSH1 0x20 MUL PUSH1 0x20 ADD DUP3 ADD PUSH1 0x40 MSTORE DUP1 ISZERO PUSH2 0x3695 JUMPI DUP2 PUSH1 0x20 ADD JUMPDEST PUSH2 0x3682 PUSH2 0x485E JUMP JUMPDEST DUP2 MSTORE PUSH1 0x20 ADD SWAP1 PUSH1 0x1 SWAP1 SUB SWAP1 DUP2 PUSH2 0x367A JUMPI SWAP1 POP JUMPDEST POP SWAP2 POP PUSH1 0x0 DUP1 JUMPDEST DUP3 DUP3 LT ISZERO PUSH2 0x3737 JUMPI DUP6 PUSH1 0x1 PUSH1 0x1 PUSH1 0xA0 SHL SUB AND PUSH1 0x4 DUP3 DUP2 SLOAD DUP2 LT PUSH2 0x36C1 JUMPI PUSH2 0x36C1 PUSH2 0x508B JUMP JUMPDEST PUSH1 0x0 SWAP2 DUP3 MSTORE PUSH1 0x20 SWAP1 SWAP2 KECCAK256 ADD SLOAD PUSH1 0x1 PUSH1 0x1 PUSH1 0xA0 SHL SUB AND EQ PUSH2 0x372F JUMPI PUSH2 0x370B PUSH1 0x4 DUP3 DUP2 SLOAD DUP2 LT PUSH2 0x36F1 JUMPI PUSH2 0x36F1 PUSH2 0x508B JUMP JUMPDEST PUSH1 0x0 SWAP2 DUP3 MSTORE PUSH1 0x20 SWAP1 SWAP2 KECCAK256 ADD SLOAD PUSH1 0x1 PUSH1 0x1 PUSH1 0xA0 SHL SUB AND PUSH2 0x31C9 JUMP JUMPDEST DUP5 DUP4 DUP2 MLOAD DUP2 LT PUSH2 0x371D JUMPI PUSH2 0x371D PUSH2 0x508B JUMP JUMPDEST PUSH1 0x20 MUL PUSH1 0x20 ADD ADD DUP2 SWAP1 MSTORE POP DUP2 PUSH1 0x1 ADD SWAP2 POP JUMPDEST PUSH1 0x1 ADD PUSH2 0x369C JUMP JUMPDEST POP POP POP SWAP2 POP SWAP2 JUMP JUMPDEST PUSH1 0x0 DUP1 JUMPDEST DUP3 MLOAD DUP2 LT ISZERO PUSH2 0x1B11 JUMPI PUSH20 0x0 PUSH4 0xA221EE49 DUP5 DUP4 DUP2 MLOAD DUP2 LT PUSH2 0x3778 JUMPI PUSH2 0x3778 PUSH2 0x508B JUMP JUMPDEST PUSH1 0x20 MUL PUSH1 0x20 ADD ADD MLOAD PUSH1 0x0 ADD MLOAD PUSH1 0x0 ADD MLOAD DUP6 DUP5 DUP2 MLOAD DUP2 LT PUSH2 0x379A JUMPI PUSH2 0x379A PUSH2 0x508B JUMP JUMPDEST PUSH1 0x20 SWAP1 DUP2 MUL SWAP2 SWAP1 SWAP2 ADD DUP2 ADD MLOAD MLOAD DUP2 ADD MLOAD DUP9 MLOAD DUP1 MLOAD SWAP3 ADD MLOAD PUSH1 0x40 MLOAD PUSH1 0x1 PUSH1 0x1 PUSH1 0xE0 SHL SUB NOT PUSH1 0xE0 DUP8 SWAP1 SHL AND DUP2 MSTORE PUSH2 0x37D7 SWAP5 SWAP4 SWAP2 SWAP1 PUSH1 0x0 SWAP1 PUSH1 0x4 ADD PUSH2 0x4E87 JUMP JUMPDEST PUSH1 0x20 PUSH1 0x40 MLOAD DUP1 DUP4 SUB DUP2 DUP7 GAS DELEGATECALL ISZERO DUP1 ISZERO PUSH2 0x37F4 JUMPI RETURNDATASIZE PUSH1 0x0 DUP1 RETURNDATACOPY RETURNDATASIZE PUSH1 0x0 REVERT JUMPDEST POP POP POP POP PUSH1 0x40 MLOAD RETURNDATASIZE PUSH1 0x1F NOT PUSH1 0x1F DUP3 ADD AND DUP3 ADD DUP1 PUSH1 0x40 MSTORE POP DUP2 ADD SWAP1 PUSH2 0x3818 SWAP2 SWAP1 PUSH2 0x4DAE JUMP JUMPDEST SWAP2 POP PUSH1 0x64 PUSH2 0x382F PUSH8 0xDE0B6B3A7640000 PUSH1 0x2 PUSH2 0x4E2A JUMP JUMPDEST PUSH2 0x3839 SWAP2 SWAP1 PUSH2 0x4E49 JUMP JUMPDEST PUSH2 0x384B SWAP1 PUSH8 0xDE0B6B3A7640000 PUSH2 0x4EE1 JUMP JUMPDEST PUSH2 0x387A DUP4 PUSH2 0x13EE DUP7 DUP6 DUP2 MLOAD DUP2 LT PUSH2 0x3864 JUMPI PUSH2 0x3864 PUSH2 0x508B JUMP JUMPDEST PUSH1 0x20 MUL PUSH1 0x20 ADD ADD MLOAD PUSH1 0x20 ADD MLOAD DUP9 PUSH1 0x20 ADD MLOAD PUSH2 0x34CD JUMP JUMPDEST GT ISZERO PUSH2 0x3898 JUMPI PUSH1 0x40 MLOAD PUSH3 0x461BCD PUSH1 0xE5 SHL DUP2 MSTORE PUSH1 0x4 ADD PUSH2 0x6CE SWAP1 PUSH2 0x4F14 JUMP JUMPDEST PUSH1 0x1 ADD PUSH2 0x3743 JUMP JUMPDEST PUSH1 0x0 DUP1 PUSH2 0x38AD DUP4 DUP6 PUSH2 0x4E2A JUMP JUMPDEST SWAP1 POP PUSH1 0x0 PUSH2 0x38C4 PUSH1 0x2 PUSH8 0xDE0B6B3A7640000 PUSH2 0x4E49 JUMP JUMPDEST PUSH2 0x38CE SWAP1 DUP4 PUSH2 0x4EE1 JUMP JUMPDEST SWAP1 POP PUSH1 0x0 PUSH2 0x34C3 PUSH8 0xDE0B6B3A7640000 DUP4 PUSH2 0x4E49 JUMP JUMPDEST PUSH2 0x31C5 DUP3 DUP3 PUSH2 0x43A1 JUMP JUMPDEST PUSH2 0xB85 DUP2 PUSH2 0x43AC JUMP JUMPDEST PUSH2 0xF8D PUSH1 0x1 PUSH1 0x1 PUSH1 0xA0 SHL SUB DUP5 AND DUP4 DUP4 PUSH2 0x440B JUMP JUMPDEST PUSH1 0x0 DUP1 JUMPDEST DUP3 MLOAD DUP2 LT ISZERO PUSH2 0x1B11 JUMPI PUSH20 0x0 PUSH4 0xA221EE49 DUP6 PUSH1 0x0 ADD MLOAD PUSH1 0x0 ADD MLOAD DUP7 PUSH1 0x0 ADD MLOAD PUSH1 0x20 ADD MLOAD DUP7 DUP6 DUP2 MLOAD DUP2 LT PUSH2 0x3956 JUMPI PUSH2 0x3956 PUSH2 0x508B JUMP JUMPDEST PUSH1 0x20 MUL PUSH1 0x20 ADD ADD MLOAD PUSH1 0x0 ADD MLOAD PUSH1 0x0 ADD MLOAD DUP8 DUP7 DUP2 MLOAD DUP2 LT PUSH2 0x3978 JUMPI PUSH2 0x3978 PUSH2 0x508B JUMP JUMPDEST PUSH1 0x20 MUL PUSH1 0x20 ADD ADD MLOAD PUSH1 0x0 ADD MLOAD PUSH1 0x20 ADD MLOAD PUSH1 0x0 PUSH1 0x40 MLOAD DUP7 PUSH4 0xFFFFFFFF AND PUSH1 0xE0 SHL DUP2 MSTORE PUSH1 0x4 ADD PUSH2 0x39AA SWAP6 SWAP5 SWAP4 SWAP3 SWAP2 SWAP1 PUSH2 0x4E87 JUMP JUMPDEST PUSH1 0x20 PUSH1 0x40 MLOAD DUP1 DUP4 SUB DUP2 DUP7 GAS DELEGATECALL ISZERO DUP1 ISZERO PUSH2 0x39C7 JUMPI RETURNDATASIZE PUSH1 0x0 DUP1 RETURNDATACOPY RETURNDATASIZE PUSH1 0x0 REVERT JUMPDEST POP POP POP POP PUSH1 0x40 MLOAD RETURNDATASIZE PUSH1 0x1F NOT PUSH1 0x1F DUP3 ADD AND DUP3 ADD DUP1 PUSH1 0x40 MSTORE POP DUP2 ADD SWAP1 PUSH2 0x39EB SWAP2 SWAP1 PUSH2 0x4DAE JUMP JUMPDEST SWAP2 POP PUSH1 0x64 PUSH2 0x3A02 PUSH8 0xDE0B6B3A7640000 PUSH1 0x2 PUSH2 0x4E2A JUMP JUMPDEST PUSH2 0x3A0C SWAP2 SWAP1 PUSH2 0x4E49 JUMP JUMPDEST PUSH2 0x3A1E SWAP1 PUSH8 0xDE0B6B3A7640000 PUSH2 0x4EE1 JUMP JUMPDEST PUSH2 0x3A4D DUP4 PUSH2 0x13EE DUP8 PUSH1 0x20 ADD MLOAD DUP8 DUP7 DUP2 MLOAD DUP2 LT PUSH2 0x3A3C JUMPI PUSH2 0x3A3C PUSH2 0x508B JUMP JUMPDEST PUSH1 0x20 MUL PUSH1 0x20 ADD ADD MLOAD PUSH1 0x20 ADD MLOAD PUSH2 0x34CD JUMP JUMPDEST GT ISZERO PUSH2 0x3A6B JUMPI PUSH1 0x40 MLOAD PUSH3 0x461BCD PUSH1 0xE5 SHL DUP2 MSTORE PUSH1 0x4 ADD PUSH2 0x6CE SWAP1 PUSH2 0x4F14 JUMP JUMPDEST PUSH1 0x1 ADD PUSH2 0x390F JUMP JUMPDEST PUSH1 0x1 PUSH1 0x1 PUSH1 0xA0 SHL SUB DUP3 AND PUSH1 0x0 SWAP1 DUP2 MSTORE PUSH1 0x20 DUP2 SWAP1 MSTORE PUSH1 0x40 SWAP1 KECCAK256 NUMBER PUSH1 0x2 ADD SWAP1 SSTORE PUSH2 0x31C5 DUP3 DUP3 PUSH2 0x42D8 JUMP JUMPDEST PUSH2 0xF8D PUSH1 0x1 PUSH1 0x1 PUSH1 0xA0 SHL SUB DUP5 AND DUP4 ADDRESS DUP5 PUSH2 0x4461 JUMP JUMPDEST PUSH2 0x3AB8 PUSH2 0x3124 JUMP JUMPDEST PUSH2 0x3AC0 PUSH2 0x3160 JUMP JUMPDEST PUSH2 0x3AC8 PUSH2 0x35AD JUMP JUMPDEST PUSH8 0xDE0B6B3A7640000 PUSH1 0x1 PUSH1 0x1 PUSH1 0x50 SHL SUB DUP4 AND LT ISZERO PUSH2 0x3B0E JUMPI PUSH1 0x40 MLOAD PUSH3 0x461BCD PUSH1 0xE5 SHL DUP2 MSTORE PUSH1 0x20 PUSH1 0x4 DUP3 ADD MSTORE PUSH1 0x2 PUSH1 0x24 DUP3 ADD MSTORE PUSH2 0x333 PUSH1 0xF4 SHL PUSH1 0x44 DUP3 ADD MSTORE PUSH1 0x64 ADD PUSH2 0x6CE JUMP JUMPDEST PUSH2 0x3B21 PUSH8 0xDE0B6B3A7640000 PUSH1 0x32 PUSH2 0x4E2A JUMP JUMPDEST PUSH1 0x1 PUSH1 0x1 PUSH1 0x50 SHL SUB AND DUP3 PUSH1 0x1 PUSH1 0x1 PUSH1 0x50 SHL SUB AND GT ISZERO PUSH2 0x3B67 JUMPI PUSH1 0x40 MLOAD PUSH3 0x461BCD PUSH1 0xE5 SHL DUP2 MSTORE PUSH1 0x20 PUSH1 0x4 DUP3 ADD MSTORE PUSH1 0x2 PUSH1 0x24 DUP3 ADD MSTORE PUSH2 0x3331 PUSH1 0xF0 SHL PUSH1 0x44 DUP3 ADD MSTORE PUSH1 0x64 ADD PUSH2 0x6CE JUMP JUMPDEST PUSH2 0x3B7E PUSH5 0xE8D4A51000 PUSH8 0xDE0B6B3A7640000 PUSH2 0x4E49 JUMP JUMPDEST DUP4 LT ISZERO PUSH2 0x3BB2 JUMPI PUSH1 0x40 MLOAD PUSH3 0x461BCD PUSH1 0xE5 SHL DUP2 MSTORE PUSH1 0x20 PUSH1 0x4 DUP3 ADD MSTORE PUSH1 0x2 PUSH1 0x24 DUP3 ADD MSTORE PUSH2 0x1999 PUSH1 0xF1 SHL PUSH1 0x44 DUP3 ADD MSTORE PUSH1 0x64 ADD PUSH2 0x6CE JUMP JUMPDEST PUSH1 0x1 PUSH1 0x1 PUSH1 0xA0 SHL SUB DUP5 AND PUSH1 0x0 SWAP1 DUP2 MSTORE PUSH1 0x5 PUSH1 0x20 MSTORE PUSH1 0x40 SWAP1 KECCAK256 SLOAD PUSH1 0x1 PUSH1 0x1 PUSH1 0x50 SHL SUB PUSH3 0x10000 SWAP1 SWAP2 DIV DUP2 AND SWAP1 DUP4 AND DUP2 LT ISZERO PUSH2 0x3C98 JUMPI PUSH2 0x3BF0 DUP2 DUP5 PUSH2 0x50A1 JUMP JUMPDEST PUSH1 0x6 SLOAD PUSH2 0x3C0C SWAP2 SWAP1 PUSH3 0x10000 SWAP1 DIV PUSH1 0x1 PUSH1 0x1 PUSH1 0x50 SHL SUB AND PUSH2 0x5242 JUMP JUMPDEST PUSH1 0x6 DUP1 SLOAD PUSH1 0x1 PUSH1 0x1 PUSH1 0x50 SHL SUB SWAP3 SWAP1 SWAP3 AND PUSH3 0x10000 MUL PUSH3 0x10000 PUSH1 0x1 PUSH1 0x60 SHL SUB NOT SWAP1 SWAP3 AND SWAP2 SWAP1 SWAP2 OR SWAP1 SSTORE PUSH2 0x3C48 PUSH8 0xDE0B6B3A7640000 PUSH1 0x32 PUSH2 0x4E2A JUMP JUMPDEST PUSH1 0x6 SLOAD PUSH1 0x1 PUSH1 0x1 PUSH1 0x50 SHL SUB SWAP2 DUP3 AND PUSH3 0x10000 SWAP1 SWAP2 DIV SWAP1 SWAP2 AND GT ISZERO PUSH2 0x3C93 JUMPI PUSH1 0x40 MLOAD PUSH3 0x461BCD PUSH1 0xE5 SHL DUP2 MSTORE PUSH1 0x20 PUSH1 0x4 DUP3 ADD MSTORE PUSH1 0x2 PUSH1 0x24 DUP3 ADD MSTORE PUSH2 0x3333 PUSH1 0xF0 SHL PUSH1 0x44 DUP3 ADD MSTORE PUSH1 0x64 ADD PUSH2 0x6CE JUMP JUMPDEST PUSH2 0x3D02 JUMP JUMPDEST DUP1 PUSH1 0x1 PUSH1 0x1 PUSH1 0x50 SHL SUB AND DUP4 PUSH1 0x1 PUSH1 0x1 PUSH1 0x50 SHL SUB AND LT ISZERO PUSH2 0x3D02 JUMPI PUSH1 0x6 SLOAD DUP4 SWAP1 PUSH2 0x3CD1 SWAP1 DUP4 SWAP1 PUSH3 0x10000 SWAP1 DIV PUSH1 0x1 PUSH1 0x1 PUSH1 0x50 SHL SUB AND PUSH2 0x50A1 JUMP JUMPDEST PUSH2 0x3CDB SWAP2 SWAP1 PUSH2 0x5242 JUMP JUMPDEST PUSH1 0x6 PUSH1 0x2 PUSH2 0x100 EXP DUP2 SLOAD DUP2 PUSH1 0x1 PUSH1 0x1 PUSH1 0x50 SHL SUB MUL NOT AND SWAP1 DUP4 PUSH1 0x1 PUSH1 0x1 PUSH1 0x50 SHL SUB AND MUL OR SWAP1 SSTORE POP JUMPDEST PUSH1 0x1 PUSH1 0x1 PUSH1 0xA0 SHL SUB DUP6 AND PUSH1 0x0 SWAP1 DUP2 MSTORE PUSH1 0x5 PUSH1 0x20 MSTORE PUSH1 0x40 SWAP1 KECCAK256 DUP1 SLOAD PUSH3 0x10000 PUSH1 0x1 PUSH1 0x60 SHL SUB NOT AND PUSH3 0x10000 PUSH1 0x1 PUSH1 0x1 PUSH1 0x50 SHL SUB DUP7 AND MUL OR DUP2 SSTORE PUSH1 0x1 ADD DUP1 SLOAD SWAP1 DUP6 SWAP1 SSTORE DUP1 DUP6 GT ISZERO PUSH2 0x3D64 JUMPI PUSH2 0x3D5F DUP7 CALLER PUSH2 0x3D5A DUP5 DUP10 PUSH2 0x4DDD JUMP JUMPDEST PUSH2 0x3A9B JUMP JUMPDEST PUSH2 0x3DC6 JUMP JUMPDEST DUP1 DUP6 LT ISZERO PUSH2 0x3DC6 JUMPI PUSH1 0x0 PUSH2 0x3D78 DUP7 DUP4 PUSH2 0x4DDD JUMP JUMPDEST SWAP1 POP PUSH1 0x0 PUSH2 0x3D87 DUP3 PUSH1 0x0 PUSH2 0x38A0 JUMP JUMPDEST SWAP1 POP PUSH2 0x3D98 DUP9 CALLER PUSH2 0x2B17 DUP5 DUP7 PUSH2 0x4DDD JUMP JUMPDEST PUSH2 0x3DC3 DUP9 PUSH32 0x0 DUP4 PUSH2 0x38F7 JUMP JUMPDEST POP POP JUMPDEST PUSH1 0x40 DUP1 MLOAD DUP1 DUP3 ADD DUP3 MSTORE PUSH1 0x1 PUSH1 0x1 PUSH1 0xA0 SHL SUB DUP6 DUP2 AND DUP3 MSTORE PUSH1 0x0 PUSH1 0x20 DUP1 DUP5 ADD DUP3 DUP2 MSTORE DUP12 DUP5 AND DUP4 MSTORE PUSH1 0x9 SWAP1 SWAP2 MSTORE SWAP4 SWAP1 KECCAK256 SWAP2 MLOAD DUP3 SLOAD PUSH1 0x1 PUSH1 0x1 PUSH1 0xA0 SHL SUB NOT AND SWAP2 AND SWAP1 DUP2 OR DUP3 SSTORE SWAP2 MLOAD PUSH1 0x1 SWAP1 SWAP2 ADD SSTORE PUSH2 0x3E19 SWAP1 PUSH2 0x4499 JUMP JUMPDEST PUSH1 0x1 PUSH1 0x1 PUSH1 0xA0 SHL SUB DUP1 DUP9 AND PUSH1 0x0 DUP2 DUP2 MSTORE PUSH1 0x9 PUSH1 0x20 MSTORE PUSH1 0x40 SWAP1 DUP2 SWAP1 KECCAK256 PUSH1 0x1 DUP2 ADD DUP6 SWAP1 SSTORE SLOAD SWAP1 MLOAD SWAP2 SWAP4 PUSH2 0x3E4E SWAP4 SWAP2 SWAP1 SWAP2 AND SWAP2 PUSH2 0x526D JUMP JUMPDEST PUSH1 0x40 MLOAD DUP1 SWAP2 SUB SWAP1 LOG1 POP POP PUSH2 0x1B11 PUSH2 0x31A6 JUMP JUMPDEST PUSH2 0x3E68 PUSH2 0x4844 JUMP JUMPDEST PUSH1 0x40 DUP1 MLOAD PUSH1 0x60 DUP2 ADD DUP3 MSTORE DUP5 DUP2 MSTORE PUSH1 0x8 SLOAD PUSH1 0x20 DUP3 ADD MSTORE PUSH1 0x0 SWAP2 DUP2 ADD PUSH2 0x3E8 PUSH2 0x3E98 PUSH8 0xDE0B6B3A7640000 PUSH1 0x3 PUSH2 0x4E2A JUMP JUMPDEST PUSH2 0x3EA2 SWAP2 SWAP1 PUSH2 0x4E49 JUMP JUMPDEST SWAP1 MSTORE PUSH1 0x40 DUP1 MLOAD DUP1 DUP3 ADD DUP3 MSTORE PUSH1 0x7 SLOAD PUSH3 0x10000 DUP2 DIV PUSH1 0x1 PUSH1 0x1 PUSH1 0x40 SHL SUB AND DUP3 MSTORE PUSH1 0xA SLOAD PUSH1 0x20 DUP1 DUP5 ADD SWAP2 SWAP1 SWAP2 MSTORE DUP4 MLOAD PUSH1 0x60 DUP2 ADD DUP6 MSTORE PUSH2 0x100 SWAP1 SWAP3 DIV PUSH1 0xFF AND DUP3 MSTORE PUSH1 0xB SLOAD DUP3 DUP3 ADD MSTORE SWAP3 DUP2 ADD DUP8 SWAP1 MSTORE DUP10 DUP4 ADD MLOAD SWAP3 DUP10 ADD MLOAD SWAP4 SWAP5 POP SWAP1 SWAP3 SWAP1 SWAP2 PUSH20 0x0 SWAP2 PUSH4 0xF1913050 SWAP2 DUP12 SWAP2 DUP12 SWAP2 PUSH2 0x3415 SWAP2 PUSH2 0x34CD JUMP JUMPDEST PUSH1 0x0 ADDRESS PUSH1 0x1 PUSH1 0x1 PUSH1 0xA0 SHL SUB PUSH32 0x0 AND EQ DUP1 ISZERO PUSH2 0x3F7E JUMPI POP PUSH32 0x0 CHAINID EQ JUMPDEST ISZERO PUSH2 0x3FA8 JUMPI POP PUSH32 0x0 SWAP1 JUMP JUMPDEST POP PUSH1 0x40 DUP1 MLOAD PUSH32 0x0 PUSH1 0x20 DUP1 DUP4 ADD SWAP2 SWAP1 SWAP2 MSTORE PUSH32 0x0 DUP3 DUP5 ADD MSTORE PUSH32 0x0 PUSH1 0x60 DUP4 ADD MSTORE CHAINID PUSH1 0x80 DUP4 ADD MSTORE ADDRESS PUSH1 0xA0 DUP1 DUP5 ADD SWAP2 SWAP1 SWAP2 MSTORE DUP4 MLOAD DUP1 DUP5 SUB SWAP1 SWAP2 ADD DUP2 MSTORE PUSH1 0xC0 SWAP1 SWAP3 ADD SWAP1 SWAP3 MSTORE DUP1 MLOAD SWAP2 ADD KECCAK256 SWAP1 JUMP JUMPDEST PUSH1 0x0 DUP1 DUP3 MLOAD PUSH1 0x41 EQ ISZERO PUSH2 0x4083 JUMPI PUSH1 0x20 DUP4 ADD MLOAD PUSH1 0x40 DUP5 ADD MLOAD PUSH1 0x60 DUP6 ADD MLOAD PUSH1 0x0 BYTE PUSH2 0x4077 DUP8 DUP3 DUP6 DUP6 PUSH2 0x4542 JUMP JUMPDEST SWAP5 POP SWAP5 POP POP POP POP PUSH2 0x40B5 JUMP JUMPDEST DUP3 MLOAD PUSH1 0x40 EQ ISZERO PUSH2 0x40AD JUMPI PUSH1 0x20 DUP4 ADD MLOAD PUSH1 0x40 DUP5 ADD MLOAD PUSH2 0x40A2 DUP7 DUP4 DUP4 PUSH2 0x4625 JUMP JUMPDEST SWAP4 POP SWAP4 POP POP POP PUSH2 0x40B5 JUMP JUMPDEST POP PUSH1 0x0 SWAP1 POP PUSH1 0x2 JUMPDEST SWAP3 POP SWAP3 SWAP1 POP JUMP JUMPDEST PUSH1 0x0 DUP2 PUSH1 0x4 DUP2 GT ISZERO PUSH2 0x40D0 JUMPI PUSH2 0x40D0 PUSH2 0x5286 JUMP JUMPDEST EQ ISZERO PUSH2 0x40D9 JUMPI POP JUMP JUMPDEST PUSH1 0x1 DUP2 PUSH1 0x4 DUP2 GT ISZERO PUSH2 0x40ED JUMPI PUSH2 0x40ED PUSH2 0x5286 JUMP JUMPDEST EQ ISZERO PUSH2 0x4136 JUMPI PUSH1 0x40 MLOAD PUSH3 0x461BCD PUSH1 0xE5 SHL DUP2 MSTORE PUSH1 0x20 PUSH1 0x4 DUP3 ADD MSTORE PUSH1 0x18 PUSH1 0x24 DUP3 ADD MSTORE PUSH24 0x45434453413A20696E76616C6964207369676E6174757265 PUSH1 0x40 SHL PUSH1 0x44 DUP3 ADD MSTORE PUSH1 0x64 ADD PUSH2 0x6CE JUMP JUMPDEST PUSH1 0x2 DUP2 PUSH1 0x4 DUP2 GT ISZERO PUSH2 0x414A JUMPI PUSH2 0x414A PUSH2 0x5286 JUMP JUMPDEST EQ ISZERO PUSH2 0x4198 JUMPI PUSH1 0x40 MLOAD PUSH3 0x461BCD PUSH1 0xE5 SHL DUP2 MSTORE PUSH1 0x20 PUSH1 0x4 DUP3 ADD MSTORE PUSH1 0x1F PUSH1 0x24 DUP3 ADD MSTORE PUSH32 0x45434453413A20696E76616C6964207369676E6174757265206C656E67746800 PUSH1 0x44 DUP3 ADD MSTORE PUSH1 0x64 ADD PUSH2 0x6CE JUMP JUMPDEST PUSH1 0x3 DUP2 PUSH1 0x4 DUP2 GT ISZERO PUSH2 0x41AC JUMPI PUSH2 0x41AC PUSH2 0x5286 JUMP JUMPDEST EQ ISZERO PUSH2 0x4205 JUMPI PUSH1 0x40 MLOAD PUSH3 0x461BCD PUSH1 0xE5 SHL DUP2 MSTORE PUSH1 0x20 PUSH1 0x4 DUP3 ADD MSTORE PUSH1 0x22 PUSH1 0x24 DUP3 ADD MSTORE PUSH32 0x45434453413A20696E76616C6964207369676E6174757265202773272076616C PUSH1 0x44 DUP3 ADD MSTORE PUSH2 0x7565 PUSH1 0xF0 SHL PUSH1 0x64 DUP3 ADD MSTORE PUSH1 0x84 ADD PUSH2 0x6CE JUMP JUMPDEST PUSH1 0x4 DUP2 PUSH1 0x4 DUP2 GT ISZERO PUSH2 0x4219 JUMPI PUSH2 0x4219 PUSH2 0x5286 JUMP JUMPDEST EQ ISZERO PUSH2 0xB85 JUMPI PUSH1 0x40 MLOAD PUSH3 0x461BCD PUSH1 0xE5 SHL DUP2 MSTORE PUSH1 0x20 PUSH1 0x4 DUP3 ADD MSTORE PUSH1 0x22 PUSH1 0x24 DUP3 ADD MSTORE PUSH32 0x45434453413A20696E76616C6964207369676E6174757265202776272076616C PUSH1 0x44 DUP3 ADD MSTORE PUSH2 0x7565 PUSH1 0xF0 SHL PUSH1 0x64 DUP3 ADD MSTORE PUSH1 0x84 ADD PUSH2 0x6CE JUMP JUMPDEST ADDRESS PUSH1 0x0 SWAP1 DUP2 MSTORE PUSH1 0x1 PUSH1 0x20 MSTORE PUSH1 0x40 SWAP1 KECCAK256 SLOAD PUSH2 0x428D SWAP1 DUP3 SWAP1 PUSH2 0x4EE1 JUMP JUMPDEST ADDRESS PUSH1 0x0 SWAP1 DUP2 MSTORE PUSH1 0x1 PUSH1 0x20 MSTORE PUSH1 0x40 SWAP1 KECCAK256 SSTORE PUSH1 0x3 SLOAD PUSH2 0x42AB SWAP1 DUP3 SWAP1 PUSH2 0x4EE1 JUMP JUMPDEST PUSH1 0x3 SSTORE PUSH1 0x40 MLOAD DUP2 DUP2 MSTORE ADDRESS SWAP1 PUSH1 0x0 SWAP1 PUSH1 0x0 DUP1 MLOAD PUSH1 0x20 PUSH2 0x540C DUP4 CODECOPY DUP2 MLOAD SWAP2 MSTORE SWAP1 PUSH1 0x20 ADD JUMPDEST PUSH1 0x40 MLOAD DUP1 SWAP2 SUB SWAP1 LOG3 POP JUMP JUMPDEST PUSH2 0x31C5 ADDRESS DUP4 DUP4 PUSH2 0x2FFA JUMP JUMPDEST PUSH1 0x0 DUP1 DUP3 SGT PUSH2 0x42F4 JUMPI POP PUSH1 0x0 SWAP2 SWAP1 POP JUMP JUMPDEST POP SWAP1 JUMP JUMPDEST PUSH1 0x0 PUSH2 0x9EF DUP3 DUP5 PUSH2 0x3487 JUMP JUMPDEST PUSH1 0x0 DUP1 PUSH2 0x431C PUSH2 0x4313 DUP6 PUSH2 0x42E3 JUMP JUMPDEST PUSH2 0x13EE DUP9 PUSH2 0x42E3 JUMP JUMPDEST SWAP1 POP DUP3 PUSH1 0xFF AND DUP6 PUSH1 0xFF AND EQ ISZERO PUSH2 0x4333 JUMPI SWAP1 POP PUSH2 0x347F JUMP JUMPDEST DUP3 PUSH1 0xFF AND DUP6 PUSH1 0xFF AND GT ISZERO PUSH2 0x4375 JUMPI PUSH2 0x436D DUP2 PUSH8 0xDE0B6B3A7640000 PUSH2 0x4358 DUP7 DUP10 PUSH2 0x529C JUMP JUMPDEST PUSH2 0x4363 SWAP1 PUSH1 0xA PUSH2 0x53A3 JUMP JUMPDEST PUSH2 0x32F7 SWAP2 SWAP1 PUSH2 0x4E2A JUMP JUMPDEST SWAP2 POP POP PUSH2 0x347F JUMP JUMPDEST PUSH2 0x436D DUP2 PUSH8 0xDE0B6B3A7640000 PUSH2 0x438C DUP9 DUP8 PUSH2 0x529C JUMP JUMPDEST PUSH2 0x4397 SWAP1 PUSH1 0xA PUSH2 0x53A3 JUMP JUMPDEST PUSH2 0x13EE SWAP2 SWAP1 PUSH2 0x4E2A JUMP JUMPDEST PUSH2 0x31C5 DUP3 ADDRESS DUP4 PUSH2 0x2FFA JUMP JUMPDEST ADDRESS PUSH1 0x0 SWAP1 DUP2 MSTORE PUSH1 0x1 PUSH1 0x20 MSTORE PUSH1 0x40 SWAP1 KECCAK256 SLOAD PUSH2 0x43C7 SWAP1 DUP3 SWAP1 PUSH2 0x4DDD JUMP JUMPDEST ADDRESS PUSH1 0x0 SWAP1 DUP2 MSTORE PUSH1 0x1 PUSH1 0x20 MSTORE PUSH1 0x40 SWAP1 KECCAK256 SSTORE PUSH1 0x3 SLOAD PUSH2 0x43E5 SWAP1 DUP3 SWAP1 PUSH2 0x4DDD JUMP JUMPDEST PUSH1 0x3 SSTORE PUSH1 0x40 MLOAD DUP2 DUP2 MSTORE PUSH1 0x0 SWAP1 ADDRESS SWAP1 PUSH1 0x0 DUP1 MLOAD PUSH1 0x20 PUSH2 0x540C DUP4 CODECOPY DUP2 MLOAD SWAP2 MSTORE SWAP1 PUSH1 0x20 ADD PUSH2 0x42CD JUMP JUMPDEST PUSH2 0xF8D DUP4 PUSH4 0xA9059CBB PUSH1 0xE0 SHL DUP5 DUP5 PUSH1 0x40 MLOAD PUSH1 0x24 ADD PUSH2 0x442A SWAP3 SWAP2 SWAP1 PUSH2 0x526D JUMP JUMPDEST PUSH1 0x40 DUP1 MLOAD PUSH1 0x1F NOT DUP2 DUP5 SUB ADD DUP2 MSTORE SWAP2 SWAP1 MSTORE PUSH1 0x20 DUP2 ADD DUP1 MLOAD PUSH1 0x1 PUSH1 0x1 PUSH1 0xE0 SHL SUB AND PUSH1 0x1 PUSH1 0x1 PUSH1 0xE0 SHL SUB NOT SWAP1 SWAP4 AND SWAP3 SWAP1 SWAP3 OR SWAP1 SWAP2 MSTORE PUSH2 0x465E JUMP JUMPDEST PUSH1 0x40 MLOAD PUSH1 0x1 PUSH1 0x1 PUSH1 0xA0 SHL SUB DUP1 DUP6 AND PUSH1 0x24 DUP4 ADD MSTORE DUP4 AND PUSH1 0x44 DUP3 ADD MSTORE PUSH1 0x64 DUP2 ADD DUP3 SWAP1 MSTORE PUSH2 0x1B11 SWAP1 DUP6 SWAP1 PUSH4 0x23B872DD PUSH1 0xE0 SHL SWAP1 PUSH1 0x84 ADD PUSH2 0x442A JUMP JUMPDEST PUSH1 0x0 DUP1 DUP3 PUSH1 0x1 PUSH1 0x1 PUSH1 0xA0 SHL SUB AND PUSH4 0xFEAF968C PUSH1 0x40 MLOAD DUP2 PUSH4 0xFFFFFFFF AND PUSH1 0xE0 SHL DUP2 MSTORE PUSH1 0x4 ADD PUSH1 0xA0 PUSH1 0x40 MLOAD DUP1 DUP4 SUB DUP2 DUP7 GAS STATICCALL ISZERO DUP1 ISZERO PUSH2 0x44DA JUMPI RETURNDATASIZE PUSH1 0x0 DUP1 RETURNDATACOPY RETURNDATASIZE PUSH1 0x0 REVERT JUMPDEST POP POP POP POP PUSH1 0x40 MLOAD RETURNDATASIZE PUSH1 0x1F NOT PUSH1 0x1F DUP3 ADD AND DUP3 ADD DUP1 PUSH1 0x40 MSTORE POP DUP2 ADD SWAP1 PUSH2 0x44FE SWAP2 SWAP1 PUSH2 0x510E JUMP JUMPDEST POP POP POP SWAP2 POP POP PUSH1 0x0 DUP2 SGT PUSH2 0x4539 JUMPI PUSH1 0x40 MLOAD PUSH3 0x461BCD PUSH1 0xE5 SHL DUP2 MSTORE PUSH1 0x20 PUSH1 0x4 DUP3 ADD MSTORE PUSH1 0x2 PUSH1 0x24 DUP3 ADD MSTORE PUSH2 0x189B PUSH1 0xF1 SHL PUSH1 0x44 DUP3 ADD MSTORE PUSH1 0x64 ADD PUSH2 0x6CE JUMP JUMPDEST PUSH2 0x9EF DUP2 PUSH2 0x42E3 JUMP JUMPDEST PUSH1 0x0 DUP1 PUSH16 0xA2A8918CA85BAFE22016D0B997E4DF60 PUSH1 0x1 PUSH1 0xFF SHL SUB DUP4 GT ISZERO PUSH2 0x456F JUMPI POP PUSH1 0x0 SWAP1 POP PUSH1 0x3 PUSH2 0x461C JUMP JUMPDEST DUP5 PUSH1 0xFF AND PUSH1 0x1B EQ ISZERO DUP1 ISZERO PUSH2 0x4587 JUMPI POP DUP5 PUSH1 0xFF AND PUSH1 0x1C EQ ISZERO JUMPDEST ISZERO PUSH2 0x4598 JUMPI POP PUSH1 0x0 SWAP1 POP PUSH1 0x4 PUSH2 0x461C JUMP JUMPDEST PUSH1 0x40 DUP1 MLOAD PUSH1 0x0 DUP1 DUP3 MSTORE PUSH1 0x20 DUP3 ADD DUP1 DUP5 MSTORE DUP10 SWAP1 MSTORE PUSH1 0xFF DUP9 AND SWAP3 DUP3 ADD SWAP3 SWAP1 SWAP3 MSTORE PUSH1 0x60 DUP2 ADD DUP7 SWAP1 MSTORE PUSH1 0x80 DUP2 ADD DUP6 SWAP1 MSTORE PUSH1 0x1 SWAP1 PUSH1 0xA0 ADD PUSH1 0x20 PUSH1 0x40 MLOAD PUSH1 0x20 DUP2 SUB SWAP1 DUP1 DUP5 SUB SWAP1 DUP6 GAS STATICCALL ISZERO DUP1 ISZERO PUSH2 0x45EC JUMPI RETURNDATASIZE PUSH1 0x0 DUP1 RETURNDATACOPY RETURNDATASIZE PUSH1 0x0 REVERT JUMPDEST POP POP PUSH1 0x40 MLOAD PUSH1 0x1F NOT ADD MLOAD SWAP2 POP POP PUSH1 0x1 PUSH1 0x1 PUSH1 0xA0 SHL SUB DUP2 AND PUSH2 0x4615 JUMPI PUSH1 0x0 PUSH1 0x1 SWAP3 POP SWAP3 POP POP PUSH2 0x461C JUMP JUMPDEST SWAP2 POP PUSH1 0x0 SWAP1 POP JUMPDEST SWAP5 POP SWAP5 SWAP3 POP POP POP JUMP JUMPDEST PUSH1 0x0 DUP1 PUSH1 0x1 PUSH1 0x1 PUSH1 0xFF SHL SUB DUP4 AND DUP2 PUSH2 0x4642 PUSH1 0xFF DUP7 SWAP1 SHR PUSH1 0x1B PUSH2 0x4EE1 JUMP JUMPDEST SWAP1 POP PUSH2 0x4650 DUP8 DUP3 DUP9 DUP6 PUSH2 0x4542 JUMP JUMPDEST SWAP4 POP SWAP4 POP POP POP SWAP4 POP SWAP4 SWAP2 POP POP JUMP JUMPDEST PUSH1 0x0 PUSH2 0x46B3 DUP3 PUSH1 0x40 MLOAD DUP1 PUSH1 0x40 ADD PUSH1 0x40 MSTORE DUP1 PUSH1 0x20 DUP2 MSTORE PUSH1 0x20 ADD PUSH32 0x5361666545524332303A206C6F772D6C6576656C2063616C6C206661696C6564 DUP2 MSTORE POP DUP6 PUSH1 0x1 PUSH1 0x1 PUSH1 0xA0 SHL SUB AND PUSH2 0x4730 SWAP1 SWAP3 SWAP2 SWAP1 PUSH4 0xFFFFFFFF AND JUMP JUMPDEST DUP1 MLOAD SWAP1 SWAP2 POP ISZERO PUSH2 0xF8D JUMPI DUP1 DUP1 PUSH1 0x20 ADD SWAP1 MLOAD DUP2 ADD SWAP1 PUSH2 0x46D1 SWAP2 SWAP1 PUSH2 0x53B2 JUMP JUMPDEST PUSH2 0xF8D JUMPI PUSH1 0x40 MLOAD PUSH3 0x461BCD PUSH1 0xE5 SHL DUP2 MSTORE PUSH1 0x20 PUSH1 0x4 DUP3 ADD MSTORE PUSH1 0x2A PUSH1 0x24 DUP3 ADD MSTORE PUSH32 0x5361666545524332303A204552433230206F7065726174696F6E20646964206E PUSH1 0x44 DUP3 ADD MSTORE PUSH10 0x1BDD081CDD58D8D95959 PUSH1 0xB2 SHL PUSH1 0x64 DUP3 ADD MSTORE PUSH1 0x84 ADD PUSH2 0x6CE JUMP JUMPDEST PUSH1 0x60 PUSH2 0x347F DUP5 DUP5 PUSH1 0x0 DUP6 DUP6 PUSH1 0x1 PUSH1 0x1 PUSH1 0xA0 SHL SUB DUP6 AND EXTCODESIZE PUSH2 0x4792 JUMPI PUSH1 0x40 MLOAD PUSH3 0x461BCD PUSH1 0xE5 SHL DUP2 MSTORE PUSH1 0x20 PUSH1 0x4 DUP3 ADD MSTORE PUSH1 0x1D PUSH1 0x24 DUP3 ADD MSTORE PUSH32 0x416464726573733A2063616C6C20746F206E6F6E2D636F6E7472616374000000 PUSH1 0x44 DUP3 ADD MSTORE PUSH1 0x64 ADD PUSH2 0x6CE JUMP JUMPDEST PUSH1 0x0 DUP1 DUP7 PUSH1 0x1 PUSH1 0x1 PUSH1 0xA0 SHL SUB AND DUP6 DUP8 PUSH1 0x40 MLOAD PUSH2 0x47AE SWAP2 SWAP1 PUSH2 0x53CF JUMP JUMPDEST PUSH1 0x0 PUSH1 0x40 MLOAD DUP1 DUP4 SUB DUP2 DUP6 DUP8 GAS CALL SWAP3 POP POP POP RETURNDATASIZE DUP1 PUSH1 0x0 DUP2 EQ PUSH2 0x47EB JUMPI PUSH1 0x40 MLOAD SWAP2 POP PUSH1 0x1F NOT PUSH1 0x3F RETURNDATASIZE ADD AND DUP3 ADD PUSH1 0x40 MSTORE RETURNDATASIZE DUP3 MSTORE RETURNDATASIZE PUSH1 0x0 PUSH1 0x20 DUP5 ADD RETURNDATACOPY PUSH2 0x47F0 JUMP JUMPDEST PUSH1 0x60 SWAP2 POP JUMPDEST POP SWAP2 POP SWAP2 POP PUSH2 0x4800 DUP3 DUP3 DUP7 PUSH2 0x480B JUMP JUMPDEST SWAP8 SWAP7 POP POP POP POP POP POP POP JUMP JUMPDEST PUSH1 0x60 DUP4 ISZERO PUSH2 0x481A JUMPI POP DUP2 PUSH2 0x9EF JUMP JUMPDEST DUP3 MLOAD ISZERO PUSH2 0x482A JUMPI DUP3 MLOAD DUP1 DUP5 PUSH1 0x20 ADD REVERT JUMPDEST DUP2 PUSH1 0x40 MLOAD PUSH3 0x461BCD PUSH1 0xE5 SHL DUP2 MSTORE PUSH1 0x4 ADD PUSH2 0x6CE SWAP2 SWAP1 PUSH2 0x49EF JUMP JUMPDEST PUSH1 0x40 MLOAD DUP1 PUSH1 0x40 ADD PUSH1 0x40 MSTORE DUP1 PUSH1 0x0 DUP2 MSTORE PUSH1 0x20 ADD PUSH1 0x0 DUP2 MSTORE POP SWAP1 JUMP JUMPDEST PUSH1 0x40 DUP1 MLOAD PUSH1 0x80 DUP2 ADD DUP3 MSTORE PUSH1 0x0 SWAP2 DUP2 ADD DUP3 DUP2 MSTORE PUSH1 0x60 DUP3 ADD SWAP3 SWAP1 SWAP3 MSTORE SWAP1 DUP2 SWAP1 DUP2 MSTORE PUSH1 0x40 DUP1 MLOAD PUSH1 0x80 DUP2 ADD DUP3 MSTORE PUSH1 0x0 DUP1 DUP3 MSTORE PUSH1 0x20 DUP3 DUP2 ADD DUP3 SWAP1 MSTORE SWAP3 DUP3 ADD DUP2 SWAP1 MSTORE PUSH1 0x60 DUP3 ADD MSTORE SWAP2 ADD MSTORE SWAP1 JUMP JUMPDEST PUSH1 0x0 DUP1 DUP4 PUSH1 0x1F DUP5 ADD SLT PUSH2 0x48B7 JUMPI PUSH1 0x0 DUP1 REVERT JUMPDEST POP DUP2 CALLDATALOAD PUSH1 0x1 PUSH1 0x1 PUSH1 0x40 SHL SUB DUP2 GT ISZERO PUSH2 0x48CE JUMPI PUSH1 0x0 DUP1 REVERT JUMPDEST PUSH1 0x20 DUP4 ADD SWAP2 POP DUP4 PUSH1 0x20 DUP3 PUSH1 0x5 SHL DUP6 ADD ADD GT ISZERO PUSH2 0x40B5 JUMPI PUSH1 0x0 DUP1 REVERT JUMPDEST DUP1 CALLDATALOAD PUSH1 0x1 PUSH1 0x1 PUSH1 0xA0 SHL SUB DUP2 AND DUP2 EQ PUSH2 0x4900 JUMPI PUSH1 0x0 DUP1 REVERT JUMPDEST SWAP2 SWAP1 POP JUMP JUMPDEST PUSH1 0x0 DUP1 PUSH1 0x0 DUP1 PUSH1 0x0 DUP1 PUSH1 0x0 PUSH1 0xA0 DUP9 DUP11 SUB SLT ISZERO PUSH2 0x4920 JUMPI PUSH1 0x0 DUP1 REVERT JUMPDEST DUP8 CALLDATALOAD PUSH1 0x1 PUSH1 0x1 PUSH1 0x40 SHL SUB DUP1 DUP3 GT ISZERO PUSH2 0x4937 JUMPI PUSH1 0x0 DUP1 REVERT JUMPDEST DUP2 DUP11 ADD SWAP2 POP DUP11 PUSH1 0x1F DUP4 ADD SLT PUSH2 0x494B JUMPI PUSH1 0x0 DUP1 REVERT JUMPDEST DUP2 CALLDATALOAD DUP2 DUP2 GT ISZERO PUSH2 0x495A JUMPI PUSH1 0x0 DUP1 REVERT JUMPDEST DUP12 PUSH1 0x20 DUP3 DUP6 ADD ADD GT ISZERO PUSH2 0x496C JUMPI PUSH1 0x0 DUP1 REVERT JUMPDEST PUSH1 0x20 SWAP3 DUP4 ADD SWAP10 POP SWAP8 POP SWAP1 DUP10 ADD CALLDATALOAD SWAP1 DUP1 DUP3 GT ISZERO PUSH2 0x4987 JUMPI PUSH1 0x0 DUP1 REVERT JUMPDEST POP PUSH2 0x4994 DUP11 DUP3 DUP12 ADD PUSH2 0x48A5 JUMP JUMPDEST SWAP1 SWAP7 POP SWAP5 POP PUSH2 0x49A7 SWAP1 POP PUSH1 0x40 DUP10 ADD PUSH2 0x48E9 JUMP JUMPDEST SWAP3 POP PUSH1 0x60 DUP9 ADD CALLDATALOAD SWAP2 POP PUSH1 0x80 DUP9 ADD CALLDATALOAD SWAP1 POP SWAP3 SWAP6 SWAP9 SWAP2 SWAP5 SWAP8 POP SWAP3 SWAP6 POP JUMP JUMPDEST PUSH1 0x0 JUMPDEST DUP4 DUP2 LT ISZERO PUSH2 0x49DE JUMPI DUP2 DUP2 ADD MLOAD DUP4 DUP3 ADD MSTORE PUSH1 0x20 ADD PUSH2 0x49C6 JUMP JUMPDEST DUP4 DUP2 GT ISZERO PUSH2 0x1B11 JUMPI POP POP PUSH1 0x0 SWAP2 ADD MSTORE JUMP JUMPDEST PUSH1 0x20 DUP2 MSTORE PUSH1 0x0 DUP3 MLOAD DUP1 PUSH1 0x20 DUP5 ADD MSTORE PUSH2 0x4A0E DUP2 PUSH1 0x40 DUP6 ADD PUSH1 0x20 DUP8 ADD PUSH2 0x49C3 JUMP JUMPDEST PUSH1 0x1F ADD PUSH1 0x1F NOT AND SWAP2 SWAP1 SWAP2 ADD PUSH1 0x40 ADD SWAP3 SWAP2 POP POP JUMP JUMPDEST PUSH1 0x0 DUP1 PUSH1 0x40 DUP4 DUP6 SUB SLT ISZERO PUSH2 0x4A35 JUMPI PUSH1 0x0 DUP1 REVERT JUMPDEST PUSH2 0x4A3E DUP4 PUSH2 0x48E9 JUMP JUMPDEST SWAP5 PUSH1 0x20 SWAP4 SWAP1 SWAP4 ADD CALLDATALOAD SWAP4 POP POP POP JUMP JUMPDEST PUSH1 0x0 DUP1 PUSH1 0x40 DUP4 DUP6 SUB SLT ISZERO PUSH2 0x4A5F JUMPI PUSH1 0x0 DUP1 REVERT JUMPDEST PUSH2 0x4A68 DUP4 PUSH2 0x48E9 JUMP JUMPDEST SWAP2 POP PUSH2 0x4A76 PUSH1 0x20 DUP5 ADD PUSH2 0x48E9 JUMP JUMPDEST SWAP1 POP SWAP3 POP SWAP3 SWAP1 POP JUMP JUMPDEST PUSH1 0x0 DUP1 PUSH1 0x0 PUSH1 0x60 DUP5 DUP7 SUB SLT ISZERO PUSH2 0x4A94 JUMPI PUSH1 0x0 DUP1 REVERT JUMPDEST PUSH2 0x4A9D DUP5 PUSH2 0x48E9 JUMP JUMPDEST SWAP3 POP PUSH2 0x4AAB PUSH1 0x20 DUP6 ADD PUSH2 0x48E9 JUMP JUMPDEST SWAP2 POP PUSH1 0x40 DUP5 ADD CALLDATALOAD SWAP1 POP SWAP3 POP SWAP3 POP SWAP3 JUMP JUMPDEST PUSH1 0x0 PUSH1 0x20 DUP3 DUP5 SUB SLT ISZERO PUSH2 0x4ACD JUMPI PUSH1 0x0 DUP1 REVERT JUMPDEST PUSH2 0x9EF DUP3 PUSH2 0x48E9 JUMP JUMPDEST PUSH1 0x1 PUSH1 0x1 PUSH1 0xA0 SHL SUB SWAP2 SWAP1 SWAP2 AND DUP2 MSTORE PUSH1 0x20 ADD SWAP1 JUMP JUMPDEST PUSH1 0x0 PUSH1 0x20 DUP3 DUP5 SUB SLT ISZERO PUSH2 0x4AFC JUMPI PUSH1 0x0 DUP1 REVERT JUMPDEST POP CALLDATALOAD SWAP2 SWAP1 POP JUMP JUMPDEST PUSH1 0x0 PUSH1 0x20 DUP3 DUP5 SUB SLT ISZERO PUSH2 0x4B15 JUMPI PUSH1 0x0 DUP1 REVERT JUMPDEST DUP2 CALLDATALOAD PUSH1 0x1 PUSH1 0x1 PUSH1 0x40 SHL SUB DUP2 AND DUP2 EQ PUSH2 0x9EF JUMPI PUSH1 0x0 DUP1 REVERT JUMPDEST PUSH1 0xFF DUP2 AND DUP2 EQ PUSH2 0xB85 JUMPI PUSH1 0x0 DUP1 REVERT JUMPDEST PUSH1 0x0 PUSH1 0x20 DUP3 DUP5 SUB SLT ISZERO PUSH2 0x4B4D JUMPI PUSH1 0x0 DUP1 REVERT JUMPDEST DUP2 CALLDATALOAD PUSH2 0x9EF DUP2 PUSH2 0x4B2C JUMP JUMPDEST DUP1 ISZERO ISZERO DUP2 EQ PUSH2 0xB85 JUMPI PUSH1 0x0 DUP1 REVERT JUMPDEST PUSH1 0x0 PUSH1 0x20 DUP3 DUP5 SUB SLT ISZERO PUSH2 0x4B78 JUMPI PUSH1 0x0 DUP1 REVERT JUMPDEST DUP2 CALLDATALOAD PUSH2 0x9EF DUP2 PUSH2 0x4B58 JUMP JUMPDEST PUSH1 0x0 DUP1 PUSH1 0x0 PUSH1 0x40 DUP5 DUP7 SUB SLT ISZERO PUSH2 0x4B98 JUMPI PUSH1 0x0 DUP1 REVERT JUMPDEST DUP4 CALLDATALOAD SWAP3 POP PUSH1 0x20 DUP5 ADD CALLDATALOAD PUSH1 0x1 PUSH1 0x1 PUSH1 0x40 SHL SUB DUP2 GT ISZERO PUSH2 0x4BB5 JUMPI PUSH1 0x0 DUP1 REVERT JUMPDEST PUSH2 0x4BC1 DUP7 DUP3 DUP8 ADD PUSH2 0x48A5 JUMP JUMPDEST SWAP5 SWAP8 SWAP1 SWAP7 POP SWAP4 SWAP5 POP POP POP POP JUMP JUMPDEST PUSH1 0x0 DUP1 PUSH1 0x0 DUP1 PUSH1 0x0 PUSH1 0xA0 DUP7 DUP9 SUB SLT ISZERO PUSH2 0x4BE6 JUMPI PUSH1 0x0 DUP1 REVERT JUMPDEST PUSH2 0x4BEF DUP7 PUSH2 0x48E9 JUMP JUMPDEST SWAP5 POP PUSH1 0x20 DUP7 ADD CALLDATALOAD SWAP4 POP PUSH2 0x4C04 PUSH1 0x40 DUP8 ADD PUSH2 0x48E9 JUMP JUMPDEST SWAP5 SWAP8 SWAP4 SWAP7 POP SWAP4 SWAP5 PUSH1 0x60 DUP2 ADD CALLDATALOAD SWAP5 POP PUSH1 0x80 ADD CALLDATALOAD SWAP3 SWAP2 POP POP JUMP JUMPDEST DUP1 MLOAD DUP3 MSTORE PUSH1 0x20 SWAP1 DUP2 ADD MLOAD SWAP2 ADD MSTORE JUMP JUMPDEST PUSH1 0x60 DUP2 ADD PUSH2 0x4C39 DUP3 DUP6 PUSH2 0x4C1C JUMP JUMPDEST DUP3 PUSH1 0x40 DUP4 ADD MSTORE SWAP4 SWAP3 POP POP POP JUMP JUMPDEST PUSH1 0x0 DUP1 PUSH1 0x0 PUSH1 0x60 DUP5 DUP7 SUB SLT ISZERO PUSH2 0x4C5B JUMPI PUSH1 0x0 DUP1 REVERT JUMPDEST PUSH2 0x4C64 DUP5 PUSH2 0x48E9 JUMP JUMPDEST SWAP6 PUSH1 0x20 DUP6 ADD CALLDATALOAD SWAP6 POP PUSH1 0x40 SWAP1 SWAP5 ADD CALLDATALOAD SWAP4 SWAP3 POP POP POP JUMP JUMPDEST PUSH1 0x1 PUSH1 0x1 PUSH1 0x50 SHL SUB DUP2 AND DUP2 EQ PUSH2 0xB85 JUMPI PUSH1 0x0 DUP1 REVERT JUMPDEST PUSH1 0x0 DUP1 PUSH1 0x0 DUP1 PUSH1 0x80 DUP6 DUP8 SUB SLT ISZERO PUSH2 0x4CA4 JUMPI PUSH1 0x0 DUP1 REVERT JUMPDEST PUSH2 0x4CAD DUP6 PUSH2 0x48E9 JUMP JUMPDEST SWAP4 POP PUSH1 0x20 DUP6 ADD CALLDATALOAD SWAP3 POP PUSH1 0x40 DUP6 ADD CALLDATALOAD PUSH2 0x4CC4 DUP2 PUSH2 0x4C79 JUMP JUMPDEST SWAP2 POP PUSH2 0x4CD2 PUSH1 0x60 DUP7 ADD PUSH2 0x48E9 JUMP JUMPDEST SWAP1 POP SWAP3 SWAP6 SWAP2 SWAP5 POP SWAP3 POP JUMP JUMPDEST PUSH1 0x20 DUP1 DUP3 MSTORE DUP3 MLOAD DUP3 DUP3 ADD DUP2 SWAP1 MSTORE PUSH1 0x0 SWAP2 SWAP1 DUP5 DUP3 ADD SWAP1 PUSH1 0x40 DUP6 ADD SWAP1 DUP5 JUMPDEST DUP2 DUP2 LT ISZERO PUSH2 0x4D1E JUMPI DUP4 MLOAD PUSH1 0x1 PUSH1 0x1 PUSH1 0xA0 SHL SUB AND DUP4 MSTORE SWAP3 DUP5 ADD SWAP3 SWAP2 DUP5 ADD SWAP2 PUSH1 0x1 ADD PUSH2 0x4CF9 JUMP JUMPDEST POP SWAP1 SWAP7 SWAP6 POP POP POP POP POP POP JUMP JUMPDEST DUP8 DUP2 MSTORE PUSH1 0x1 PUSH1 0x1 PUSH1 0xA0 SHL SUB DUP8 AND PUSH1 0x20 DUP3 ADD MSTORE PUSH1 0x40 DUP2 ADD DUP7 SWAP1 MSTORE PUSH1 0xC0 PUSH1 0x60 DUP3 ADD DUP2 SWAP1 MSTORE DUP2 ADD DUP5 SWAP1 MSTORE PUSH1 0x0 PUSH1 0x1 PUSH1 0x1 PUSH1 0xFB SHL SUB DUP6 GT ISZERO PUSH2 0x4D67 JUMPI PUSH1 0x0 DUP1 REVERT JUMPDEST DUP5 PUSH1 0x5 SHL DUP1 DUP8 PUSH1 0xE0 DUP6 ADD CALLDATACOPY PUSH1 0x0 SWAP1 DUP4 ADD PUSH1 0xE0 ADD SWAP1 DUP2 MSTORE PUSH1 0x80 DUP4 ADD SWAP5 SWAP1 SWAP5 MSTORE POP PUSH1 0xA0 ADD MSTORE SWAP6 SWAP5 POP POP POP POP POP JUMP JUMPDEST PUSH1 0x20 DUP1 DUP3 MSTORE PUSH1 0x1 SWAP1 DUP3 ADD MSTORE PUSH1 0x19 PUSH1 0xF9 SHL PUSH1 0x40 DUP3 ADD MSTORE PUSH1 0x60 ADD SWAP1 JUMP JUMPDEST PUSH1 0x0 PUSH1 0x20 DUP3 DUP5 SUB SLT ISZERO PUSH2 0x4DC0 JUMPI PUSH1 0x0 DUP1 REVERT JUMPDEST POP MLOAD SWAP2 SWAP1 POP JUMP JUMPDEST PUSH4 0x4E487B71 PUSH1 0xE0 SHL PUSH1 0x0 MSTORE PUSH1 0x11 PUSH1 0x4 MSTORE PUSH1 0x24 PUSH1 0x0 REVERT JUMPDEST PUSH1 0x0 DUP3 DUP3 LT ISZERO PUSH2 0x4DEF JUMPI PUSH2 0x4DEF PUSH2 0x4DC7 JUMP JUMPDEST POP SUB SWAP1 JUMP JUMPDEST PUSH1 0x20 DUP1 DUP3 MSTORE PUSH1 0x1 SWAP1 DUP3 ADD MSTORE PUSH1 0xD PUSH1 0xFA SHL PUSH1 0x40 DUP3 ADD MSTORE PUSH1 0x60 ADD SWAP1 JUMP JUMPDEST PUSH1 0x20 DUP1 DUP3 MSTORE PUSH1 0x1 SWAP1 DUP3 ADD MSTORE PUSH1 0x33 PUSH1 0xF8 SHL PUSH1 0x40 DUP3 ADD MSTORE PUSH1 0x60 ADD SWAP1 JUMP JUMPDEST PUSH1 0x0 DUP2 PUSH1 0x0 NOT DIV DUP4 GT DUP3 ISZERO ISZERO AND ISZERO PUSH2 0x4E44 JUMPI PUSH2 0x4E44 PUSH2 0x4DC7 JUMP JUMPDEST POP MUL SWAP1 JUMP JUMPDEST PUSH1 0x0 DUP3 PUSH2 0x4E66 JUMPI PUSH4 0x4E487B71 PUSH1 0xE0 SHL PUSH1 0x0 MSTORE PUSH1 0x12 PUSH1 0x4 MSTORE PUSH1 0x24 PUSH1 0x0 REVERT JUMPDEST POP DIV SWAP1 JUMP JUMPDEST PUSH1 0x20 DUP1 DUP3 MSTORE PUSH1 0x2 SWAP1 DUP3 ADD MSTORE PUSH2 0x313 PUSH1 0xF4 SHL PUSH1 0x40 DUP3 ADD MSTORE PUSH1 0x60 ADD SWAP1 JUMP JUMPDEST SWAP5 DUP6 MSTORE PUSH1 0x20 DUP6 ADD SWAP4 SWAP1 SWAP4 MSTORE PUSH1 0x40 DUP5 ADD SWAP2 SWAP1 SWAP2 MSTORE PUSH1 0x60 DUP4 ADD MSTORE PUSH1 0x80 DUP3 ADD MSTORE PUSH1 0xA0 ADD SWAP1 JUMP JUMPDEST PUSH1 0x20 DUP1 DUP3 MSTORE PUSH1 0x2 SWAP1 DUP3 ADD MSTORE PUSH2 0x3131 PUSH1 0xF0 SHL PUSH1 0x40 DUP3 ADD MSTORE PUSH1 0x60 ADD SWAP1 JUMP JUMPDEST PUSH1 0x20 DUP1 DUP3 MSTORE PUSH1 0x1 SWAP1 DUP3 ADD MSTORE PUSH1 0x7 PUSH1 0xFB SHL PUSH1 0x40 DUP3 ADD MSTORE PUSH1 0x60 ADD SWAP1 JUMP JUMPDEST PUSH1 0x0 DUP3 NOT DUP3 GT ISZERO PUSH2 0x4EF4 JUMPI PUSH2 0x4EF4 PUSH2 0x4DC7 JUMP JUMPDEST POP ADD SWAP1 JUMP JUMPDEST PUSH1 0x20 DUP1 DUP3 MSTORE PUSH1 0x1 SWAP1 DUP3 ADD MSTORE PUSH1 0x35 PUSH1 0xF8 SHL PUSH1 0x40 DUP3 ADD MSTORE PUSH1 0x60 ADD SWAP1 JUMP JUMPDEST PUSH1 0x20 DUP1 DUP3 MSTORE PUSH1 0x2 SWAP1 DUP3 ADD MSTORE PUSH2 0xD0D PUSH1 0xF2 SHL PUSH1 0x40 DUP3 ADD MSTORE PUSH1 0x60 ADD SWAP1 JUMP JUMPDEST PUSH1 0x20 DUP1 DUP3 MSTORE PUSH1 0x1 SWAP1 DUP3 ADD MSTORE PUSH1 0x31 PUSH1 0xF8 SHL PUSH1 0x40 DUP3 ADD MSTORE PUSH1 0x60 ADD SWAP1 JUMP JUMPDEST PUSH2 0x4F56 DUP3 DUP3 MLOAD PUSH2 0x4C1C JUMP JUMPDEST PUSH1 0x20 SWAP1 DUP2 ADD MLOAD DUP1 MLOAD PUSH1 0x1 PUSH1 0x1 PUSH1 0xA0 SHL SUB AND PUSH1 0x40 DUP5 DUP2 ADD SWAP2 SWAP1 SWAP2 MSTORE SWAP2 DUP2 ADD MLOAD PUSH1 0x1 PUSH1 0x1 PUSH1 0x50 SHL SUB AND PUSH1 0x60 DUP1 DUP6 ADD SWAP2 SWAP1 SWAP2 MSTORE SWAP2 DUP2 ADD MLOAD PUSH1 0x80 DUP5 ADD MSTORE ADD MLOAD PUSH1 0xA0 SWAP1 SWAP2 ADD MSTORE JUMP JUMPDEST DUP1 MLOAD DUP3 MSTORE PUSH1 0x20 DUP1 DUP3 ADD MLOAD SWAP1 DUP4 ADD MSTORE PUSH1 0x40 SWAP1 DUP2 ADD MLOAD SWAP2 ADD MSTORE JUMP JUMPDEST DUP1 MLOAD PUSH1 0xFF AND DUP3 MSTORE PUSH1 0x20 DUP1 DUP3 ADD MLOAD SWAP1 DUP4 ADD MSTORE PUSH1 0x40 SWAP1 DUP2 ADD MLOAD SWAP2 ADD MSTORE JUMP JUMPDEST PUSH1 0x0 PUSH2 0x200 DUP1 DUP4 ADD DUP10 DUP5 MSTORE PUSH1 0x20 PUSH2 0x4FE7 DUP2 DUP7 ADD DUP12 PUSH2 0x4F4B JUMP JUMPDEST PUSH1 0xE0 DUP6 ADD SWAP3 SWAP1 SWAP3 MSTORE DUP8 MLOAD SWAP1 DUP2 SWAP1 MSTORE PUSH2 0x220 DUP5 ADD SWAP2 DUP1 DUP10 ADD SWAP2 PUSH1 0x0 JUMPDEST DUP2 DUP2 LT ISZERO PUSH2 0x5028 JUMPI PUSH2 0x5015 DUP6 DUP6 MLOAD PUSH2 0x4F4B JUMP JUMPDEST PUSH1 0xC0 SWAP5 SWAP1 SWAP5 ADD SWAP4 SWAP3 DUP3 ADD SWAP3 PUSH1 0x1 ADD PUSH2 0x5002 JUMP JUMPDEST POP POP POP POP DUP1 SWAP2 POP POP PUSH2 0x503E PUSH2 0x100 DUP4 ADD DUP7 PUSH2 0x4F99 JUMP JUMPDEST PUSH2 0x504C PUSH2 0x160 DUP4 ADD DUP6 PUSH2 0x4C1C JUMP JUMPDEST PUSH2 0x4800 PUSH2 0x1A0 DUP4 ADD DUP5 PUSH2 0x4FB2 JUMP JUMPDEST SWAP3 DUP4 MSTORE PUSH1 0x20 DUP4 ADD SWAP2 SWAP1 SWAP2 MSTORE PUSH1 0x40 DUP3 ADD MSTORE PUSH1 0x60 ADD SWAP1 JUMP JUMPDEST PUSH1 0x20 DUP1 DUP3 MSTORE PUSH1 0x1 SWAP1 DUP3 ADD MSTORE PUSH1 0x39 PUSH1 0xF8 SHL PUSH1 0x40 DUP3 ADD MSTORE PUSH1 0x60 ADD SWAP1 JUMP JUMPDEST PUSH4 0x4E487B71 PUSH1 0xE0 SHL PUSH1 0x0 MSTORE PUSH1 0x32 PUSH1 0x4 MSTORE PUSH1 0x24 PUSH1 0x0 REVERT JUMPDEST PUSH1 0x0 PUSH1 0x1 PUSH1 0x1 PUSH1 0x50 SHL SUB DUP4 DUP2 AND SWAP1 DUP4 AND DUP2 DUP2 LT ISZERO PUSH2 0x50C1 JUMPI PUSH2 0x50C1 PUSH2 0x4DC7 JUMP JUMPDEST SUB SWAP4 SWAP3 POP POP POP JUMP JUMPDEST PUSH4 0x4E487B71 PUSH1 0xE0 SHL PUSH1 0x0 MSTORE PUSH1 0x31 PUSH1 0x4 MSTORE PUSH1 0x24 PUSH1 0x0 REVERT JUMPDEST PUSH1 0x20 DUP2 MSTORE DUP2 PUSH1 0x20 DUP3 ADD MSTORE DUP2 DUP4 PUSH1 0x40 DUP4 ADD CALLDATACOPY PUSH1 0x0 DUP2 DUP4 ADD PUSH1 0x40 SWAP1 DUP2 ADD SWAP2 SWAP1 SWAP2 MSTORE PUSH1 0x1F SWAP1 SWAP3 ADD PUSH1 0x1F NOT AND ADD ADD SWAP2 SWAP1 POP JUMP JUMPDEST PUSH1 0x0 DUP1 PUSH1 0x0 DUP1 PUSH1 0x0 PUSH1 0xA0 DUP7 DUP9 SUB SLT ISZERO PUSH2 0x5126 JUMPI PUSH1 0x0 DUP1 REVERT JUMPDEST DUP6 MLOAD PUSH2 0x5131 DUP2 PUSH2 0x4C79 JUMP JUMPDEST DUP1 SWAP6 POP POP PUSH1 0x20 DUP7 ADD MLOAD SWAP4 POP PUSH1 0x40 DUP7 ADD MLOAD SWAP3 POP PUSH1 0x60 DUP7 ADD MLOAD SWAP2 POP PUSH1 0x80 DUP7 ADD MLOAD PUSH2 0x5158 DUP2 PUSH2 0x4C79 JUMP JUMPDEST DUP1 SWAP2 POP POP SWAP3 SWAP6 POP SWAP3 SWAP6 SWAP1 SWAP4 POP JUMP JUMPDEST PUSH2 0x2A0 DUP2 ADD PUSH2 0x5175 DUP3 DUP10 PUSH2 0x4F4B JUMP JUMPDEST PUSH2 0x5182 PUSH1 0xC0 DUP4 ADD DUP9 PUSH2 0x4F4B JUMP JUMPDEST DUP6 PUSH2 0x180 DUP4 ADD MSTORE PUSH2 0x5197 PUSH2 0x1A0 DUP4 ADD DUP7 PUSH2 0x4F99 JUMP JUMPDEST PUSH2 0x51A5 PUSH2 0x200 DUP4 ADD DUP6 PUSH2 0x4C1C JUMP JUMPDEST PUSH2 0x4800 PUSH2 0x240 DUP4 ADD DUP5 PUSH2 0x4FB2 JUMP JUMPDEST PUSH4 0x4E487B71 PUSH1 0xE0 SHL PUSH1 0x0 MSTORE PUSH1 0x41 PUSH1 0x4 MSTORE PUSH1 0x24 PUSH1 0x0 REVERT JUMPDEST PUSH1 0x0 PUSH1 0x40 DUP3 DUP5 SUB SLT ISZERO PUSH2 0x51DB JUMPI PUSH1 0x0 DUP1 REVERT JUMPDEST PUSH1 0x40 DUP1 MLOAD SWAP1 DUP2 ADD PUSH1 0x1 PUSH1 0x1 PUSH1 0x40 SHL SUB DUP2 GT DUP3 DUP3 LT OR ISZERO PUSH2 0x520B JUMPI PUSH4 0x4E487B71 PUSH1 0xE0 SHL PUSH1 0x0 MSTORE PUSH1 0x41 PUSH1 0x4 MSTORE PUSH1 0x24 PUSH1 0x0 REVERT JUMPDEST PUSH1 0x40 MSTORE DUP3 MLOAD DUP2 MSTORE PUSH1 0x20 SWAP3 DUP4 ADD MLOAD SWAP3 DUP2 ADD SWAP3 SWAP1 SWAP3 MSTORE POP SWAP2 SWAP1 POP JUMP JUMPDEST PUSH1 0x0 PUSH1 0x20 DUP3 DUP5 SUB SLT ISZERO PUSH2 0x5237 JUMPI PUSH1 0x0 DUP1 REVERT JUMPDEST DUP2 MLOAD PUSH2 0x9EF DUP2 PUSH2 0x4B2C JUMP JUMPDEST PUSH1 0x0 PUSH1 0x1 PUSH1 0x1 PUSH1 0x50 SHL SUB DUP3 DUP2 AND DUP5 DUP3 AND DUP1 DUP4 SUB DUP3 GT ISZERO PUSH2 0x5264 JUMPI PUSH2 0x5264 PUSH2 0x4DC7 JUMP JUMPDEST ADD SWAP5 SWAP4 POP POP POP POP JUMP JUMPDEST PUSH1 0x1 PUSH1 0x1 PUSH1 0xA0 SHL SUB SWAP3 SWAP1 SWAP3 AND DUP3 MSTORE PUSH1 0x20 DUP3 ADD MSTORE PUSH1 0x40 ADD SWAP1 JUMP JUMPDEST PUSH4 0x4E487B71 PUSH1 0xE0 SHL PUSH1 0x0 MSTORE PUSH1 0x21 PUSH1 0x4 MSTORE PUSH1 0x24 PUSH1 0x0 REVERT JUMPDEST PUSH1 0x0 PUSH1 0xFF DUP3 AND PUSH1 0xFF DUP5 AND DUP1 DUP3 LT ISZERO PUSH2 0x52B6 JUMPI PUSH2 0x52B6 PUSH2 0x4DC7 JUMP JUMPDEST SWAP1 SUB SWAP4 SWAP3 POP POP POP JUMP JUMPDEST PUSH1 0x1 DUP2 DUP2 JUMPDEST DUP1 DUP6 GT ISZERO PUSH2 0x52FA JUMPI DUP2 PUSH1 0x0 NOT DIV DUP3 GT ISZERO PUSH2 0x52E0 JUMPI PUSH2 0x52E0 PUSH2 0x4DC7 JUMP JUMPDEST DUP1 DUP6 AND ISZERO PUSH2 0x52ED JUMPI SWAP2 DUP2 MUL SWAP2 JUMPDEST SWAP4 DUP5 SHR SWAP4 SWAP1 DUP1 MUL SWAP1 PUSH2 0x52C4 JUMP JUMPDEST POP SWAP3 POP SWAP3 SWAP1 POP JUMP JUMPDEST PUSH1 0x0 DUP3 PUSH2 0x5311 JUMPI POP PUSH1 0x1 PUSH2 0x8B9 JUMP JUMPDEST DUP2 PUSH2 0x531E JUMPI POP PUSH1 0x0 PUSH2 0x8B9 JUMP JUMPDEST DUP2 PUSH1 0x1 DUP2 EQ PUSH2 0x5334 JUMPI PUSH1 0x2 DUP2 EQ PUSH2 0x533E JUMPI PUSH2 0x535A JUMP JUMPDEST PUSH1 0x1 SWAP2 POP POP PUSH2 0x8B9 JUMP JUMPDEST PUSH1 0xFF DUP5 GT ISZERO PUSH2 0x534F JUMPI PUSH2 0x534F PUSH2 0x4DC7 JUMP JUMPDEST POP POP PUSH1 0x1 DUP3 SHL PUSH2 0x8B9 JUMP JUMPDEST POP PUSH1 0x20 DUP4 LT PUSH2 0x133 DUP4 LT AND PUSH1 0x4E DUP5 LT PUSH1 0xB DUP5 LT AND OR ISZERO PUSH2 0x537D JUMPI POP DUP2 DUP2 EXP PUSH2 0x8B9 JUMP JUMPDEST PUSH2 0x5387 DUP4 DUP4 PUSH2 0x52BF JUMP JUMPDEST DUP1 PUSH1 0x0 NOT DIV DUP3 GT ISZERO PUSH2 0x539B JUMPI PUSH2 0x539B PUSH2 0x4DC7 JUMP JUMPDEST MUL SWAP4 SWAP3 POP POP POP JUMP JUMPDEST PUSH1 0x0 PUSH2 0x9EF PUSH1 0xFF DUP5 AND DUP4 PUSH2 0x5302 JUMP JUMPDEST PUSH1 0x0 PUSH1 0x20 DUP3 DUP5 SUB SLT ISZERO PUSH2 0x53C4 JUMPI PUSH1 0x0 DUP1 REVERT JUMPDEST DUP2 MLOAD PUSH2 0x9EF DUP2 PUSH2 0x4B58 JUMP JUMPDEST PUSH1 0x0 DUP3 MLOAD PUSH2 0x53E1 DUP2 DUP5 PUSH1 0x20 DUP8 ADD PUSH2 0x49C3 JUMP JUMPDEST SWAP2 SWAP1 SWAP2 ADD SWAP3 SWAP2 POP POP JUMP INVALID PUSH4 0x982DF10E REVERT DUP14 STATICCALL 0xAA LOG0 0xFC 0xC7 CREATE2 SIGNEXTEND 0x2D SWAP4 0xB7 0xCB LOG2 PUSH13 0xCC48ADEE2873220D485DC39ADD CALLCODE MSTORE 0xAD SHL 0xE2 0xC8 SWAP12 PUSH10 0xC2B068FC378DAA952BA7 CALL PUSH4 0xC4A11628 CREATE2 GAS 0x4D CREATE2 0x23 0xB3 0xEF 0xE7 0x4C SWAP2 SSTORE 0x2B PUSH5 0xC2E2E7BD25 JUMP CODECOPY 0xE0 DIV 0xE6 SWAP4 0xBD RETURNDATACOPY SAR ADD 0xCC CALLER 0xE6 JUMP LT 0xB8 PUSH11 0xFCC1FFED8C5BE1E5EBEC7D JUMPDEST 0xD1 0x4F PUSH18 0x427D1E84F3DD0314C0F7B2291E5B200AC8C7 0xC3 0xB9 0x25 POP 0xEF 0x2F 0xC2 PUSH8 0x12B5C84B56835F1 PUSH16 0xFD5331AC5A151A3760D74908721BA78B 0xE INVALID LOG2 PUSH5 0x6970667358 0x22 SLT KECCAK256 0xC 0xED SWAP7 SWAP11 0xC5 SWAP12 0xCA MULMOD 0x1E PUSH20 0xDD963EBC8CA6889536608E932CF89CEE7DDF61D1 PUSH22 0x7464736F6C634300080C0033A2646970667358221220 0xF8 DIV PUSH5 0xA0E22098D2 0xEC DELEGATECALL 0xDC CALLVALUE 0x1E 0xFC MLOAD 0xE4 0xC3 DELEGATECALL 0xBA 0xBE 0xF 0xFC 0xDA DUP2 JUMPI PUSH5 0x44332B45D3 LOG0 PUSH5 0x736F6C6343 STOP ADDMOD 0xC STOP CALLER "
		},
		"gasEstimates": {
			"creation": {
				"codeDepositCost": "4909400",
				"executionCost": "infinite",
				"totalCost": "infinite"
			},
			"external": {
				"collect(address)": "infinite",
				"getSwaapLabs()": "2443",
				"isPool(address)": "2561",
				"newPool()": "infinite",
				"setPause(bool)": "infinite",
				"setSwaapLabs(address)": "28245",
				"whenNotPaused()": "2487"
			}
		},
		"methodIdentifiers": {
			"collect(address)": "06ec16f8",
			"getSwaapLabs()": "af1224f0",
			"isPool(address)": "5b16ebb7",
			"newPool()": "0f11779b",
			"setPause(bool)": "bedb86fb",
			"setSwaapLabs(address)": "126bac63",
			"whenNotPaused()": "5c2dc4f0"
		}
	},
	"abi": [
		{
			"inputs": [],
			"stateMutability": "nonpayable",
			"type": "constructor"
		},
		{
			"anonymous": false,
			"inputs": [
				{
					"indexed": true,
					"internalType": "address",
					"name": "caller",
					"type": "address"
				},
				{
					"indexed": true,
					"internalType": "address",
					"name": "pool",
					"type": "address"
				}
			],
			"name": "LOG_NEW_POOL",
			"type": "event"
		},
		{
			"anonymous": false,
			"inputs": [
				{
					"indexed": true,
					"internalType": "address",
					"name": "caller",
					"type": "address"
				},
				{
					"indexed": true,
					"internalType": "address",
					"name": "swaaplabs",
					"type": "address"
				}
			],
			"name": "LOG_SWAAPLABS",
			"type": "event"
		},
		{
			"inputs": [
				{
					"internalType": "address",
					"name": "erc20",
					"type": "address"
				}
			],
			"name": "collect",
			"outputs": [],
			"stateMutability": "nonpayable",
			"type": "function"
		},
		{
			"inputs": [],
			"name": "getSwaapLabs",
			"outputs": [
				{
					"internalType": "address",
					"name": "",
					"type": "address"
				}
			],
			"stateMutability": "view",
			"type": "function"
		},
		{
			"inputs": [
				{
					"internalType": "address",
					"name": "b",
					"type": "address"
				}
			],
			"name": "isPool",
			"outputs": [
				{
					"internalType": "bool",
					"name": "",
					"type": "bool"
				}
			],
			"stateMutability": "view",
			"type": "function"
		},
		{
			"inputs": [],
			"name": "newPool",
			"outputs": [
				{
					"internalType": "contract Pool",
					"name": "",
					"type": "address"
				}
			],
			"stateMutability": "nonpayable",
			"type": "function"
		},
		{
			"inputs": [
				{
					"internalType": "bool",
					"name": "paused",
					"type": "bool"
				}
			],
			"name": "setPause",
			"outputs": [],
			"stateMutability": "nonpayable",
			"type": "function"
		},
		{
			"inputs": [
				{
					"internalType": "address",
					"name": "b",
					"type": "address"
				}
			],
			"name": "setSwaapLabs",
			"outputs": [],
			"stateMutability": "nonpayable",
			"type": "function"
		},
		{
			"inputs": [],
			"name": "whenNotPaused",
			"outputs": [],
			"stateMutability": "view",
			"type": "function"
		}
	]
}